{"abi":[{"type":"constructor","inputs":[{"name":"_owner","type":"address","internalType":"address"},{"name":"_minStake","type":"uint256","internalType":"uint256"}],"stateMutability":"nonpayable"},{"type":"function","name":"CHALLENGE_PENALTY","inputs":[],"outputs":[{"name":"","type":"uint256","internalType":"uint256"}],"stateMutability":"view"},{"type":"function","name":"CHALLENGE_PERIOD","inputs":[],"outputs":[{"name":"","type":"uint32","internalType":"uint32"}],"stateMutability":"view"},{"type":"function","name":"MAX_CHUNKS","inputs":[],"outputs":[{"name":"","type":"uint16","internalType":"uint16"}],"stateMutability":"view"},{"type":"function","name":"MIN_REDUNDANCY_RATIO","inputs":[],"outputs":[{"name":"","type":"uint16","internalType":"uint16"}],"stateMutability":"view"},{"type":"function","name":"activeChunkChallenges","inputs":[{"name":"","type":"bytes32","internalType":"bytes32"},{"name":"","type":"uint16","internalType":"uint16"},{"name":"","type":"address","internalType":"address"}],"outputs":[{"name":"","type":"bytes32","internalType":"bytes32"}],"stateMutability":"view"},{"type":"function","name":"addStake","inputs":[{"name":"amount","type":"uint256","internalType":"uint256"}],"outputs":[],"stateMutability":"nonpayable"},{"type":"function","name":"availableChunkList","inputs":[{"name":"","type":"bytes32","internalType":"bytes32"},{"name":"","type":"uint256","internalType":"uint256"}],"outputs":[{"name":"","type":"uint16","internalType":"uint16"}],"stateMutability":"view"},{"type":"function","name":"chunkAvailability","inputs":[{"name":"","type":"bytes32","internalType":"bytes32"},{"name":"","type":"uint256","internalType":"uint256"}],"outputs":[{"name":"","type":"uint256","internalType":"uint256"}],"stateMutability":"view"},{"type":"function","name":"chunkOwners","inputs":[{"name":"","type":"bytes32","internalType":"bytes32"},{"name":"","type":"uint16","internalType":"uint16"}],"outputs":[{"name":"","type":"address","internalType":"address"}],"stateMutability":"view"},{"type":"function","name":"commitmentExists","inputs":[{"name":"commitment","type":"bytes32","internalType":"bytes32"}],"outputs":[{"name":"","type":"bool","internalType":"bool"}],"stateMutability":"view"},{"type":"function","name":"commitments","inputs":[{"name":"","type":"bytes32","internalType":"bytes32"}],"outputs":[{"name":"size","type":"uint32","internalType":"uint32"},{"name":"timestamp","type":"uint32","internalType":"uint32"},{"name":"totalChunks","type":"uint16","internalType":"uint16"},{"name":"requiredChunks","type":"uint16","internalType":"uint16"},{"name":"availableChunks","type":"uint16","internalType":"uint16"},{"name":"kzgCommitment","type":"bytes","internalType":"bytes"}],"stateMutability":"view"},{"type":"function","name":"getAvailableChunks","inputs":[{"name":"commitment","type":"bytes32","internalType":"bytes32"}],"outputs":[{"name":"","type":"uint16[]","internalType":"uint16[]"}],"stateMutability":"view"},{"type":"function","name":"getChunkOwner","inputs":[{"name":"commitment","type":"bytes32","internalType":"bytes32"},{"name":"chunkId","type":"uint16","internalType":"uint16"}],"outputs":[{"name":"","type":"address","internalType":"address"}],"stateMutability":"view"},{"type":"function","name":"getCommitmentInfo","inputs":[{"name":"commitment","type":"bytes32","internalType":"bytes32"}],"outputs":[{"name":"","type":"tuple","internalType":"struct Poda.Commitment","components":[{"name":"size","type":"uint32","internalType":"uint32"},{"name":"timestamp","type":"uint32","internalType":"uint32"},{"name":"totalChunks","type":"uint16","internalType":"uint16"},{"name":"requiredChunks","type":"uint16","internalType":"uint16"},{"name":"availableChunks","type":"uint16","internalType":"uint16"},{"name":"kzgCommitment","type":"bytes","internalType":"bytes"}]},{"name":"isRecoverable","type":"bool","internalType":"bool"}],"stateMutability":"view"},{"type":"function","name":"getMultipleCommitmentStatus","inputs":[{"name":"commitmentList","type":"bytes32[]","internalType":"bytes32[]"}],"outputs":[{"name":"","type":"bool[]","internalType":"bool[]"}],"stateMutability":"view"},{"type":"function","name":"getNetworkStorageStats","inputs":[],"outputs":[{"name":"totalCommitments","type":"uint256","internalType":"uint256"},{"name":"totalOriginalData","type":"uint256","internalType":"uint256"},{"name":"totalStoredData","type":"uint256","internalType":"uint256"},{"name":"averageEfficiency","type":"uint256","internalType":"uint256"}],"stateMutability":"pure"},{"type":"function","name":"getProviderChunks","inputs":[{"name":"commitment","type":"bytes32","internalType":"bytes32"},{"name":"provider","type":"address","internalType":"address"}],"outputs":[{"name":"","type":"uint16[]","internalType":"uint16[]"}],"stateMutability":"view"},{"type":"function","name":"getProviderInfo","inputs":[{"name":"provider","type":"address","internalType":"address"}],"outputs":[{"name":"","type":"tuple","internalType":"struct Poda.ProviderInfo","components":[{"name":"name","type":"string","internalType":"string"},{"name":"addr","type":"address","internalType":"address"},{"name":"url","type":"string","internalType":"string"},{"name":"registeredAt","type":"uint32","internalType":"uint32"},{"name":"challengeCount","type":"uint32","internalType":"uint32"},{"name":"challengeSuccessCount","type":"uint32","internalType":"uint32"},{"name":"active","type":"bool","internalType":"bool"},{"name":"stakedAmount","type":"uint256","internalType":"uint256"}]}],"stateMutability":"view"},{"type":"function","name":"getProviders","inputs":[{"name":"eligible","type":"bool","internalType":"bool"}],"outputs":[{"name":"","type":"tuple[]","internalType":"struct Poda.ProviderInfo[]","components":[{"name":"name","type":"string","internalType":"string"},{"name":"addr","type":"address","internalType":"address"},{"name":"url","type":"string","internalType":"string"},{"name":"registeredAt","type":"uint32","internalType":"uint32"},{"name":"challengeCount","type":"uint32","internalType":"uint32"},{"name":"challengeSuccessCount","type":"uint32","internalType":"uint32"},{"name":"active","type":"bool","internalType":"bool"},{"name":"stakedAmount","type":"uint256","internalType":"uint256"}]}],"stateMutability":"view"},{"type":"function","name":"getStorageEfficiency","inputs":[{"name":"commitment","type":"bytes32","internalType":"bytes32"}],"outputs":[{"name":"originalSize","type":"uint256","internalType":"uint256"},{"name":"totalStoredSize","type":"uint256","internalType":"uint256"},{"name":"redundancyRatio","type":"uint256","internalType":"uint256"}],"stateMutability":"view"},{"type":"function","name":"isChunkAvailable","inputs":[{"name":"commitment","type":"bytes32","internalType":"bytes32"},{"name":"chunkId","type":"uint16","internalType":"uint16"}],"outputs":[{"name":"","type":"bool","internalType":"bool"}],"stateMutability":"view"},{"type":"function","name":"isCommitmentRecoverable","inputs":[{"name":"commitment","type":"bytes32","internalType":"bytes32"}],"outputs":[{"name":"","type":"bool","internalType":"bool"}],"stateMutability":"view"},{"type":"function","name":"issueChunkChallenge","inputs":[{"name":"commitment","type":"bytes32","internalType":"bytes32"},{"name":"chunkId","type":"uint16","internalType":"uint16"},{"name":"provider","type":"address","internalType":"address"}],"outputs":[{"name":"challengeId","type":"bytes32","internalType":"bytes32"}],"stateMutability":"nonpayable"},{"type":"function","name":"minStake","inputs":[],"outputs":[{"name":"","type":"uint256","internalType":"uint256"}],"stateMutability":"view"},{"type":"function","name":"namespaceHashes","inputs":[{"name":"","type":"bytes32","internalType":"bytes32"}],"outputs":[{"name":"","type":"bytes32","internalType":"bytes32"}],"stateMutability":"view"},{"type":"function","name":"owner","inputs":[],"outputs":[{"name":"","type":"address","internalType":"address"}],"stateMutability":"view"},{"type":"function","name":"providerChunks","inputs":[{"name":"","type":"bytes32","internalType":"bytes32"},{"name":"","type":"address","internalType":"address"},{"name":"","type":"uint256","internalType":"uint256"}],"outputs":[{"name":"","type":"uint16","internalType":"uint16"}],"stateMutability":"view"},{"type":"function","name":"providerList","inputs":[{"name":"","type":"uint256","internalType":"uint256"}],"outputs":[{"name":"","type":"address","internalType":"address"}],"stateMutability":"view"},{"type":"function","name":"providerNames","inputs":[{"name":"","type":"address","internalType":"address"}],"outputs":[{"name":"","type":"string","internalType":"string"}],"stateMutability":"view"},{"type":"function","name":"providerUrls","inputs":[{"name":"","type":"address","internalType":"address"}],"outputs":[{"name":"","type":"string","internalType":"string"}],"stateMutability":"view"},{"type":"function","name":"providers","inputs":[{"name":"","type":"address","internalType":"address"}],"outputs":[{"name":"registeredAt","type":"uint32","internalType":"uint32"},{"name":"challengeCount","type":"uint32","internalType":"uint32"},{"name":"challengeSuccessCount","type":"uint32","internalType":"uint32"},{"name":"active","type":"bool","internalType":"bool"},{"name":"stakedAmount","type":"uint256","internalType":"uint256"}],"stateMutability":"view"},{"type":"function","name":"registerProvider","inputs":[{"name":"name","type":"string","internalType":"string"},{"name":"url","type":"string","internalType":"string"}],"outputs":[],"stateMutability":"payable"},{"type":"function","name":"respondToChunkChallenge","inputs":[{"name":"commitment","type":"bytes32","internalType":"bytes32"},{"name":"chunkId","type":"uint16","internalType":"uint16"},{"name":"proof","type":"bytes32","internalType":"bytes32"}],"outputs":[],"stateMutability":"nonpayable"},{"type":"function","name":"submitChunkAttestations","inputs":[{"name":"commitment","type":"bytes32","internalType":"bytes32"},{"name":"chunkIds","type":"uint16[]","internalType":"uint16[]"}],"outputs":[],"stateMutability":"nonpayable"},{"type":"function","name":"submitCommitment","inputs":[{"name":"commitment","type":"bytes32","internalType":"bytes32"},{"name":"namespace","type":"string","internalType":"string"},{"name":"size","type":"uint32","internalType":"uint32"},{"name":"totalChunks","type":"uint16","internalType":"uint16"},{"name":"requiredChunks","type":"uint16","internalType":"uint16"},{"name":"kzgCommitment","type":"bytes","internalType":"bytes"}],"outputs":[],"stateMutability":"nonpayable"},{"type":"function","name":"withdrawStake","inputs":[{"name":"amount","type":"uint256","internalType":"uint256"}],"outputs":[],"stateMutability":"nonpayable"},{"type":"event","name":"ChunkAttestation","inputs":[{"name":"commitment","type":"bytes32","indexed":true,"internalType":"bytes32"},{"name":"provider","type":"address","indexed":true,"internalType":"address"},{"name":"chunkId","type":"uint16","indexed":false,"internalType":"uint16"}],"anonymous":false},{"type":"event","name":"ChunkChallengeIssued","inputs":[{"name":"challengeId","type":"bytes32","indexed":true,"internalType":"bytes32"},{"name":"commitment","type":"bytes32","indexed":true,"internalType":"bytes32"},{"name":"chunkId","type":"uint16","indexed":false,"internalType":"uint16"},{"name":"provider","type":"address","indexed":true,"internalType":"address"}],"anonymous":false},{"type":"event","name":"CommitmentCreated","inputs":[{"name":"commitment","type":"bytes32","indexed":true,"internalType":"bytes32"},{"name":"namespace","type":"string","indexed":false,"internalType":"string"},{"name":"size","type":"uint32","indexed":false,"internalType":"uint32"},{"name":"totalChunks","type":"uint16","indexed":false,"internalType":"uint16"},{"name":"requiredChunks","type":"uint16","indexed":false,"internalType":"uint16"}],"anonymous":false},{"type":"event","name":"CommitmentReady","inputs":[{"name":"commitment","type":"bytes32","indexed":true,"internalType":"bytes32"},{"name":"availableChunks","type":"uint16","indexed":false,"internalType":"uint16"}],"anonymous":false}],"bytecode":{"object":"0x60806040523480156200001157600080fd5b50604051620031aa380380620031aa83398101604081905262000034916200005e565b600080546001600160a01b0319166001600160a01b039390931692909217909155600c556200009a565b600080604083850312156200007257600080fd5b82516001600160a01b03811681146200008a57600080fd5b6020939093015192949293505050565b61310080620000aa6000396000f3fe60806040526004361061020f5760003560e01c8063839df94511610118578063c3a079ed116100a0578063eb4f16b51161006f578063eb4f16b51461077b578063ee70b3571461079b578063f02b04b7146107c8578063f260d1fc146107e8578063f32738591461080857600080fd5b8063c3a079ed146106c2578063ca4bca39146106ed578063e19bb9651461070d578063e946f22f1461073a57600080fd5b8063a08bd437116100e7578063a08bd4371461061f578063a20bcb331461064d578063ac16c9851461066d578063b7ecbeba1461068d578063c26e79de146106a257600080fd5b8063839df9451461057157806386307865146105a357806388f299dd146105df5780638da5cb5b146105ff57600080fd5b8063375b3c0a1161019b5780634bde3c101161016a5780634bde3c10146104b8578063540b8e2d146104e85780635ed253461461050857806374ca8971146105315780637583902f1461054457600080fd5b8063375b3c0a14610417578063390bfd3c1461042d5780633cfe0c221461044d5780633f521c881461048b57600080fd5b80631fca4726116101e25780631fca47261461033b57806325585a4c1461038157806325d5971f1461039d5780632bd771a7146103bd5780633443c4b8146103ea57600080fd5b80630787bc27146102145780630ab7a0e8146102af5780630fac8ac0146102e15780631d68d3ef14610319575b600080fd5b34801561022057600080fd5b5061027261022f3660046125ec565b6004602052600090815260409020805460019091015463ffffffff80831692600160201b8104821692600160401b820490921691600160601b90910460ff169085565b6040805163ffffffff96871681529486166020860152929094169183019190915215156060820152608081019190915260a0015b60405180910390f35b3480156102bb57600080fd5b5060008080806040805194855260208501939093529183015260608201526080016102a6565b3480156102ed57600080fd5b506103016102fc366004612619565b610843565b6040516001600160a01b0390911681526020016102a6565b34801561032557600080fd5b5061033961033436600461268e565b610871565b005b34801561034757600080fd5b50610373610356366004612747565b600a60209081526000928352604080842090915290825290205481565b6040519081526020016102a6565b34801561038d57600080fd5b50610373670de0b6b3a764000081565b3480156103a957600080fd5b506103396103b8366004612769565b610cac565b3480156103c957600080fd5b506103dd6103d83660046127c7565b610de1565b6040516102a69190612809565b3480156103f657600080fd5b5061040a6104053660046125ec565b610fb5565b6040516102a69190612895565b34801561042357600080fd5b50610373600c5481565b34801561043957600080fd5b50610301610448366004612769565b61104f565b34801561045957600080fd5b506103736104683660046128a8565b600b60209081526000938452604080852082529284528284209052825290205481565b34801561049757600080fd5b506104ab6104a6366004612769565b611079565b6040516102a691906128e4565b3480156104c457600080fd5b506104d86104d3366004612619565b611103565b60405190151581526020016102a6565b3480156104f457600080fd5b506104ab610503366004612920565b611158565b34801561051457600080fd5b5061051e61040081565b60405161ffff90911681526020016102a6565b61033961053f366004612943565b6111f4565b34801561055057600080fd5b5061056461055f3660046125ec565b611457565b6040516102a69190612a5c565b34801561057d57600080fd5b5061059161058c366004612769565b611679565b6040516102a696959493929190612a6f565b3480156105af57600080fd5b506104d86105be366004612769565b600090815260016020526040902054600160201b900463ffffffff16151590565b3480156105eb57600080fd5b5061040a6105fa3660046125ec565b611754565b34801561060b57600080fd5b50600054610301906001600160a01b031681565b34801561062b57600080fd5b5061063f61063a366004612769565b61176d565b6040516102a6929190612abe565b34801561065957600080fd5b506104d8610668366004612769565b6118bf565b34801561067957600080fd5b5061051e610688366004612747565b6119ef565b34801561069957600080fd5b5061051e609681565b3480156106ae57600080fd5b506103736106bd3660046128a8565b611a36565b3480156106ce57600080fd5b506106d8610e1081565b60405163ffffffff90911681526020016102a6565b3480156106f957600080fd5b50610339610708366004612b35565b611c90565b34801561071957600080fd5b5061072d610728366004612b6a565b611dc0565b6040516102a69190612b8c565b34801561074657600080fd5b50610301610755366004612619565b60076020908152600092835260408084209091529082529020546001600160a01b031681565b34801561078757600080fd5b50610339610796366004612769565b611f25565b3480156107a757600080fd5b506103736107b6366004612769565b60026020526000908152604090205481565b3480156107d457600080fd5b5061051e6107e3366004612bf0565b611fd5565b3480156107f457600080fd5b50610339610803366004612c15565b612029565b34801561081457600080fd5b50610828610823366004612769565b6123ee565b604080519384526020840192909252908201526060016102a6565b600082815260076020908152604080832061ffff851684529091529020546001600160a01b03165b92915050565b876108b85760405162461bcd60e51b8152602060048201526012602482015271125b9d985b1a590818dbdb5b5a5d1b595b9d60721b60448201526064015b60405180910390fd5b600088815260016020526040902054600160201b900463ffffffff16156109215760405162461bcd60e51b815260206004820152601960248201527f436f6d6d69746d656e7420616c7265616479206578697374730000000000000060448201526064016108af565b60008563ffffffff16116109775760405162461bcd60e51b815260206004820152601b60248201527f53697a65206d7573742062652067726561746572207468616e2030000000000060448201526064016108af565b8261ffff168461ffff16116109ce5760405162461bcd60e51b815260206004820152601f60248201527f496e76616c696420526565642d536f6c6f6d6f6e20706172616d65746572730060448201526064016108af565b61040061ffff85161115610a165760405162461bcd60e51b815260206004820152600f60248201526e546f6f206d616e79206368756e6b7360881b60448201526064016108af565b85610a555760405162461bcd60e51b815260206004820152600f60248201526e456d707479206e616d65737061636560881b60448201526064016108af565b60308114610aa55760405162461bcd60e51b815260206004820152601d60248201527f496e76616c6964204b5a4720636f6d6d69746d656e74206c656e67746800000060448201526064016108af565b609683610ab3866064612c77565b610abd9190612cb3565b61ffff161015610b0f5760405162461bcd60e51b815260206004820152601760248201527f496e73756666696369656e7420726564756e64616e637900000000000000000060448201526064016108af565b6040518060c001604052808663ffffffff1681526020014263ffffffff1681526020018561ffff1681526020018461ffff168152602001600061ffff16815260200183838080601f01602080910402602001604051908101604052809392919081815260200183838082843760009201829052509390945250508a8152600160208181526040928390208551815492870151948701516060880151608089015163ffffffff93841667ffffffffffffffff1990961695909517600160201b9390971692909202959095176bffffffff00000000000000001916600160401b61ffff9687160261ffff60501b191617600160501b918616919091021761ffff60601b1916600160601b949092169390930217825560a0840151919250820190610c379082612d6c565b5050604051610c4a915088908890612e2c565b6040805191829003822060008b81526002602052919091205588907f19b907386b39dbf5279c95617b3e1536cb7d153128dfd23bdc11af2996bebe8b90610c9a908a908a908a908a908a90612e3c565b60405180910390a25050505050505050565b33600090815260046020526040902054600160601b900460ff16610ce25760405162461bcd60e51b81526004016108af90612e8c565b60008111610d325760405162461bcd60e51b815260206004820152601d60248201527f416d6f756e74206d7573742062652067726561746572207468616e203000000060448201526064016108af565b33600090815260046020526040902060010154811115610d895760405162461bcd60e51b8152602060048201526012602482015271496e73756666696369656e74207374616b6560701b60448201526064016108af565b3360009081526004602052604081206001018054839290610dab908490612ecf565b9091555050604051339082156108fc029083906000818181858888f19350505050158015610ddd573d6000803e3d6000fd5b5050565b60608160008167ffffffffffffffff811115610dff57610dff612cd4565b604051908082528060200260200182016040528015610e28578160200160208202803683370190505b50905060005b82811015610fac57600060016000888885818110610e4e57610e4e612ee2565b60209081029290920135835250818101929092526040908101600020815160c081018352815463ffffffff8082168352600160201b8204169482019490945261ffff600160401b8504811693820193909352600160501b840483166060820152600160601b909304909116608083015260018101805460a084019190610ed390612cea565b80601f0160208091040260200160405190810160405280929190818152602001828054610eff90612cea565b8015610f4c5780601f10610f2157610100808354040283529160200191610f4c565b820191906000526020600020905b815481529060010190602001808311610f2f57829003601f168201915b50505050508152505090506000816020015163ffffffff16118015610f815750806060015161ffff16816080015161ffff1610155b838381518110610f9357610f93612ee2565b9115156020928302919091019091015250600101610e2e565b50949350505050565b60066020526000908152604090208054610fce90612cea565b80601f0160208091040260200160405190810160405280929190818152602001828054610ffa90612cea565b80156110475780601f1061101c57610100808354040283529160200191611047565b820191906000526020600020905b81548152906001019060200180831161102a57829003601f168201915b505050505081565b6003818154811061105f57600080fd5b6000918252602090912001546001600160a01b0316905081565b6000818152600960209081526040918290208054835181840281018401909452808452606093928301828280156110f757602002820191906000526020600020906000905b82829054906101000a900461ffff1661ffff16815260200190600201906020826001010492830192600103820291508084116110be5790505b50505050509050919050565b60008061111261010084612cb3565b61ffff169050600061112661010085612ef8565b6000958652600a602090815260408088209488529390529190942054600161ffff9092169190911b1615159392505050565b60008281526008602090815260408083206001600160a01b03851684528252918290208054835181840281018401909452808452606093928301828280156111e757602002820191906000526020600020906000905b82829054906101000a900461ffff1661ffff16815260200190600201906020826001010492830192600103820291508084116111ae5790505b5050505050905092915050565b3360009081526004602052604090205463ffffffff16156112575760405162461bcd60e51b815260206004820152601b60248201527f50726f766964657220616c72656164792072656769737465726564000000000060448201526064016108af565b8215801590611267575060208311155b6112a95760405162461bcd60e51b8152602060048201526013602482015272092dcecc2d8d2c840dcc2daca40d8cadccee8d606b1b60448201526064016108af565b80158015906112b9575060808111155b6112fa5760405162461bcd60e51b8152602060048201526012602482015271092dcecc2d8d2c840aaa49840d8cadccee8d60731b60448201526064016108af565b600c543410156113415760405162461bcd60e51b8152602060048201526012602482015271496e73756666696369656e74207374616b6560701b60448201526064016108af565b6003805460018181019092557fc2575a0e9e593c00f959f8c92f12db2869c3395a3b0502d05e2516446f71f85b0180546001600160a01b031916339081179091556040805160a08101825263ffffffff42811682526000602083810182815284860183815260608601898152346080880190815298855260048452878520965187549351925191511515600160601b0260ff60601b19928816600160401b02929092166cffffffffff000000000000000019938816600160201b0267ffffffffffffffff19909516919097161792909217169390931792909217835593519190940155600590925220611435848683612f19565b50336000908152600660205260409020611450828483612f19565b5050505050565b61145f61258c565b6001600160a01b0382166000818152600460209081526040808320815160a081018352815463ffffffff8082168352600160201b8204811683870152600160401b82041682850152600160601b900460ff16151560608201526001909101546080820152815161010081018352948452600590925290912080549192918291906114e890612cea565b80601f016020809104026020016040519081016040528092919081815260200182805461151490612cea565b80156115615780601f1061153657610100808354040283529160200191611561565b820191906000526020600020905b81548152906001019060200180831161154457829003601f168201915b50505050508152602001846001600160a01b0316815260200160066000866001600160a01b03166001600160a01b0316815260200190815260200160002080546115aa90612cea565b80601f01602080910402602001604051908101604052809291908181526020018280546115d690612cea565b80156116235780601f106115f857610100808354040283529160200191611623565b820191906000526020600020905b81548152906001019060200180831161160657829003601f168201915b50505050508152602001826000015163ffffffff168152602001826020015163ffffffff168152602001826040015163ffffffff1681526020018260600151151581526020018260800151815250915050919050565b60016020819052600091825260409091208054918101805463ffffffff80851694600160201b81049091169361ffff600160401b8304811694600160501b8404821694600160601b909404909116926116d190612cea565b80601f01602080910402602001604051908101604052809291908181526020018280546116fd90612cea565b801561174a5780601f1061171f5761010080835404028352916020019161174a565b820191906000526020600020905b81548152906001019060200180831161172d57829003601f168201915b5050505050905086565b60056020526000908152604090208054610fce90612cea565b6040805160c0810182526000808252602082018190529181018290526060808201839052608082019290925260a08101919091526000828152600160208181526040808420815160c081018352815463ffffffff8082168352600160201b8204169482019490945261ffff600160401b8504811693820193909352600160501b840483166060820152600160601b9093049091166080830152918201805484939160a084019161181c90612cea565b80601f016020809104026020016040519081016040528092919081815260200182805461184890612cea565b80156118955780601f1061186a57610100808354040283529160200191611895565b820191906000526020600020905b81548152906001019060200180831161187857829003601f168201915b505050505081525050905080816060015161ffff16826080015161ffff1610159250925050915091565b6000818152600160208181526040808420815160c081018352815463ffffffff8082168352600160201b8204169482019490945261ffff600160401b8504811693820193909352600160501b840483166060820152600160601b9093049091166080830152918201805484939160a084019161193a90612cea565b80601f016020809104026020016040519081016040528092919081815260200182805461196690612cea565b80156119b35780601f10611988576101008083540402835291602001916119b3565b820191906000526020600020905b81548152906001019060200180831161199657829003601f168201915b50505050508152505090506000816020015163ffffffff161180156119e85750806060015161ffff16816080015161ffff1610155b9392505050565b60096020528160005260406000208181548110611a0b57600080fd5b9060005260206000209060109182820401919006600202915091509054906101000a900461ffff1681565b6000838152600160205260408120548490600160201b900463ffffffff16611a705760405162461bcd60e51b81526004016108af90612fd9565b600085815260076020908152604080832061ffff881684529091529020546001600160a01b03848116911614611ae85760405162461bcd60e51b815260206004820152601f60248201527f50726f766964657220646f65736e2774206f776e2074686973206368756e6b0060448201526064016108af565b6000858152600b6020908152604080832061ffff8816845282528083206001600160a01b038716845290915290205415611b645760405162461bcd60e51b815260206004820152601860248201527f4368616c6c656e676520616c726561647920616374697665000000000000000060448201526064016108af565b60408051602081018790526001600160f01b031960f087901b16918101919091526bffffffffffffffffffffffff19606085811b8216604284015242605684015233901b166076820152608a0160408051808303601f1901815291815281516020928301206000888152600b845282812061ffff8916825284528281206001600160a01b03881682528452828120829055600493849052919091208054919450600160201b90910463ffffffff1691611c1c83613010565b91906101000a81548163ffffffff021916908363ffffffff16021790555050826001600160a01b031685837f9a2190490de3b1f1bf69f982407eaa08bbe2adc554aa80a4ae96f25f74b7e20387604051611c80919061ffff91909116815260200190565b60405180910390a4509392505050565b33600090815260046020526040902054600160601b900460ff16611cc65760405162461bcd60e51b81526004016108af90612e8c565b6000838152600b6020908152604080832061ffff86168452825280832033845290915290205480611d2f5760405162461bcd60e51b81526020600482015260136024820152724e6f20616374697665206368616c6c656e676560681b60448201526064016108af565b81611d6c5760405162461bcd60e51b815260206004820152600d60248201526c24b73b30b634b210383937b7b360991b60448201526064016108af565b3360009081526004602052604090208054600160401b900463ffffffff16906008611d9683613010565b91906101000a81548163ffffffff021916908363ffffffff1602179055505050505050565b505050565b60035460609060009067ffffffffffffffff811115611de157611de1612cd4565b604051908082528060200260200182016040528015611e1a57816020015b611e0761258c565b815260200190600190039081611dff5790505b50905060005b600354811015611f1e57838015611ec457506004600060038381548110611e4957611e49612ee2565b60009182526020808320909101546001600160a01b0316835282019290925260400190205460ff600160601b909104161580611ec45750600c546004600060038481548110611e9a57611e9a612ee2565b60009182526020808320909101546001600160a01b03168352820192909252604001902060010154105b611f1657611ef860038281548110611ede57611ede612ee2565b6000918252602090912001546001600160a01b0316611457565b828281518110611f0a57611f0a612ee2565b60200260200101819052505b600101611e20565b5092915050565b33600090815260046020526040902054600160601b900460ff16611f5b5760405162461bcd60e51b81526004016108af90612e8c565b60008111611fab5760405162461bcd60e51b815260206004820152601d60248201527f416d6f756e74206d7573742062652067726561746572207468616e203000000060448201526064016108af565b3360009081526004602052604081206001018054839290611fcd908490613033565b909155505050565b60086020528260005260406000206020528160005260406000208181548110611ffd57600080fd5b906000526020600020906010918282040191900660020292509250509054906101000a900461ffff1681565b33600090815260046020526040902054600160601b900460ff1661205f5760405162461bcd60e51b81526004016108af90612e8c565b6000838152600160205260409020548390600160201b900463ffffffff166120995760405162461bcd60e51b81526004016108af90612fd9565b81158015906120a9575060328211155b6120eb5760405162461bcd60e51b8152602060048201526013602482015272125b9d985b1a590818da1d5b9ac818dbdd5b9d606a1b60448201526064016108af565b600084815260016020526040812090805b8481101561234b57600086868381811061211857612118612ee2565b905060200201602081019061212d9190613046565b845490915061ffff600160401b9091048116908216106121825760405162461bcd60e51b815260206004820152601060248201526f125b9d985b1a590818da1d5b9ac8125160821b60448201526064016108af565b600088815260076020908152604080832061ffff851684529091529020546001600160a01b0316156121ef5760405162461bcd60e51b815260206004820152601660248201527510da1d5b9ac8185b1c9958591e48185d1d195cdd195960521b60448201526064016108af565b600088815260076020908152604080832061ffff80861680865291845282852080546001600160a01b031916339081179091558d86526008855283862090865284529184208054600181018255908552928420601084040180546002600f9095169490940261010090810a9283029290930219909316179091556122739083612cb3565b61ffff169050600061228761010084612ef8565b60008b8152600a6020908152604080832086845282528083208054600161ffff96871681811b9092179092558f8552600984529184208054918201815584529190922060108204018054600f9092166002026101000a8085021990921693871691909102929092179091559050846122fe81613061565b60405161ffff861681529096503391508b907f0d3612a65375aaed616b21fb3d1bfc5fcb7db37205b651f492456bab363a3d199060200160405180910390a38360010193505050506120fc565b50815481908390600c9061236b908490600160601b900461ffff16613078565b82546101009290920a61ffff8181021990931691831602179091558354600160501b81048216600160601b9091049091161090506123e6578154604051600160601b90910461ffff16815286907fec945f40a39d91f4317f852f732ad018288e363b2edfdf832749208505fcf46a9060200160405180910390a25b505050505050565b6000818152600160208181526040808420815160c081018352815463ffffffff8082168352600160201b8204169482019490945261ffff600160401b8504811693820193909352600160501b840483166060820152600160601b90930490911660808301529182018054849384938493909260a08401919061246f90612cea565b80601f016020809104026020016040519081016040528092919081815260200182805461249b90612cea565b80156124e85780601f106124bd576101008083540402835291602001916124e8565b820191906000526020600020905b8154815290600101906020018083116124cb57829003601f168201915b50505050508152505090506000816020015163ffffffff161161251d5760405162461bcd60e51b81526004016108af90612fd9565b806000015163ffffffff169350806060015161ffff16816040015161ffff16826000015161254b9190613093565b61255591906130b3565b63ffffffff169250806060015181604001516127106125749190612c77565b61257e9190612cb3565b61ffff169150509193909250565b6040805161010081018252606080825260006020830181905292820181905281018290526080810182905260a0810182905260c0810182905260e081019190915290565b80356001600160a01b03811681146125e757600080fd5b919050565b6000602082840312156125fe57600080fd5b6119e8826125d0565b803561ffff811681146125e757600080fd5b6000806040838503121561262c57600080fd5b8235915061263c60208401612607565b90509250929050565b60008083601f84011261265757600080fd5b50813567ffffffffffffffff81111561266f57600080fd5b60208301915083602082850101111561268757600080fd5b9250929050565b60008060008060008060008060c0898b0312156126aa57600080fd5b88359750602089013567ffffffffffffffff808211156126c957600080fd5b6126d58c838d01612645565b909950975060408b0135915063ffffffff821682146126f357600080fd5b81965061270260608c01612607565b955061271060808c01612607565b945060a08b013591508082111561272657600080fd5b506127338b828c01612645565b999c989b5096995094979396929594505050565b6000806040838503121561275a57600080fd5b50508035926020909101359150565b60006020828403121561277b57600080fd5b5035919050565b60008083601f84011261279457600080fd5b50813567ffffffffffffffff8111156127ac57600080fd5b6020830191508360208260051b850101111561268757600080fd5b600080602083850312156127da57600080fd5b823567ffffffffffffffff8111156127f157600080fd5b6127fd85828601612782565b90969095509350505050565b6020808252825182820181905260009190848201906040850190845b81811015612843578351151583529284019291840191600101612825565b50909695505050505050565b6000815180845260005b8181101561287557602081850181015186830182015201612859565b506000602082860101526020601f19601f83011685010191505092915050565b6020815260006119e8602083018461284f565b6000806000606084860312156128bd57600080fd5b833592506128cd60208501612607565b91506128db604085016125d0565b90509250925092565b6020808252825182820181905260009190848201906040850190845b8181101561284357835161ffff1683529284019291840191600101612900565b6000806040838503121561293357600080fd5b8235915061263c602084016125d0565b6000806000806040858703121561295957600080fd5b843567ffffffffffffffff8082111561297157600080fd5b61297d88838901612645565b9096509450602087013591508082111561299657600080fd5b506129a387828801612645565b95989497509550505050565b600061010082518185526129c58286018261284f565b91505060018060a01b036020840151166020850152604083015184820360408601526129f1828261284f565b91505063ffffffff60608401511660608501526080830151612a1b608086018263ffffffff169052565b5060a0830151612a3360a086018263ffffffff169052565b5060c0830151612a4760c086018215159052565b5060e083015160e08501528091505092915050565b6020815260006119e860208301846129af565b63ffffffff87811682528616602082015261ffff858116604083015284811660608301528316608082015260c060a08201819052600090612ab29083018461284f565b98975050505050505050565b60408152600063ffffffff80855116604084015280602086015116606084015250604084015161ffff80821660808501528060608701511660a08501528060808701511660c0850152505060a084015160c060e0840152612b2361010084018261284f565b91505082151560208301529392505050565b600080600060608486031215612b4a57600080fd5b83359250612b5a60208501612607565b9150604084013590509250925092565b600060208284031215612b7c57600080fd5b813580151581146119e857600080fd5b600060208083016020845280855180835260408601915060408160051b87010192506020870160005b82811015612be357603f19888603018452612bd18583516129af565b94509285019290850190600101612bb5565b5092979650505050505050565b600080600060608486031215612c0557600080fd5b83359250612b5a602085016125d0565b600080600060408486031215612c2a57600080fd5b83359250602084013567ffffffffffffffff811115612c4857600080fd5b612c5486828701612782565b9497909650939450505050565b634e487b7160e01b600052601160045260246000fd5b61ffff818116838216028082169190828114612c9557612c95612c61565b505092915050565b634e487b7160e01b600052601260045260246000fd5b600061ffff80841680612cc857612cc8612c9d565b92169190910492915050565b634e487b7160e01b600052604160045260246000fd5b600181811c90821680612cfe57607f821691505b602082108103612d1e57634e487b7160e01b600052602260045260246000fd5b50919050565b601f821115611dbb576000816000526020600020601f850160051c81016020861015612d4d5750805b601f850160051c820191505b818110156123e657828155600101612d59565b815167ffffffffffffffff811115612d8657612d86612cd4565b612d9a81612d948454612cea565b84612d24565b602080601f831160018114612dcf5760008415612db75750858301515b600019600386901b1c1916600185901b1785556123e6565b600085815260208120601f198616915b82811015612dfe57888601518255948401946001909101908401612ddf565b5085821015612e1c5787850151600019600388901b60f8161c191681555b5050505050600190811b01905550565b8183823760009101908152919050565b60808152846080820152848660a0830137600060a086830181019190915263ffffffff94909416602082015261ffff928316604082015291166060820152601f909201601f191690910101919050565b60208082526023908201527f50726f7669646572206e6f742072656769737465726564206f7220696e61637460408201526269766560e81b606082015260800190565b8181038181111561086b5761086b612c61565b634e487b7160e01b600052603260045260246000fd5b600061ffff80841680612f0d57612f0d612c9d565b92169190910692915050565b67ffffffffffffffff831115612f3157612f31612cd4565b612f4583612f3f8354612cea565b83612d24565b6000601f841160018114612f795760008515612f615750838201355b600019600387901b1c1916600186901b178355611450565b600083815260209020601f19861690835b82811015612faa5786850135825560209485019460019092019101612f8a565b5086821015612fc75760001960f88860031b161c19848701351681555b505060018560011b0183555050505050565b60208082526019908201527f436f6d6d69746d656e7420646f6573206e6f7420657869737400000000000000604082015260600190565b600063ffffffff80831681810361302957613029612c61565b6001019392505050565b8082018082111561086b5761086b612c61565b60006020828403121561305857600080fd5b6119e882612607565b600061ffff80831681810361302957613029612c61565b61ffff818116838216019080821115611f1e57611f1e612c61565b63ffffffff818116838216028082169190828114612c9557612c95612c61565b600063ffffffff80841680612cc857612cc8612c9d56fea2646970667358221220418636d87f6a14a3367e819136d4317017e33a0cc96f9c7ba52506aad80e627564736f6c63430008180033","linkReferences":{}},"methodIdentifiers":{"CHALLENGE_PENALTY()":"25585a4c","CHALLENGE_PERIOD()":"c3a079ed","MAX_CHUNKS()":"5ed25346","MIN_REDUNDANCY_RATIO()":"b7ecbeba","activeChunkChallenges(bytes32,uint16,address)":"3cfe0c22","addStake(uint256)":"eb4f16b5","availableChunkList(bytes32,uint256)":"ac16c985","chunkAvailability(bytes32,uint256)":"1fca4726","chunkOwners(bytes32,uint16)":"e946f22f","commitmentExists(bytes32)":"86307865","commitments(bytes32)":"839df945","getAvailableChunks(bytes32)":"3f521c88","getChunkOwner(bytes32,uint16)":"0fac8ac0","getCommitmentInfo(bytes32)":"a08bd437","getMultipleCommitmentStatus(bytes32[])":"2bd771a7","getNetworkStorageStats()":"0ab7a0e8","getProviderChunks(bytes32,address)":"540b8e2d","getProviderInfo(address)":"7583902f","getProviders(bool)":"e19bb965","getStorageEfficiency(bytes32)":"f3273859","isChunkAvailable(bytes32,uint16)":"4bde3c10","isCommitmentRecoverable(bytes32)":"a20bcb33","issueChunkChallenge(bytes32,uint16,address)":"c26e79de","minStake()":"375b3c0a","namespaceHashes(bytes32)":"ee70b357","owner()":"8da5cb5b","providerChunks(bytes32,address,uint256)":"f02b04b7","providerList(uint256)":"390bfd3c","providerNames(address)":"88f299dd","providerUrls(address)":"3443c4b8","providers(address)":"0787bc27","registerProvider(string,string)":"74ca8971","respondToChunkChallenge(bytes32,uint16,bytes32)":"ca4bca39","submitChunkAttestations(bytes32,uint16[])":"f260d1fc","submitCommitment(bytes32,string,uint32,uint16,uint16,bytes)":"1d68d3ef","withdrawStake(uint256)":"25d5971f"},"id":19}