{"abi":[{"type":"constructor","inputs":[{"name":"_owner","type":"address","internalType":"address"},{"name":"_minStake","type":"uint256","internalType":"uint256"}],"stateMutability":"nonpayable"},{"type":"function","name":"CHALLENGE_PENALTY","inputs":[],"outputs":[{"name":"","type":"uint256","internalType":"uint256"}],"stateMutability":"view"},{"type":"function","name":"CHALLENGE_PERIOD","inputs":[],"outputs":[{"name":"","type":"uint32","internalType":"uint32"}],"stateMutability":"view"},{"type":"function","name":"MAX_CHUNKS","inputs":[],"outputs":[{"name":"","type":"uint16","internalType":"uint16"}],"stateMutability":"view"},{"type":"function","name":"MIN_REDUNDANCY_RATIO","inputs":[],"outputs":[{"name":"","type":"uint16","internalType":"uint16"}],"stateMutability":"view"},{"type":"function","name":"activeChunkChallenges","inputs":[{"name":"","type":"bytes32","internalType":"bytes32"},{"name":"","type":"uint16","internalType":"uint16"},{"name":"","type":"address","internalType":"address"}],"outputs":[{"name":"","type":"bytes32","internalType":"bytes32"}],"stateMutability":"view"},{"type":"function","name":"addStake","inputs":[{"name":"amount","type":"uint256","internalType":"uint256"}],"outputs":[],"stateMutability":"nonpayable"},{"type":"function","name":"availableChunkList","inputs":[{"name":"","type":"bytes32","internalType":"bytes32"},{"name":"","type":"uint256","internalType":"uint256"}],"outputs":[{"name":"","type":"uint16","internalType":"uint16"}],"stateMutability":"view"},{"type":"function","name":"chunkAvailability","inputs":[{"name":"","type":"bytes32","internalType":"bytes32"},{"name":"","type":"uint256","internalType":"uint256"}],"outputs":[{"name":"","type":"uint256","internalType":"uint256"}],"stateMutability":"view"},{"type":"function","name":"chunkOwners","inputs":[{"name":"","type":"bytes32","internalType":"bytes32"},{"name":"","type":"uint16","internalType":"uint16"}],"outputs":[{"name":"","type":"address","internalType":"address"}],"stateMutability":"view"},{"type":"function","name":"commitmentExists","inputs":[{"name":"commitment","type":"bytes32","internalType":"bytes32"}],"outputs":[{"name":"","type":"bool","internalType":"bool"}],"stateMutability":"view"},{"type":"function","name":"commitments","inputs":[{"name":"","type":"bytes32","internalType":"bytes32"}],"outputs":[{"name":"size","type":"uint32","internalType":"uint32"},{"name":"timestamp","type":"uint32","internalType":"uint32"},{"name":"totalChunks","type":"uint16","internalType":"uint16"},{"name":"requiredChunks","type":"uint16","internalType":"uint16"},{"name":"availableChunks","type":"uint16","internalType":"uint16"},{"name":"kzgCommitment","type":"bytes","internalType":"bytes"}],"stateMutability":"view"},{"type":"function","name":"getAvailableChunks","inputs":[{"name":"commitment","type":"bytes32","internalType":"bytes32"}],"outputs":[{"name":"","type":"uint16[]","internalType":"uint16[]"}],"stateMutability":"view"},{"type":"function","name":"getChunkOwner","inputs":[{"name":"commitment","type":"bytes32","internalType":"bytes32"},{"name":"chunkId","type":"uint16","internalType":"uint16"}],"outputs":[{"name":"","type":"address","internalType":"address"}],"stateMutability":"view"},{"type":"function","name":"getCommitmentInfo","inputs":[{"name":"commitment","type":"bytes32","internalType":"bytes32"}],"outputs":[{"name":"","type":"tuple","internalType":"struct Poda.Commitment","components":[{"name":"size","type":"uint32","internalType":"uint32"},{"name":"timestamp","type":"uint32","internalType":"uint32"},{"name":"totalChunks","type":"uint16","internalType":"uint16"},{"name":"requiredChunks","type":"uint16","internalType":"uint16"},{"name":"availableChunks","type":"uint16","internalType":"uint16"},{"name":"kzgCommitment","type":"bytes","internalType":"bytes"}]},{"name":"isRecoverable","type":"bool","internalType":"bool"}],"stateMutability":"view"},{"type":"function","name":"getMultipleCommitmentStatus","inputs":[{"name":"commitmentList","type":"bytes32[]","internalType":"bytes32[]"}],"outputs":[{"name":"","type":"bool[]","internalType":"bool[]"}],"stateMutability":"view"},{"type":"function","name":"getNetworkStorageStats","inputs":[],"outputs":[{"name":"totalCommitments","type":"uint256","internalType":"uint256"},{"name":"totalOriginalData","type":"uint256","internalType":"uint256"},{"name":"totalStoredData","type":"uint256","internalType":"uint256"},{"name":"averageEfficiency","type":"uint256","internalType":"uint256"}],"stateMutability":"pure"},{"type":"function","name":"getProviderChunks","inputs":[{"name":"commitment","type":"bytes32","internalType":"bytes32"},{"name":"provider","type":"address","internalType":"address"}],"outputs":[{"name":"","type":"uint16[]","internalType":"uint16[]"}],"stateMutability":"view"},{"type":"function","name":"getProviderInfo","inputs":[{"name":"provider","type":"address","internalType":"address"}],"outputs":[{"name":"","type":"tuple","internalType":"struct Poda.ProviderInfo","components":[{"name":"name","type":"string","internalType":"string"},{"name":"addr","type":"address","internalType":"address"},{"name":"url","type":"string","internalType":"string"},{"name":"registeredAt","type":"uint32","internalType":"uint32"},{"name":"challengeCount","type":"uint32","internalType":"uint32"},{"name":"challengeSuccessCount","type":"uint32","internalType":"uint32"},{"name":"active","type":"bool","internalType":"bool"},{"name":"stakedAmount","type":"uint256","internalType":"uint256"}]}],"stateMutability":"view"},{"type":"function","name":"getProviders","inputs":[{"name":"eligible","type":"bool","internalType":"bool"}],"outputs":[{"name":"","type":"tuple[]","internalType":"struct Poda.ProviderInfo[]","components":[{"name":"name","type":"string","internalType":"string"},{"name":"addr","type":"address","internalType":"address"},{"name":"url","type":"string","internalType":"string"},{"name":"registeredAt","type":"uint32","internalType":"uint32"},{"name":"challengeCount","type":"uint32","internalType":"uint32"},{"name":"challengeSuccessCount","type":"uint32","internalType":"uint32"},{"name":"active","type":"bool","internalType":"bool"},{"name":"stakedAmount","type":"uint256","internalType":"uint256"}]}],"stateMutability":"view"},{"type":"function","name":"getStorageEfficiency","inputs":[{"name":"commitment","type":"bytes32","internalType":"bytes32"}],"outputs":[{"name":"originalSize","type":"uint256","internalType":"uint256"},{"name":"totalStoredSize","type":"uint256","internalType":"uint256"},{"name":"redundancyRatio","type":"uint256","internalType":"uint256"}],"stateMutability":"view"},{"type":"function","name":"isChunkAvailable","inputs":[{"name":"commitment","type":"bytes32","internalType":"bytes32"},{"name":"chunkId","type":"uint16","internalType":"uint16"}],"outputs":[{"name":"","type":"bool","internalType":"bool"}],"stateMutability":"view"},{"type":"function","name":"isCommitmentRecoverable","inputs":[{"name":"commitment","type":"bytes32","internalType":"bytes32"}],"outputs":[{"name":"","type":"bool","internalType":"bool"}],"stateMutability":"view"},{"type":"function","name":"issueChunkChallenge","inputs":[{"name":"commitment","type":"bytes32","internalType":"bytes32"},{"name":"chunkId","type":"uint16","internalType":"uint16"},{"name":"provider","type":"address","internalType":"address"}],"outputs":[{"name":"challengeId","type":"bytes32","internalType":"bytes32"}],"stateMutability":"nonpayable"},{"type":"function","name":"minStake","inputs":[],"outputs":[{"name":"","type":"uint256","internalType":"uint256"}],"stateMutability":"view"},{"type":"function","name":"namespaceHashes","inputs":[{"name":"","type":"bytes32","internalType":"bytes32"}],"outputs":[{"name":"","type":"bytes32","internalType":"bytes32"}],"stateMutability":"view"},{"type":"function","name":"owner","inputs":[],"outputs":[{"name":"","type":"address","internalType":"address"}],"stateMutability":"view"},{"type":"function","name":"providerChunks","inputs":[{"name":"","type":"bytes32","internalType":"bytes32"},{"name":"","type":"address","internalType":"address"},{"name":"","type":"uint256","internalType":"uint256"}],"outputs":[{"name":"","type":"uint16","internalType":"uint16"}],"stateMutability":"view"},{"type":"function","name":"providerList","inputs":[{"name":"","type":"uint256","internalType":"uint256"}],"outputs":[{"name":"","type":"address","internalType":"address"}],"stateMutability":"view"},{"type":"function","name":"providerNames","inputs":[{"name":"","type":"address","internalType":"address"}],"outputs":[{"name":"","type":"string","internalType":"string"}],"stateMutability":"view"},{"type":"function","name":"providerUrls","inputs":[{"name":"","type":"address","internalType":"address"}],"outputs":[{"name":"","type":"string","internalType":"string"}],"stateMutability":"view"},{"type":"function","name":"providers","inputs":[{"name":"","type":"address","internalType":"address"}],"outputs":[{"name":"registeredAt","type":"uint32","internalType":"uint32"},{"name":"challengeCount","type":"uint32","internalType":"uint32"},{"name":"challengeSuccessCount","type":"uint32","internalType":"uint32"},{"name":"active","type":"bool","internalType":"bool"},{"name":"stakedAmount","type":"uint256","internalType":"uint256"}],"stateMutability":"view"},{"type":"function","name":"registerProvider","inputs":[{"name":"name","type":"string","internalType":"string"},{"name":"url","type":"string","internalType":"string"}],"outputs":[],"stateMutability":"payable"},{"type":"function","name":"respondToChunkChallenge","inputs":[{"name":"commitment","type":"bytes32","internalType":"bytes32"},{"name":"chunkId","type":"uint16","internalType":"uint16"},{"name":"proof","type":"bytes32","internalType":"bytes32"}],"outputs":[],"stateMutability":"nonpayable"},{"type":"function","name":"submitChunkAttestations","inputs":[{"name":"commitment","type":"bytes32","internalType":"bytes32"},{"name":"chunkIds","type":"uint16[]","internalType":"uint16[]"}],"outputs":[],"stateMutability":"nonpayable"},{"type":"function","name":"submitCommitment","inputs":[{"name":"commitment","type":"bytes32","internalType":"bytes32"},{"name":"namespace","type":"string","internalType":"string"},{"name":"size","type":"uint32","internalType":"uint32"},{"name":"totalChunks","type":"uint16","internalType":"uint16"},{"name":"requiredChunks","type":"uint16","internalType":"uint16"},{"name":"kzgCommitment","type":"bytes","internalType":"bytes"}],"outputs":[],"stateMutability":"nonpayable"},{"type":"function","name":"verifyChunkProof","inputs":[{"name":"proof","type":"bytes32[]","internalType":"bytes32[]"},{"name":"root","type":"bytes32","internalType":"bytes32"},{"name":"chunkIndex","type":"uint16","internalType":"uint16"},{"name":"chunkData","type":"bytes","internalType":"bytes"}],"outputs":[{"name":"","type":"bool","internalType":"bool"}],"stateMutability":"pure"},{"type":"function","name":"withdrawStake","inputs":[{"name":"amount","type":"uint256","internalType":"uint256"}],"outputs":[],"stateMutability":"nonpayable"},{"type":"event","name":"ChunkAttestation","inputs":[{"name":"commitment","type":"bytes32","indexed":true,"internalType":"bytes32"},{"name":"provider","type":"address","indexed":true,"internalType":"address"},{"name":"chunkId","type":"uint16","indexed":false,"internalType":"uint16"}],"anonymous":false},{"type":"event","name":"ChunkChallengeIssued","inputs":[{"name":"challengeId","type":"bytes32","indexed":true,"internalType":"bytes32"},{"name":"commitment","type":"bytes32","indexed":true,"internalType":"bytes32"},{"name":"chunkId","type":"uint16","indexed":false,"internalType":"uint16"},{"name":"provider","type":"address","indexed":true,"internalType":"address"}],"anonymous":false},{"type":"event","name":"CommitmentCreated","inputs":[{"name":"commitment","type":"bytes32","indexed":true,"internalType":"bytes32"},{"name":"namespace","type":"string","indexed":false,"internalType":"string"},{"name":"size","type":"uint32","indexed":false,"internalType":"uint32"},{"name":"totalChunks","type":"uint16","indexed":false,"internalType":"uint16"},{"name":"requiredChunks","type":"uint16","indexed":false,"internalType":"uint16"}],"anonymous":false},{"type":"event","name":"CommitmentReady","inputs":[{"name":"commitment","type":"bytes32","indexed":true,"internalType":"bytes32"},{"name":"availableChunks","type":"uint16","indexed":false,"internalType":"uint16"}],"anonymous":false}],"bytecode":{"object":"0x60806040523480156200001157600080fd5b50604051620035273803806200352783398101604081905262000034916200005e565b600080546001600160a01b0319166001600160a01b039390931692909217909155600c556200009a565b600080604083850312156200007257600080fd5b82516001600160a01b03811681146200008a57600080fd5b6020939093015192949293505050565b61347d80620000aa6000396000f3fe60806040526004361061021a5760003560e01c8063839df94511610123578063c3a079ed116100ab578063eb4f16b51161006f578063eb4f16b5146107a6578063ee70b357146107c6578063f02b04b7146107f3578063f260d1fc14610813578063f32738591461083357600080fd5b8063c3a079ed146106cd578063ca4bca39146106f8578063d284164114610718578063e19bb96514610738578063e946f22f1461076557600080fd5b8063a08bd437116100f2578063a08bd4371461062a578063a20bcb3314610658578063ac16c98514610678578063b7ecbeba14610698578063c26e79de146106ad57600080fd5b8063839df9451461057c57806386307865146105ae57806388f299dd146105ea5780638da5cb5b1461060a57600080fd5b8063375b3c0a116101a65780634bde3c10116101755780634bde3c10146104c3578063540b8e2d146104f35780635ed253461461051357806374ca89711461053c5780637583902f1461054f57600080fd5b8063375b3c0a14610422578063390bfd3c146104385780633cfe0c22146104585780633f521c881461049657600080fd5b80631fca4726116101ed5780631fca47261461034657806325585a4c1461038c57806325d5971f146103a85780632bd771a7146103c85780633443c4b8146103f557600080fd5b80630787bc271461021f5780630ab7a0e8146102ba5780630fac8ac0146102ec5780631d68d3ef14610324575b600080fd5b34801561022b57600080fd5b5061027d61023a3660046128b9565b6004602052600090815260409020805460019091015463ffffffff80831692600160201b8104821692600160401b820490921691600160601b90910460ff169085565b6040805163ffffffff96871681529486166020860152929094169183019190915215156060820152608081019190915260a0015b60405180910390f35b3480156102c657600080fd5b5060008080806040805194855260208501939093529183015260608201526080016102b1565b3480156102f857600080fd5b5061030c6103073660046128e6565b61086e565b6040516001600160a01b0390911681526020016102b1565b34801561033057600080fd5b5061034461033f36600461295b565b61089c565b005b34801561035257600080fd5b5061037e610361366004612a14565b600a60209081526000928352604080842090915290825290205481565b6040519081526020016102b1565b34801561039857600080fd5b5061037e670de0b6b3a764000081565b3480156103b457600080fd5b506103446103c3366004612a36565b610cd7565b3480156103d457600080fd5b506103e86103e3366004612a94565b610e0c565b6040516102b19190612ad6565b34801561040157600080fd5b506104156104103660046128b9565b610fe0565b6040516102b19190612b62565b34801561042e57600080fd5b5061037e600c5481565b34801561044457600080fd5b5061030c610453366004612a36565b61107a565b34801561046457600080fd5b5061037e610473366004612b75565b600b60209081526000938452604080852082529284528284209052825290205481565b3480156104a257600080fd5b506104b66104b1366004612a36565b6110a4565b6040516102b19190612bb1565b3480156104cf57600080fd5b506104e36104de3660046128e6565b61112e565b60405190151581526020016102b1565b3480156104ff57600080fd5b506104b661050e366004612bed565b611183565b34801561051f57600080fd5b5061052961040081565b60405161ffff90911681526020016102b1565b61034461054a366004612c10565b61121f565b34801561055b57600080fd5b5061056f61056a3660046128b9565b611482565b6040516102b19190612d29565b34801561058857600080fd5b5061059c610597366004612a36565b6116a4565b6040516102b196959493929190612d3c565b3480156105ba57600080fd5b506104e36105c9366004612a36565b600090815260016020526040902054600160201b900463ffffffff16151590565b3480156105f657600080fd5b506104156106053660046128b9565b61177f565b34801561061657600080fd5b5060005461030c906001600160a01b031681565b34801561063657600080fd5b5061064a610645366004612a36565b611798565b6040516102b1929190612d8b565b34801561066457600080fd5b506104e3610673366004612a36565b6118ea565b34801561068457600080fd5b50610529610693366004612a14565b611a1a565b3480156106a457600080fd5b50610529609681565b3480156106b957600080fd5b5061037e6106c8366004612b75565b611a61565b3480156106d957600080fd5b506106e3610e1081565b60405163ffffffff90911681526020016102b1565b34801561070457600080fd5b50610344610713366004612e02565b611cbb565b34801561072457600080fd5b506104e3610733366004612e37565b611dcd565b34801561074457600080fd5b50610758610753366004612ec4565b611e67565b6040516102b19190612ee6565b34801561077157600080fd5b5061030c6107803660046128e6565b60076020908152600092835260408084209091529082529020546001600160a01b031681565b3480156107b257600080fd5b506103446107c1366004612a36565b611fcc565b3480156107d257600080fd5b5061037e6107e1366004612a36565b60026020526000908152604090205481565b3480156107ff57600080fd5b5061052961080e366004612f4a565b61207c565b34801561081f57600080fd5b5061034461082e366004612f6f565b6120d0565b34801561083f57600080fd5b5061085361084e366004612a36565b612495565b604080519384526020840192909252908201526060016102b1565b600082815260076020908152604080832061ffff851684529091529020546001600160a01b03165b92915050565b876108e35760405162461bcd60e51b8152602060048201526012602482015271125b9d985b1a590818dbdb5b5a5d1b595b9d60721b60448201526064015b60405180910390fd5b600088815260016020526040902054600160201b900463ffffffff161561094c5760405162461bcd60e51b815260206004820152601960248201527f436f6d6d69746d656e7420616c7265616479206578697374730000000000000060448201526064016108da565b60008563ffffffff16116109a25760405162461bcd60e51b815260206004820152601b60248201527f53697a65206d7573742062652067726561746572207468616e2030000000000060448201526064016108da565b8261ffff168461ffff16116109f95760405162461bcd60e51b815260206004820152601f60248201527f496e76616c696420526565642d536f6c6f6d6f6e20706172616d65746572730060448201526064016108da565b61040061ffff85161115610a415760405162461bcd60e51b815260206004820152600f60248201526e546f6f206d616e79206368756e6b7360881b60448201526064016108da565b85610a805760405162461bcd60e51b815260206004820152600f60248201526e456d707479206e616d65737061636560881b60448201526064016108da565b60308114610ad05760405162461bcd60e51b815260206004820152601d60248201527f496e76616c6964204b5a4720636f6d6d69746d656e74206c656e67746800000060448201526064016108da565b609683610ade866064612fd1565b610ae8919061300d565b61ffff161015610b3a5760405162461bcd60e51b815260206004820152601760248201527f496e73756666696369656e7420726564756e64616e637900000000000000000060448201526064016108da565b6040518060c001604052808663ffffffff1681526020014263ffffffff1681526020018561ffff1681526020018461ffff168152602001600061ffff16815260200183838080601f01602080910402602001604051908101604052809392919081815260200183838082843760009201829052509390945250508a8152600160208181526040928390208551815492870151948701516060880151608089015163ffffffff93841667ffffffffffffffff1990961695909517600160201b9390971692909202959095176bffffffff00000000000000001916600160401b61ffff9687160261ffff60501b191617600160501b918616919091021761ffff60601b1916600160601b949092169390930217825560a0840151919250820190610c6290826130cb565b5050604051610c7591508890889061318b565b6040805191829003822060008b81526002602052919091205588907f19b907386b39dbf5279c95617b3e1536cb7d153128dfd23bdc11af2996bebe8b90610cc5908a908a908a908a908a9061319b565b60405180910390a25050505050505050565b33600090815260046020526040902054600160601b900460ff16610d0d5760405162461bcd60e51b81526004016108da906131eb565b60008111610d5d5760405162461bcd60e51b815260206004820152601d60248201527f416d6f756e74206d7573742062652067726561746572207468616e203000000060448201526064016108da565b33600090815260046020526040902060010154811115610db45760405162461bcd60e51b8152602060048201526012602482015271496e73756666696369656e74207374616b6560701b60448201526064016108da565b3360009081526004602052604081206001018054839290610dd690849061322e565b9091555050604051339082156108fc029083906000818181858888f19350505050158015610e08573d6000803e3d6000fd5b5050565b60608160008167ffffffffffffffff811115610e2a57610e2a61302e565b604051908082528060200260200182016040528015610e53578160200160208202803683370190505b50905060005b82811015610fd757600060016000888885818110610e7957610e79613241565b60209081029290920135835250818101929092526040908101600020815160c081018352815463ffffffff8082168352600160201b8204169482019490945261ffff600160401b8504811693820193909352600160501b840483166060820152600160601b909304909116608083015260018101805460a084019190610efe90613044565b80601f0160208091040260200160405190810160405280929190818152602001828054610f2a90613044565b8015610f775780601f10610f4c57610100808354040283529160200191610f77565b820191906000526020600020905b815481529060010190602001808311610f5a57829003601f168201915b50505050508152505090506000816020015163ffffffff16118015610fac5750806060015161ffff16816080015161ffff1610155b838381518110610fbe57610fbe613241565b9115156020928302919091019091015250600101610e59565b50949350505050565b60066020526000908152604090208054610ff990613044565b80601f016020809104026020016040519081016040528092919081815260200182805461102590613044565b80156110725780601f1061104757610100808354040283529160200191611072565b820191906000526020600020905b81548152906001019060200180831161105557829003601f168201915b505050505081565b6003818154811061108a57600080fd5b6000918252602090912001546001600160a01b0316905081565b60008181526009602090815260409182902080548351818402810184019094528084526060939283018282801561112257602002820191906000526020600020906000905b82829054906101000a900461ffff1661ffff16815260200190600201906020826001010492830192600103820291508084116110e95790505b50505050509050919050565b60008061113d6101008461300d565b61ffff169050600061115161010085613257565b6000958652600a602090815260408088209488529390529190942054600161ffff9092169190911b1615159392505050565b60008281526008602090815260408083206001600160a01b038516845282529182902080548351818402810184019094528084526060939283018282801561121257602002820191906000526020600020906000905b82829054906101000a900461ffff1661ffff16815260200190600201906020826001010492830192600103820291508084116111d95790505b5050505050905092915050565b3360009081526004602052604090205463ffffffff16156112825760405162461bcd60e51b815260206004820152601b60248201527f50726f766964657220616c72656164792072656769737465726564000000000060448201526064016108da565b8215801590611292575060208311155b6112d45760405162461bcd60e51b8152602060048201526013602482015272092dcecc2d8d2c840dcc2daca40d8cadccee8d606b1b60448201526064016108da565b80158015906112e4575060808111155b6113255760405162461bcd60e51b8152602060048201526012602482015271092dcecc2d8d2c840aaa49840d8cadccee8d60731b60448201526064016108da565b600c5434101561136c5760405162461bcd60e51b8152602060048201526012602482015271496e73756666696369656e74207374616b6560701b60448201526064016108da565b6003805460018181019092557fc2575a0e9e593c00f959f8c92f12db2869c3395a3b0502d05e2516446f71f85b0180546001600160a01b031916339081179091556040805160a08101825263ffffffff42811682526000602083810182815284860183815260608601898152346080880190815298855260048452878520965187549351925191511515600160601b0260ff60601b19928816600160401b02929092166cffffffffff000000000000000019938816600160201b0267ffffffffffffffff19909516919097161792909217169390931792909217835593519190940155600590925220611460848683613278565b5033600090815260066020526040902061147b828483613278565b5050505050565b61148a612859565b6001600160a01b0382166000818152600460209081526040808320815160a081018352815463ffffffff8082168352600160201b8204811683870152600160401b82041682850152600160601b900460ff161515606082015260019091015460808201528151610100810183529484526005909252909120805491929182919061151390613044565b80601f016020809104026020016040519081016040528092919081815260200182805461153f90613044565b801561158c5780601f106115615761010080835404028352916020019161158c565b820191906000526020600020905b81548152906001019060200180831161156f57829003601f168201915b50505050508152602001846001600160a01b0316815260200160066000866001600160a01b03166001600160a01b0316815260200190815260200160002080546115d590613044565b80601f016020809104026020016040519081016040528092919081815260200182805461160190613044565b801561164e5780601f106116235761010080835404028352916020019161164e565b820191906000526020600020905b81548152906001019060200180831161163157829003601f168201915b50505050508152602001826000015163ffffffff168152602001826020015163ffffffff168152602001826040015163ffffffff1681526020018260600151151581526020018260800151815250915050919050565b60016020819052600091825260409091208054918101805463ffffffff80851694600160201b81049091169361ffff600160401b8304811694600160501b8404821694600160601b909404909116926116fc90613044565b80601f016020809104026020016040519081016040528092919081815260200182805461172890613044565b80156117755780601f1061174a57610100808354040283529160200191611775565b820191906000526020600020905b81548152906001019060200180831161175857829003601f168201915b5050505050905086565b60056020526000908152604090208054610ff990613044565b6040805160c0810182526000808252602082018190529181018290526060808201839052608082019290925260a08101919091526000828152600160208181526040808420815160c081018352815463ffffffff8082168352600160201b8204169482019490945261ffff600160401b8504811693820193909352600160501b840483166060820152600160601b9093049091166080830152918201805484939160a084019161184790613044565b80601f016020809104026020016040519081016040528092919081815260200182805461187390613044565b80156118c05780601f10611895576101008083540402835291602001916118c0565b820191906000526020600020905b8154815290600101906020018083116118a357829003601f168201915b505050505081525050905080816060015161ffff16826080015161ffff1610159250925050915091565b6000818152600160208181526040808420815160c081018352815463ffffffff8082168352600160201b8204169482019490945261ffff600160401b8504811693820193909352600160501b840483166060820152600160601b9093049091166080830152918201805484939160a084019161196590613044565b80601f016020809104026020016040519081016040528092919081815260200182805461199190613044565b80156119de5780601f106119b3576101008083540402835291602001916119de565b820191906000526020600020905b8154815290600101906020018083116119c157829003601f168201915b50505050508152505090506000816020015163ffffffff16118015611a135750806060015161ffff16816080015161ffff1610155b9392505050565b60096020528160005260406000208181548110611a3657600080fd5b9060005260206000209060109182820401919006600202915091509054906101000a900461ffff1681565b6000838152600160205260408120548490600160201b900463ffffffff16611a9b5760405162461bcd60e51b81526004016108da90613338565b600085815260076020908152604080832061ffff881684529091529020546001600160a01b03848116911614611b135760405162461bcd60e51b815260206004820152601f60248201527f50726f766964657220646f65736e2774206f776e2074686973206368756e6b0060448201526064016108da565b6000858152600b6020908152604080832061ffff8816845282528083206001600160a01b038716845290915290205415611b8f5760405162461bcd60e51b815260206004820152601860248201527f4368616c6c656e676520616c726561647920616374697665000000000000000060448201526064016108da565b60408051602081018790526001600160f01b031960f087901b16918101919091526bffffffffffffffffffffffff19606085811b8216604284015242605684015233901b166076820152608a0160408051808303601f1901815291815281516020928301206000888152600b845282812061ffff8916825284528281206001600160a01b03881682528452828120829055600493849052919091208054919450600160201b90910463ffffffff1691611c478361336f565b91906101000a81548163ffffffff021916908363ffffffff16021790555050826001600160a01b031685837f9a2190490de3b1f1bf69f982407eaa08bbe2adc554aa80a4ae96f25f74b7e20387604051611cab919061ffff91909116815260200190565b60405180910390a4509392505050565b33600090815260046020526040902054600160601b900460ff16611cf15760405162461bcd60e51b81526004016108da906131eb565b6000838152600b6020908152604080832061ffff86168452825280832033845290915290205480611d5a5760405162461bcd60e51b81526020600482015260136024820152724e6f20616374697665206368616c6c656e676560681b60448201526064016108da565b81611d975760405162461bcd60e51b815260206004820152600d60248201526c24b73b30b634b210383937b7b360991b60448201526064016108da565b611da2848433612633565b50506000918252600b6020908152604080842061ffff90931684529181528183203384529052812055565b6000808383604051611de092919061318b565b6040805191829003822061ffff881660208401529082018190529150600090606001604051602081830303815290604052805190602001209050611e5a8989808060200260200160405190810160405280939291908181526020018383602002808284376000920191909152508b92508591506127d49050565b9998505050505050505050565b60035460609060009067ffffffffffffffff811115611e8857611e8861302e565b604051908082528060200260200182016040528015611ec157816020015b611eae612859565b815260200190600190039081611ea65790505b50905060005b600354811015611fc557838015611f6b57506004600060038381548110611ef057611ef0613241565b60009182526020808320909101546001600160a01b0316835282019290925260400190205460ff600160601b909104161580611f6b5750600c546004600060038481548110611f4157611f41613241565b60009182526020808320909101546001600160a01b03168352820192909252604001902060010154105b611fbd57611f9f60038281548110611f8557611f85613241565b6000918252602090912001546001600160a01b0316611482565b828281518110611fb157611fb1613241565b60200260200101819052505b600101611ec7565b5092915050565b33600090815260046020526040902054600160601b900460ff166120025760405162461bcd60e51b81526004016108da906131eb565b600081116120525760405162461bcd60e51b815260206004820152601d60248201527f416d6f756e74206d7573742062652067726561746572207468616e203000000060448201526064016108da565b3360009081526004602052604081206001018054839290612074908490613392565b909155505050565b600860205282600052604060002060205281600052604060002081815481106120a457600080fd5b906000526020600020906010918282040191900660020292509250509054906101000a900461ffff1681565b33600090815260046020526040902054600160601b900460ff166121065760405162461bcd60e51b81526004016108da906131eb565b6000838152600160205260409020548390600160201b900463ffffffff166121405760405162461bcd60e51b81526004016108da90613338565b8115801590612150575060328211155b6121925760405162461bcd60e51b8152602060048201526013602482015272125b9d985b1a590818da1d5b9ac818dbdd5b9d606a1b60448201526064016108da565b600084815260016020526040812090805b848110156123f25760008686838181106121bf576121bf613241565b90506020020160208101906121d491906133a5565b845490915061ffff600160401b9091048116908216106122295760405162461bcd60e51b815260206004820152601060248201526f125b9d985b1a590818da1d5b9ac8125160821b60448201526064016108da565b600088815260076020908152604080832061ffff851684529091529020546001600160a01b0316156122965760405162461bcd60e51b815260206004820152601660248201527510da1d5b9ac8185b1c9958591e48185d1d195cdd195960521b60448201526064016108da565b600088815260076020908152604080832061ffff80861680865291845282852080546001600160a01b031916339081179091558d86526008855283862090865284529184208054600181018255908552928420601084040180546002600f9095169490940261010090810a92830292909302199093161790915561231a908361300d565b61ffff169050600061232e61010084613257565b60008b8152600a6020908152604080832086845282528083208054600161ffff96871681811b9092179092558f8552600984529184208054918201815584529190922060108204018054600f9092166002026101000a8085021990921693871691909102929092179091559050846123a5816133c0565b60405161ffff861681529096503391508b907f0d3612a65375aaed616b21fb3d1bfc5fcb7db37205b651f492456bab363a3d199060200160405180910390a38360010193505050506121a3565b50815481908390600c90612412908490600160601b900461ffff166133d7565b82546101009290920a61ffff8181021990931691831602179091558354600160501b81048216600160601b90910490911610905061248d578154604051600160601b90910461ffff16815286907fec945f40a39d91f4317f852f732ad018288e363b2edfdf832749208505fcf46a9060200160405180910390a25b505050505050565b6000818152600160208181526040808420815160c081018352815463ffffffff8082168352600160201b8204169482019490945261ffff600160401b8504811693820193909352600160501b840483166060820152600160601b90930490911660808301529182018054849384938493909260a08401919061251690613044565b80601f016020809104026020016040519081016040528092919081815260200182805461254290613044565b801561258f5780601f106125645761010080835404028352916020019161258f565b820191906000526020600020905b81548152906001019060200180831161257257829003601f168201915b50505050508152505090506000816020015163ffffffff16116125c45760405162461bcd60e51b81526004016108da90613338565b806000015163ffffffff169350806060015161ffff16816040015161ffff1682600001516125f291906133f2565b6125fc9190613412565b63ffffffff1692508060600151816040015161271061261b9190612fd1565b612625919061300d565b61ffff169150509193909250565b6000838152600b6020908152604080832061ffff8616845282528083206001600160a01b0385168452909152902054806126a55760405162461bcd60e51b81526020600482015260136024820152724e6f20616374697665206368616c6c656e676560681b60448201526064016108da565b600084815260076020908152604080832061ffff808816855290835281842080546001600160a01b0319169055878452600190925290912080549091600160601b9091041681600c6126f683613429565b91906101000a81548161ffff021916908361ffff16021790555050600061010085612721919061300d565b61ffff169050600061273561010087613257565b6000888152600a6020908152604080832086845282528083208054600161ffff9690961686811b199091169091556001600160a01b038a168452600490925282209092018054929350670de0b6b3a76400009290919061279690849061322e565b90915550505060009586525050600b6020908152604080862061ffff90951686529381528385206001600160a01b0390931685529190915250812055565b6000826127e185846127ea565b14949350505050565b600081815b84518110156128255761281b8286838151811061280e5761280e613241565b602002602001015161282d565b91506001016127ef565b509392505050565b6000818310612849576000828152602084905260409020611a13565b5060009182526020526040902090565b6040805161010081018252606080825260006020830181905292820181905281018290526080810182905260a0810182905260c0810182905260e081019190915290565b80356001600160a01b03811681146128b457600080fd5b919050565b6000602082840312156128cb57600080fd5b611a138261289d565b803561ffff811681146128b457600080fd5b600080604083850312156128f957600080fd5b82359150612909602084016128d4565b90509250929050565b60008083601f84011261292457600080fd5b50813567ffffffffffffffff81111561293c57600080fd5b60208301915083602082850101111561295457600080fd5b9250929050565b60008060008060008060008060c0898b03121561297757600080fd5b88359750602089013567ffffffffffffffff8082111561299657600080fd5b6129a28c838d01612912565b909950975060408b0135915063ffffffff821682146129c057600080fd5b8196506129cf60608c016128d4565b95506129dd60808c016128d4565b945060a08b01359150808211156129f357600080fd5b50612a008b828c01612912565b999c989b5096995094979396929594505050565b60008060408385031215612a2757600080fd5b50508035926020909101359150565b600060208284031215612a4857600080fd5b5035919050565b60008083601f840112612a6157600080fd5b50813567ffffffffffffffff811115612a7957600080fd5b6020830191508360208260051b850101111561295457600080fd5b60008060208385031215612aa757600080fd5b823567ffffffffffffffff811115612abe57600080fd5b612aca85828601612a4f565b90969095509350505050565b6020808252825182820181905260009190848201906040850190845b81811015612b10578351151583529284019291840191600101612af2565b50909695505050505050565b6000815180845260005b81811015612b4257602081850181015186830182015201612b26565b506000602082860101526020601f19601f83011685010191505092915050565b602081526000611a136020830184612b1c565b600080600060608486031215612b8a57600080fd5b83359250612b9a602085016128d4565b9150612ba86040850161289d565b90509250925092565b6020808252825182820181905260009190848201906040850190845b81811015612b1057835161ffff1683529284019291840191600101612bcd565b60008060408385031215612c0057600080fd5b823591506129096020840161289d565b60008060008060408587031215612c2657600080fd5b843567ffffffffffffffff80821115612c3e57600080fd5b612c4a88838901612912565b90965094506020870135915080821115612c6357600080fd5b50612c7087828801612912565b95989497509550505050565b60006101008251818552612c9282860182612b1c565b91505060018060a01b03602084015116602085015260408301518482036040860152612cbe8282612b1c565b91505063ffffffff60608401511660608501526080830151612ce8608086018263ffffffff169052565b5060a0830151612d0060a086018263ffffffff169052565b5060c0830151612d1460c086018215159052565b5060e083015160e08501528091505092915050565b602081526000611a136020830184612c7c565b63ffffffff87811682528616602082015261ffff858116604083015284811660608301528316608082015260c060a08201819052600090612d7f90830184612b1c565b98975050505050505050565b60408152600063ffffffff80855116604084015280602086015116606084015250604084015161ffff80821660808501528060608701511660a08501528060808701511660c0850152505060a084015160c060e0840152612df0610100840182612b1c565b91505082151560208301529392505050565b600080600060608486031215612e1757600080fd5b83359250612e27602085016128d4565b9150604084013590509250925092565b60008060008060008060808789031215612e5057600080fd5b863567ffffffffffffffff80821115612e6857600080fd5b612e748a838b01612a4f565b909850965060208901359550869150612e8f60408a016128d4565b94506060890135915080821115612ea557600080fd5b50612eb289828a01612912565b979a9699509497509295939492505050565b600060208284031215612ed657600080fd5b81358015158114611a1357600080fd5b600060208083016020845280855180835260408601915060408160051b87010192506020870160005b82811015612f3d57603f19888603018452612f2b858351612c7c565b94509285019290850190600101612f0f565b5092979650505050505050565b600080600060608486031215612f5f57600080fd5b83359250612e276020850161289d565b600080600060408486031215612f8457600080fd5b83359250602084013567ffffffffffffffff811115612fa257600080fd5b612fae86828701612a4f565b9497909650939450505050565b634e487b7160e01b600052601160045260246000fd5b61ffff818116838216028082169190828114612fef57612fef612fbb565b505092915050565b634e487b7160e01b600052601260045260246000fd5b600061ffff8084168061302257613022612ff7565b92169190910492915050565b634e487b7160e01b600052604160045260246000fd5b600181811c9082168061305857607f821691505b60208210810361307857634e487b7160e01b600052602260045260246000fd5b50919050565b601f8211156130c6576000816000526020600020601f850160051c810160208610156130a75750805b601f850160051c820191505b8181101561248d578281556001016130b3565b505050565b815167ffffffffffffffff8111156130e5576130e561302e565b6130f9816130f38454613044565b8461307e565b602080601f83116001811461312e57600084156131165750858301515b600019600386901b1c1916600185901b17855561248d565b600085815260208120601f198616915b8281101561315d5788860151825594840194600190910190840161313e565b508582101561317b5787850151600019600388901b60f8161c191681555b5050505050600190811b01905550565b8183823760009101908152919050565b60808152846080820152848660a0830137600060a086830181019190915263ffffffff94909416602082015261ffff928316604082015291166060820152601f909201601f191690910101919050565b60208082526023908201527f50726f7669646572206e6f742072656769737465726564206f7220696e61637460408201526269766560e81b606082015260800190565b8181038181111561089657610896612fbb565b634e487b7160e01b600052603260045260246000fd5b600061ffff8084168061326c5761326c612ff7565b92169190910692915050565b67ffffffffffffffff8311156132905761329061302e565b6132a48361329e8354613044565b8361307e565b6000601f8411600181146132d857600085156132c05750838201355b600019600387901b1c1916600186901b17835561147b565b600083815260209020601f19861690835b8281101561330957868501358255602094850194600190920191016132e9565b50868210156133265760001960f88860031b161c19848701351681555b505060018560011b0183555050505050565b60208082526019908201527f436f6d6d69746d656e7420646f6573206e6f7420657869737400000000000000604082015260600190565b600063ffffffff80831681810361338857613388612fbb565b6001019392505050565b8082018082111561089657610896612fbb565b6000602082840312156133b757600080fd5b611a13826128d4565b600061ffff80831681810361338857613388612fbb565b61ffff818116838216019080821115611fc557611fc5612fbb565b63ffffffff818116838216028082169190828114612fef57612fef612fbb565b600063ffffffff8084168061302257613022612ff7565b600061ffff82168061343d5761343d612fbb565b600019019291505056fea2646970667358221220d27adc13935458cf4194898b484082de30d06ab3f247a469472ebd79ca1a5f1d64736f6c63430008180033","linkReferences":{}},"methodIdentifiers":{"CHALLENGE_PENALTY()":"25585a4c","CHALLENGE_PERIOD()":"c3a079ed","MAX_CHUNKS()":"5ed25346","MIN_REDUNDANCY_RATIO()":"b7ecbeba","activeChunkChallenges(bytes32,uint16,address)":"3cfe0c22","addStake(uint256)":"eb4f16b5","availableChunkList(bytes32,uint256)":"ac16c985","chunkAvailability(bytes32,uint256)":"1fca4726","chunkOwners(bytes32,uint16)":"e946f22f","commitmentExists(bytes32)":"86307865","commitments(bytes32)":"839df945","getAvailableChunks(bytes32)":"3f521c88","getChunkOwner(bytes32,uint16)":"0fac8ac0","getCommitmentInfo(bytes32)":"a08bd437","getMultipleCommitmentStatus(bytes32[])":"2bd771a7","getNetworkStorageStats()":"0ab7a0e8","getProviderChunks(bytes32,address)":"540b8e2d","getProviderInfo(address)":"7583902f","getProviders(bool)":"e19bb965","getStorageEfficiency(bytes32)":"f3273859","isChunkAvailable(bytes32,uint16)":"4bde3c10","isCommitmentRecoverable(bytes32)":"a20bcb33","issueChunkChallenge(bytes32,uint16,address)":"c26e79de","minStake()":"375b3c0a","namespaceHashes(bytes32)":"ee70b357","owner()":"8da5cb5b","providerChunks(bytes32,address,uint256)":"f02b04b7","providerList(uint256)":"390bfd3c","providerNames(address)":"88f299dd","providerUrls(address)":"3443c4b8","providers(address)":"0787bc27","registerProvider(string,string)":"74ca8971","respondToChunkChallenge(bytes32,uint16,bytes32)":"ca4bca39","submitChunkAttestations(bytes32,uint16[])":"f260d1fc","submitCommitment(bytes32,string,uint32,uint16,uint16,bytes)":"1d68d3ef","verifyChunkProof(bytes32[],bytes32,uint16,bytes)":"d2841641","withdrawStake(uint256)":"25d5971f"},"id":21}