{"abi":[{"type":"constructor","inputs":[{"name":"_owner","type":"address","internalType":"address"},{"name":"_minStake","type":"uint256","internalType":"uint256"}],"stateMutability":"nonpayable"},{"type":"function","name":"CHALLENGE_PENALTY","inputs":[],"outputs":[{"name":"","type":"uint256","internalType":"uint256"}],"stateMutability":"view"},{"type":"function","name":"CHALLENGE_PERIOD","inputs":[],"outputs":[{"name":"","type":"uint32","internalType":"uint32"}],"stateMutability":"view"},{"type":"function","name":"MAX_CHUNKS","inputs":[],"outputs":[{"name":"","type":"uint16","internalType":"uint16"}],"stateMutability":"view"},{"type":"function","name":"MIN_REDUNDANCY_RATIO","inputs":[],"outputs":[{"name":"","type":"uint16","internalType":"uint16"}],"stateMutability":"view"},{"type":"function","name":"SLASH_PENALTY_PERCENTAGE","inputs":[],"outputs":[{"name":"","type":"uint32","internalType":"uint32"}],"stateMutability":"view"},{"type":"function","name":"activeChunkChallenges","inputs":[{"name":"","type":"bytes32","internalType":"bytes32"},{"name":"","type":"uint16","internalType":"uint16"},{"name":"","type":"address","internalType":"address"}],"outputs":[{"name":"challengeId","type":"bytes32","internalType":"bytes32"},{"name":"challenger","type":"address","internalType":"address"},{"name":"issuedAt","type":"uint32","internalType":"uint32"},{"name":"resolved","type":"bool","internalType":"bool"}],"stateMutability":"view"},{"type":"function","name":"addStake","inputs":[{"name":"amount","type":"uint256","internalType":"uint256"}],"outputs":[],"stateMutability":"nonpayable"},{"type":"function","name":"availableChunkList","inputs":[{"name":"","type":"bytes32","internalType":"bytes32"},{"name":"","type":"uint256","internalType":"uint256"}],"outputs":[{"name":"","type":"uint16","internalType":"uint16"}],"stateMutability":"view"},{"type":"function","name":"chunkAvailability","inputs":[{"name":"","type":"bytes32","internalType":"bytes32"},{"name":"","type":"uint256","internalType":"uint256"}],"outputs":[{"name":"","type":"uint256","internalType":"uint256"}],"stateMutability":"view"},{"type":"function","name":"chunkOwners","inputs":[{"name":"","type":"bytes32","internalType":"bytes32"},{"name":"","type":"uint16","internalType":"uint16"}],"outputs":[{"name":"","type":"address","internalType":"address"}],"stateMutability":"view"},{"type":"function","name":"commitmentExists","inputs":[{"name":"commitment","type":"bytes32","internalType":"bytes32"}],"outputs":[{"name":"","type":"bool","internalType":"bool"}],"stateMutability":"view"},{"type":"function","name":"commitmentList","inputs":[{"name":"","type":"uint256","internalType":"uint256"}],"outputs":[{"name":"","type":"bytes32","internalType":"bytes32"}],"stateMutability":"view"},{"type":"function","name":"commitments","inputs":[{"name":"","type":"bytes32","internalType":"bytes32"}],"outputs":[{"name":"size","type":"uint32","internalType":"uint32"},{"name":"timestamp","type":"uint32","internalType":"uint32"},{"name":"totalChunks","type":"uint16","internalType":"uint16"},{"name":"requiredChunks","type":"uint16","internalType":"uint16"},{"name":"availableChunks","type":"uint16","internalType":"uint16"},{"name":"kzgCommitment","type":"bytes","internalType":"bytes"}],"stateMutability":"view"},{"type":"function","name":"getAvailableChunks","inputs":[{"name":"commitment","type":"bytes32","internalType":"bytes32"}],"outputs":[{"name":"","type":"uint16[]","internalType":"uint16[]"}],"stateMutability":"view"},{"type":"function","name":"getChunkChallenge","inputs":[{"name":"commitment","type":"bytes32","internalType":"bytes32"},{"name":"chunkId","type":"uint16","internalType":"uint16"},{"name":"provider","type":"address","internalType":"address"}],"outputs":[{"name":"","type":"tuple","internalType":"struct Poda.ChallengeInfo","components":[{"name":"challenge","type":"tuple","internalType":"struct Poda.ChunkChallenge","components":[{"name":"challengeId","type":"bytes32","internalType":"bytes32"},{"name":"challenger","type":"address","internalType":"address"},{"name":"issuedAt","type":"uint32","internalType":"uint32"},{"name":"resolved","type":"bool","internalType":"bool"}]},{"name":"commitment","type":"bytes32","internalType":"bytes32"},{"name":"chunkId","type":"uint16","internalType":"uint16"}]}],"stateMutability":"view"},{"type":"function","name":"getChunkOwner","inputs":[{"name":"commitment","type":"bytes32","internalType":"bytes32"},{"name":"chunkId","type":"uint16","internalType":"uint16"}],"outputs":[{"name":"","type":"address","internalType":"address"}],"stateMutability":"view"},{"type":"function","name":"getCommitmentChunkMap","inputs":[{"name":"commitment","type":"bytes32","internalType":"bytes32"}],"outputs":[{"name":"_providers","type":"address[]","internalType":"address[]"},{"name":"_chunks","type":"uint16[][]","internalType":"uint16[][]"}],"stateMutability":"view"},{"type":"function","name":"getCommitmentInfo","inputs":[{"name":"commitment","type":"bytes32","internalType":"bytes32"}],"outputs":[{"name":"","type":"tuple","internalType":"struct Poda.Commitment","components":[{"name":"size","type":"uint32","internalType":"uint32"},{"name":"timestamp","type":"uint32","internalType":"uint32"},{"name":"totalChunks","type":"uint16","internalType":"uint16"},{"name":"requiredChunks","type":"uint16","internalType":"uint16"},{"name":"availableChunks","type":"uint16","internalType":"uint16"},{"name":"kzgCommitment","type":"bytes","internalType":"bytes"}]},{"name":"isRecoverable","type":"bool","internalType":"bool"}],"stateMutability":"view"},{"type":"function","name":"getCommitmentList","inputs":[],"outputs":[{"name":"","type":"bytes32[]","internalType":"bytes32[]"}],"stateMutability":"view"},{"type":"function","name":"getMultipleCommitmentStatus","inputs":[{"name":"cmList","type":"bytes32[]","internalType":"bytes32[]"}],"outputs":[{"name":"","type":"bool[]","internalType":"bool[]"}],"stateMutability":"view"},{"type":"function","name":"getProviderActiveChallenges","inputs":[{"name":"provider","type":"address","internalType":"address"}],"outputs":[{"name":"","type":"tuple[]","internalType":"struct Poda.ChallengeInfo[]","components":[{"name":"challenge","type":"tuple","internalType":"struct Poda.ChunkChallenge","components":[{"name":"challengeId","type":"bytes32","internalType":"bytes32"},{"name":"challenger","type":"address","internalType":"address"},{"name":"issuedAt","type":"uint32","internalType":"uint32"},{"name":"resolved","type":"bool","internalType":"bool"}]},{"name":"commitment","type":"bytes32","internalType":"bytes32"},{"name":"chunkId","type":"uint16","internalType":"uint16"}]}],"stateMutability":"view"},{"type":"function","name":"getProviderChunks","inputs":[{"name":"commitment","type":"bytes32","internalType":"bytes32"},{"name":"provider","type":"address","internalType":"address"}],"outputs":[{"name":"","type":"uint16[]","internalType":"uint16[]"}],"stateMutability":"view"},{"type":"function","name":"getProviderExpiredChallenges","inputs":[{"name":"provider","type":"address","internalType":"address"}],"outputs":[{"name":"","type":"tuple[]","internalType":"struct Poda.ChallengeInfo[]","components":[{"name":"challenge","type":"tuple","internalType":"struct Poda.ChunkChallenge","components":[{"name":"challengeId","type":"bytes32","internalType":"bytes32"},{"name":"challenger","type":"address","internalType":"address"},{"name":"issuedAt","type":"uint32","internalType":"uint32"},{"name":"resolved","type":"bool","internalType":"bool"}]},{"name":"commitment","type":"bytes32","internalType":"bytes32"},{"name":"chunkId","type":"uint16","internalType":"uint16"}]}],"stateMutability":"view"},{"type":"function","name":"getProviderInfo","inputs":[{"name":"provider","type":"address","internalType":"address"}],"outputs":[{"name":"","type":"tuple","internalType":"struct Poda.ProviderInfo","components":[{"name":"name","type":"string","internalType":"string"},{"name":"addr","type":"address","internalType":"address"},{"name":"url","type":"string","internalType":"string"},{"name":"registeredAt","type":"uint32","internalType":"uint32"},{"name":"challengeCount","type":"uint32","internalType":"uint32"},{"name":"challengeSuccessCount","type":"uint32","internalType":"uint32"},{"name":"active","type":"bool","internalType":"bool"},{"name":"stakedAmount","type":"uint256","internalType":"uint256"}]}],"stateMutability":"view"},{"type":"function","name":"getProviders","inputs":[{"name":"eligible","type":"bool","internalType":"bool"}],"outputs":[{"name":"","type":"tuple[]","internalType":"struct Poda.ProviderInfo[]","components":[{"name":"name","type":"string","internalType":"string"},{"name":"addr","type":"address","internalType":"address"},{"name":"url","type":"string","internalType":"string"},{"name":"registeredAt","type":"uint32","internalType":"uint32"},{"name":"challengeCount","type":"uint32","internalType":"uint32"},{"name":"challengeSuccessCount","type":"uint32","internalType":"uint32"},{"name":"active","type":"bool","internalType":"bool"},{"name":"stakedAmount","type":"uint256","internalType":"uint256"}]}],"stateMutability":"view"},{"type":"function","name":"getStorageEfficiency","inputs":[{"name":"commitment","type":"bytes32","internalType":"bytes32"}],"outputs":[{"name":"originalSize","type":"uint256","internalType":"uint256"},{"name":"totalStoredSize","type":"uint256","internalType":"uint256"},{"name":"redundancyRatio","type":"uint256","internalType":"uint256"}],"stateMutability":"view"},{"type":"function","name":"isChallengeExpired","inputs":[{"name":"commitment","type":"bytes32","internalType":"bytes32"},{"name":"chunkId","type":"uint16","internalType":"uint16"},{"name":"provider","type":"address","internalType":"address"}],"outputs":[{"name":"expired","type":"bool","internalType":"bool"}],"stateMutability":"view"},{"type":"function","name":"isChunkAvailable","inputs":[{"name":"commitment","type":"bytes32","internalType":"bytes32"},{"name":"chunkId","type":"uint16","internalType":"uint16"}],"outputs":[{"name":"","type":"bool","internalType":"bool"}],"stateMutability":"view"},{"type":"function","name":"isCommitmentRecoverable","inputs":[{"name":"commitment","type":"bytes32","internalType":"bytes32"}],"outputs":[{"name":"","type":"bool","internalType":"bool"}],"stateMutability":"view"},{"type":"function","name":"issueChunkChallenge","inputs":[{"name":"commitment","type":"bytes32","internalType":"bytes32"},{"name":"chunkId","type":"uint16","internalType":"uint16"},{"name":"provider","type":"address","internalType":"address"}],"outputs":[{"name":"challengeId","type":"bytes32","internalType":"bytes32"}],"stateMutability":"nonpayable"},{"type":"function","name":"minStake","inputs":[],"outputs":[{"name":"","type":"uint256","internalType":"uint256"}],"stateMutability":"view"},{"type":"function","name":"owner","inputs":[],"outputs":[{"name":"","type":"address","internalType":"address"}],"stateMutability":"view"},{"type":"function","name":"providerChunks","inputs":[{"name":"","type":"bytes32","internalType":"bytes32"},{"name":"","type":"address","internalType":"address"},{"name":"","type":"uint256","internalType":"uint256"}],"outputs":[{"name":"","type":"uint16","internalType":"uint16"}],"stateMutability":"view"},{"type":"function","name":"providerList","inputs":[{"name":"","type":"uint256","internalType":"uint256"}],"outputs":[{"name":"","type":"address","internalType":"address"}],"stateMutability":"view"},{"type":"function","name":"providerNames","inputs":[{"name":"","type":"address","internalType":"address"}],"outputs":[{"name":"","type":"string","internalType":"string"}],"stateMutability":"view"},{"type":"function","name":"providerUrls","inputs":[{"name":"","type":"address","internalType":"address"}],"outputs":[{"name":"","type":"string","internalType":"string"}],"stateMutability":"view"},{"type":"function","name":"providers","inputs":[{"name":"","type":"address","internalType":"address"}],"outputs":[{"name":"registeredAt","type":"uint32","internalType":"uint32"},{"name":"challengeCount","type":"uint32","internalType":"uint32"},{"name":"challengeSuccessCount","type":"uint32","internalType":"uint32"},{"name":"active","type":"bool","internalType":"bool"},{"name":"stakedAmount","type":"uint256","internalType":"uint256"}],"stateMutability":"view"},{"type":"function","name":"registerProvider","inputs":[{"name":"name","type":"string","internalType":"string"},{"name":"url","type":"string","internalType":"string"}],"outputs":[],"stateMutability":"payable"},{"type":"function","name":"respondToChunkChallenge","inputs":[{"name":"commitment","type":"bytes32","internalType":"bytes32"},{"name":"chunkId","type":"uint16","internalType":"uint16"},{"name":"chunkData","type":"bytes","internalType":"bytes"},{"name":"proof","type":"bytes32[]","internalType":"bytes32[]"}],"outputs":[],"stateMutability":"nonpayable"},{"type":"function","name":"slashExpiredChallenge","inputs":[{"name":"commitment","type":"bytes32","internalType":"bytes32"},{"name":"chunkId","type":"uint16","internalType":"uint16"},{"name":"provider","type":"address","internalType":"address"}],"outputs":[],"stateMutability":"nonpayable"},{"type":"function","name":"submitChunkAttestations","inputs":[{"name":"commitment","type":"bytes32","internalType":"bytes32"},{"name":"chunkIds","type":"uint16[]","internalType":"uint16[]"}],"outputs":[],"stateMutability":"nonpayable"},{"type":"function","name":"submitCommitment","inputs":[{"name":"commitment","type":"bytes32","internalType":"bytes32"},{"name":"size","type":"uint32","internalType":"uint32"},{"name":"totalChunks","type":"uint16","internalType":"uint16"},{"name":"requiredChunks","type":"uint16","internalType":"uint16"},{"name":"kzgCommitment","type":"bytes","internalType":"bytes"}],"outputs":[],"stateMutability":"nonpayable"},{"type":"function","name":"verifyChunkProof","inputs":[{"name":"proof","type":"bytes32[]","internalType":"bytes32[]"},{"name":"root","type":"bytes32","internalType":"bytes32"},{"name":"chunkIndex","type":"uint16","internalType":"uint16"},{"name":"chunkData","type":"bytes","internalType":"bytes"}],"outputs":[{"name":"","type":"bool","internalType":"bool"}],"stateMutability":"pure"},{"type":"function","name":"withdrawStake","inputs":[{"name":"amount","type":"uint256","internalType":"uint256"}],"outputs":[],"stateMutability":"nonpayable"},{"type":"event","name":"ChunkAttestation","inputs":[{"name":"commitment","type":"bytes32","indexed":true,"internalType":"bytes32"},{"name":"provider","type":"address","indexed":true,"internalType":"address"},{"name":"chunkId","type":"uint16","indexed":false,"internalType":"uint16"}],"anonymous":false},{"type":"event","name":"ChunkChallengeIssued","inputs":[{"name":"challengeId","type":"bytes32","indexed":true,"internalType":"bytes32"},{"name":"commitment","type":"bytes32","indexed":true,"internalType":"bytes32"},{"name":"chunkId","type":"uint16","indexed":false,"internalType":"uint16"},{"name":"provider","type":"address","indexed":true,"internalType":"address"}],"anonymous":false},{"type":"event","name":"CommitmentCreated","inputs":[{"name":"commitment","type":"bytes32","indexed":true,"internalType":"bytes32"},{"name":"size","type":"uint32","indexed":false,"internalType":"uint32"},{"name":"totalChunks","type":"uint16","indexed":false,"internalType":"uint16"},{"name":"requiredChunks","type":"uint16","indexed":false,"internalType":"uint16"}],"anonymous":false},{"type":"event","name":"CommitmentReady","inputs":[{"name":"commitment","type":"bytes32","indexed":true,"internalType":"bytes32"},{"name":"availableChunks","type":"uint16","indexed":false,"internalType":"uint16"}],"anonymous":false}],"bytecode":{"object":"0x60806040523480156200001157600080fd5b50604051620045c3380380620045c383398101604081905262000034916200005e565b600080546001600160a01b0319166001600160a01b039390931692909217909155600c556200009a565b600080604083850312156200007257600080fd5b82516001600160a01b03811681146200008a57600080fd5b6020939093015192949293505050565b61451980620000aa6000396000f3fe6080604052600436106102675760003560e01c80638630786511610144578063ce031b90116100b6578063e946f22f1161007a578063e946f22f146108fe578063eb4f16b51461093f578063ed1e8dd31461095f578063f02b04b71461097f578063f260d1fc1461099f578063f3273859146109bf57600080fd5b8063ce031b901461085c578063d28416411461087c578063d78cfae81461089c578063e19bb965146108bc578063e6227185146108e957600080fd5b8063ac16c98511610108578063ac16c9851461078f578063b7ecbeba146107af578063c26e79de146107c4578063c3a079ed146107e4578063ca1de9511461080f578063cc9812c61461083c57600080fd5b806386307865146106c557806388f299dd146107015780638da5cb5b14610721578063a08bd43714610741578063a20bcb331461076f57600080fd5b80633cfe0c22116101dd5780635ed25346116101a15780635ed25346146105dc5780636031610f146106055780636cb5c6071461063357806374ca8971146106535780637583902f14610666578063839df9451461069357600080fd5b80633cfe0c22146104955780633f521c88146105325780634b7f2adb1461055f5780634bde3c101461058c578063540b8e2d146105bc57600080fd5b806325d5971f1161022f57806325d5971f146103c35780632bd771a7146103e357806333bffb83146104105780633443c4b814610432578063375b3c0a1461045f578063390bfd3c1461047557600080fd5b80630787bc271461026c5780630fac8ac0146103075780631fca47261461033f5780632443748a1461038557806325585a4c146103a7575b600080fd5b34801561027857600080fd5b506102ca610287366004613798565b6004602052600090815260409020805460019091015463ffffffff80831692600160201b8104821692600160401b820490921691600160601b90910460ff169085565b6040805163ffffffff96871681529486166020860152929094169183019190915215156060820152608081019190915260a0015b60405180910390f35b34801561031357600080fd5b506103276103223660046137c5565b6109fa565b6040516001600160a01b0390911681526020016102fe565b34801561034b57600080fd5b5061037761035a3660046137f1565b600a60209081526000928352604080842090915290825290205481565b6040519081526020016102fe565b34801561039157600080fd5b506103a56103a036600461385b565b610a28565b005b3480156103b357600080fd5b5061037767016345785d8a000081565b3480156103cf57600080fd5b506103a56103de3660046138e4565b610e36565b3480156103ef57600080fd5b506104036103fe366004613941565b610fde565b6040516102fe9190613982565b34801561041c57600080fd5b506104256111b1565b6040516102fe91906139c8565b34801561043e57600080fd5b5061045261044d366004613798565b611209565b6040516102fe9190613a46565b34801561046b57600080fd5b50610377600c5481565b34801561048157600080fd5b506103276104903660046138e4565b6112a3565b3480156104a157600080fd5b506104fd6104b0366004613a59565b600b602090815260009384526040808520825292845282842090528252902080546001909101546001600160a01b03811690600160a01b810463ffffffff1690600160c01b900460ff1684565b604080519485526001600160a01b03909316602085015263ffffffff90911691830191909152151560608201526080016102fe565b34801561053e57600080fd5b5061055261054d3660046138e4565b6112cd565b6040516102fe9190613ad5565b34801561056b57600080fd5b5061057f61057a366004613a59565b611357565b6040516102fe9190613b36565b34801561059857600080fd5b506105ac6105a73660046137c5565b611462565b60405190151581526020016102fe565b3480156105c857600080fd5b506105526105d7366004613b44565b6114b7565b3480156105e857600080fd5b506105f261040081565b60405161ffff90911681526020016102fe565b34801561061157600080fd5b506106256106203660046138e4565b611553565b6040516102fe929190613b67565b34801561063f57600080fd5b506105ac61064e366004613a59565b6117a1565b6103a5610661366004613c08565b611852565b34801561067257600080fd5b50610686610681366004613798565b611ab5565b6040516102fe9190613d20565b34801561069f57600080fd5b506106b36106ae3660046138e4565b611cd7565b6040516102fe96959493929190613d33565b3480156106d157600080fd5b506105ac6106e03660046138e4565b600090815260026020526040902054600160201b900463ffffffff16151590565b34801561070d57600080fd5b5061045261071c366004613798565b611db1565b34801561072d57600080fd5b50600054610327906001600160a01b031681565b34801561074d57600080fd5b5061076161075c3660046138e4565b611dca565b6040516102fe929190613d82565b34801561077b57600080fd5b506105ac61078a3660046138e4565b611f1e565b34801561079b57600080fd5b506105f26107aa3660046137f1565b61204f565b3480156107bb57600080fd5b506105f2609681565b3480156107d057600080fd5b506103776107df366004613a59565b612096565b3480156107f057600080fd5b506107fa610e1081565b60405163ffffffff90911681526020016102fe565b34801561081b57600080fd5b5061082f61082a366004613798565b61235d565b6040516102fe9190613df9565b34801561084857600080fd5b506103a5610857366004613e3b565b61236b565b34801561086857600080fd5b506103a5610877366004613a59565b6125ff565b34801561088857600080fd5b506105ac610897366004613eb2565b6127ef565b3480156108a857600080fd5b506103776108b73660046138e4565b612889565b3480156108c857600080fd5b506108dc6108d7366004613f2c565b6128aa565b6040516102fe9190613f4e565b3480156108f557600080fd5b506107fa600a81565b34801561090a57600080fd5b506103276109193660046137c5565b60076020908152600092835260408084209091529082529020546001600160a01b031681565b34801561094b57600080fd5b506103a561095a3660046138e4565b612a0e565b34801561096b57600080fd5b5061082f61097a366004613798565b612abe565b34801561098b57600080fd5b506105f261099a366004613fb2565b612acc565b3480156109ab57600080fd5b506103a56109ba366004613fe7565b612b20565b3480156109cb57600080fd5b506109df6109da3660046138e4565b612ee1565b604080519384526020840192909252908201526060016102fe565b600082815260076020908152604080832061ffff851684529091529020546001600160a01b03165b92915050565b85610a6f5760405162461bcd60e51b8152602060048201526012602482015271125b9d985b1a590818dbdb5b5a5d1b595b9d60721b60448201526064015b60405180910390fd5b600086815260026020526040902054600160201b900463ffffffff1615610ad85760405162461bcd60e51b815260206004820152601960248201527f436f6d6d69746d656e7420616c726561647920657869737473000000000000006044820152606401610a66565b60008563ffffffff1611610b2e5760405162461bcd60e51b815260206004820152601b60248201527f53697a65206d7573742062652067726561746572207468616e203000000000006044820152606401610a66565b8261ffff168461ffff1611610b855760405162461bcd60e51b815260206004820152601f60248201527f496e76616c696420526565642d536f6c6f6d6f6e20706172616d6574657273006044820152606401610a66565b61040061ffff85161115610bcd5760405162461bcd60e51b815260206004820152600f60248201526e546f6f206d616e79206368756e6b7360881b6044820152606401610a66565b60308114610c1d5760405162461bcd60e51b815260206004820152601d60248201527f496e76616c6964204b5a4720636f6d6d69746d656e74206c656e6774680000006044820152606401610a66565b609683610c2b866064614048565b610c359190614084565b61ffff161015610c875760405162461bcd60e51b815260206004820152601760248201527f496e73756666696369656e7420726564756e64616e63790000000000000000006044820152606401610a66565b60018054808201825560009182527fb10e2d527612073b26eecdfd717e6a320cf44b4afac2b0732d9fcbe2b7fa0cf6018790556040805160c08101825263ffffffff8089168252421660208281019190915261ffff808916838501528716606083015260808201939093528151601f85018490048402810184019092528382529160a08301919085908590819084018382808284376000920182905250939094525050888152600260209081526040918290208451815492860151938601516060870151608088015163ffffffff93841667ffffffffffffffff1990961695909517600160201b9390961692909202949094176bffffffff00000000000000001916600160401b61ffff9586160261ffff60501b191617600160501b918516919091021761ffff60601b1916600160601b939092169290920217815560a08301519091506001820190610dda9082614142565b50506040805163ffffffff8816815261ffff80881660208301528616918101919091528791507f289ba6f7c4d5fb74fd9f565a38044a33e56c2ab5796cd527e53099130bf52a8c906060015b60405180910390a2505050505050565b33600090815260046020526040902054600160601b900460ff16610e6c5760405162461bcd60e51b8152600401610a6690614201565b60008111610ebc5760405162461bcd60e51b815260206004820152601d60248201527f416d6f756e74206d7573742062652067726561746572207468616e20300000006044820152606401610a66565b33600090815260046020526040902060010154811115610f135760405162461bcd60e51b8152602060048201526012602482015271496e73756666696369656e74207374616b6560701b6044820152606401610a66565b33600090815260046020526040902054600160201b900463ffffffff16610f865760405162461bcd60e51b815260206004820152602160248201527f50726f766964657220686173206e6f20616374697665206368616c6c656e67656044820152607360f81b6064820152608401610a66565b3360009081526004602052604081206001018054839290610fa8908490614244565b9091555050604051339082156108fc029083906000818181858888f19350505050158015610fda573d6000803e3d6000fd5b5050565b6060816000816001600160401b03811115610ffb57610ffb6140a5565b604051908082528060200260200182016040528015611024578160200160208202803683370190505b50905060005b828110156111a85760006002600088888581811061104a5761104a614257565b60209081029290920135835250818101929092526040908101600020815160c081018352815463ffffffff8082168352600160201b8204169482019490945261ffff600160401b8504811693820193909352600160501b840483166060820152600160601b909304909116608083015260018101805460a0840191906110cf906140bb565b80601f01602080910402602001604051908101604052809291908181526020018280546110fb906140bb565b80156111485780601f1061111d57610100808354040283529160200191611148565b820191906000526020600020905b81548152906001019060200180831161112b57829003601f168201915b50505050508152505090506000816020015163ffffffff1611801561117d5750806060015161ffff16816080015161ffff1610155b83838151811061118f5761118f614257565b911515602092830291909101909101525060010161102a565b50949350505050565b606060018054806020026020016040519081016040528092919081815260200182805480156111ff57602002820191906000526020600020905b8154815260200190600101908083116111eb575b5050505050905090565b60066020526000908152604090208054611222906140bb565b80601f016020809104026020016040519081016040528092919081815260200182805461124e906140bb565b801561129b5780601f106112705761010080835404028352916020019161129b565b820191906000526020600020905b81548152906001019060200180831161127e57829003601f168201915b505050505081565b600381815481106112b357600080fd5b6000918252602090912001546001600160a01b0316905081565b60008181526009602090815260409182902080548351818402810184019094528084526060939283018282801561134b57602002820191906000526020600020906000905b82829054906101000a900461ffff1661ffff16815260200190600201906020826001010492830192600103820291508084116113125790505b50505050509050919050565b6040805160e0810182526000606082018181526080830182905260a0830182905260c0830182905282526020808301829052828401829052868252600b815283822061ffff8716835281528382206001600160a01b0386168352905291909120546113d45760405162461bcd60e51b8152600401610a669061426d565b50604080516000858152600b602090815283822061ffff87168084529082528483206001600160a01b0387811685529083529285902060e0850186528054606086019081526001909101549384166080860152600160a01b840463ffffffff1660a0860152600160c01b90930460ff16151560c08501529183528201869052918101919091525b9392505050565b60008061147161010084614084565b61ffff16905060006114856101008561429a565b6000958652600a602090815260408088209488529390529190942054600161ffff9092169190911b1615159392505050565b60008281526008602090815260408083206001600160a01b038516845282529182902080548351818402810184019094528084526060939283018282801561154657602002820191906000526020600020906000905b82829054906101000a900461ffff1661ffff168152602001906002019060208260010104928301926001038202915080841161150d5790505b5050505050905092915050565b6060806000805b6003548110156115ca576000858152600860205260408120600380548391908590811061158957611589614257565b60009182526020808320909101546001600160a01b0316835282019290925260400190205411156115c257816115be816142bb565b9250505b60010161155a565b50806001600160401b038111156115e3576115e36140a5565b60405190808252806020026020018201604052801561160c578160200160208202803683370190505b509250806001600160401b03811115611627576116276140a5565b60405190808252806020026020018201604052801561165a57816020015b60608152602001906001900390816116455790505b5091506000805b6003548110156117995760006003828154811061168057611680614257565b60009182526020808320909101548983526008825260408084206001600160a01b039092168085529183528084208054825181860281018601909352808352929550909290919083018282801561171e57602002820191906000526020600020906000905b82829054906101000a900461ffff1661ffff16815260200190600201906020826001010492830192600103820291508084116116e55790505b5050505050905060008151111561178f578187858151811061174257611742614257565b60200260200101906001600160a01b031690816001600160a01b0316815250508086858151811061177557611775614257565b6020026020010181905250838061178b906142bb565b9450505b5050600101611661565b505050915091565b6000838152600b6020908152604080832061ffff8616845282528083206001600160a01b0385811685529083528184208251608081018452815480825260019092015492831694810194909452600160a01b820463ffffffff1692840192909252600160c01b900460ff16151560608301521580611820575080606001515b1561182f57600091505061145b565b610e10816040015161184191906142d4565b63ffffffff16421195945050505050565b3360009081526004602052604090205463ffffffff16156118b55760405162461bcd60e51b815260206004820152601b60248201527f50726f766964657220616c7265616479207265676973746572656400000000006044820152606401610a66565b82158015906118c5575060208311155b6119075760405162461bcd60e51b8152602060048201526013602482015272092dcecc2d8d2c840dcc2daca40d8cadccee8d606b1b6044820152606401610a66565b8015801590611917575060808111155b6119585760405162461bcd60e51b8152602060048201526012602482015271092dcecc2d8d2c840aaa49840d8cadccee8d60731b6044820152606401610a66565b600c5434101561199f5760405162461bcd60e51b8152602060048201526012602482015271496e73756666696369656e74207374616b6560701b6044820152606401610a66565b6003805460018181019092557fc2575a0e9e593c00f959f8c92f12db2869c3395a3b0502d05e2516446f71f85b0180546001600160a01b031916339081179091556040805160a08101825263ffffffff42811682526000602083810182815284860183815260608601898152346080880190815298855260048452878520965187549351925191511515600160601b0260ff60601b19928816600160401b02929092166cffffffffff000000000000000019938816600160201b0267ffffffffffffffff19909516919097161792909217169390931792909217835593519190940155600590925220611a938486836142f1565b50336000908152600660205260409020611aae8284836142f1565b5050505050565b611abd613738565b6001600160a01b0382166000818152600460209081526040808320815160a081018352815463ffffffff8082168352600160201b8204811683870152600160401b82041682850152600160601b900460ff1615156060820152600190910154608082015281516101008101835294845260059092529091208054919291829190611b46906140bb565b80601f0160208091040260200160405190810160405280929190818152602001828054611b72906140bb565b8015611bbf5780601f10611b9457610100808354040283529160200191611bbf565b820191906000526020600020905b815481529060010190602001808311611ba257829003601f168201915b50505050508152602001846001600160a01b0316815260200160066000866001600160a01b03166001600160a01b031681526020019081526020016000208054611c08906140bb565b80601f0160208091040260200160405190810160405280929190818152602001828054611c34906140bb565b8015611c815780601f10611c5657610100808354040283529160200191611c81565b820191906000526020600020905b815481529060010190602001808311611c6457829003601f168201915b50505050508152602001826000015163ffffffff168152602001826020015163ffffffff168152602001826040015163ffffffff1681526020018260600151151581526020018260800151815250915050919050565b6002602052600090815260409020805460018201805463ffffffff80841694600160201b85049091169361ffff600160401b8204811694600160501b8304821694600160601b9093049091169291611d2e906140bb565b80601f0160208091040260200160405190810160405280929190818152602001828054611d5a906140bb565b8015611da75780601f10611d7c57610100808354040283529160200191611da7565b820191906000526020600020905b815481529060010190602001808311611d8a57829003601f168201915b5050505050905086565b60056020526000908152604090208054611222906140bb565b6040805160c0810182526000808252602082018190529181018290526060808201839052608082019290925260a08101919091526000828152600260209081526040808320815160c081018352815463ffffffff8082168352600160201b8204169482019490945261ffff600160401b8504811693820193909352600160501b840483166060820152600160601b90930490911660808301526001810180548493929160a0840191611e7b906140bb565b80601f0160208091040260200160405190810160405280929190818152602001828054611ea7906140bb565b8015611ef45780601f10611ec957610100808354040283529160200191611ef4565b820191906000526020600020905b815481529060010190602001808311611ed757829003601f168201915b505050505081525050905080816060015161ffff16826080015161ffff1610159250925050915091565b6000818152600260209081526040808320815160c081018352815463ffffffff8082168352600160201b8204169482019490945261ffff600160401b8504811693820193909352600160501b840483166060820152600160601b90930490911660808301526001810180548493929160a0840191611f9b906140bb565b80601f0160208091040260200160405190810160405280929190818152602001828054611fc7906140bb565b80156120145780601f10611fe957610100808354040283529160200191612014565b820191906000526020600020905b815481529060010190602001808311611ff757829003601f168201915b50505050508152505090506000816020015163ffffffff1611801561145b5750806060015161ffff16816080015161ffff1610159392505050565b6009602052816000526040600020818154811061206b57600080fd5b9060005260206000209060109182820401919006600202915091509054906101000a900461ffff1681565b6000838152600260205260408120548490600160201b900463ffffffff166120d05760405162461bcd60e51b8152600401610a66906143b0565b600085815260076020908152604080832061ffff881684529091529020546001600160a01b038481169116146121485760405162461bcd60e51b815260206004820152601f60248201527f50726f766964657220646f65736e2774206f776e2074686973206368756e6b006044820152606401610a66565b6000858152600b6020908152604080832061ffff8816845282528083206001600160a01b0387168452909152902054156121c45760405162461bcd60e51b815260206004820152601860248201527f4368616c6c656e676520616c72656164792061637469766500000000000000006044820152606401610a66565b60408051602081018790526001600160f01b031960f087901b16918101919091526bffffffffffffffffffffffff19606085811b8216604284015242605684015233901b166076820152608a0160408051601f1981840301815282825280516020918201206080840183528084523384830190815263ffffffff4281168686019081526000606088018181528d8252600b875287822061ffff8e16835287528782206001600160a01b038d8116845290885288832099518a5594516001999099018054935191511515600160c01b0260ff60c01b19928616600160a01b026001600160c01b03199095169a90961699909917929092179190911692909217909555600492839052929092208054929550600160201b909204909216916122e9836143e7565b91906101000a81548163ffffffff021916908363ffffffff16021790555050826001600160a01b031685837f9a2190490de3b1f1bf69f982407eaa08bbe2adc554aa80a4ae96f25f74b7e2038760405161234d919061ffff91909116815260200190565b60405180910390a4509392505050565b6060610a228261308161312e565b33600090815260046020526040902054600160601b900460ff166123a15760405162461bcd60e51b8152600401610a6690614201565b6000868152600b6020908152604080832061ffff891684528252808320338452909152902080546123e45760405162461bcd60e51b8152600401610a669061426d565b6001810154600160c01b900460ff16156124405760405162461bcd60e51b815260206004820152601a60248201527f4368616c6c656e676520616c7265616479207265736f6c7665640000000000006044820152606401610a66565b8161247d5760405162461bcd60e51b815260206004820152600d60248201526c24b73b30b634b210383937b7b360991b6044820152606401610a66565b6000878152600b6020908152604080832061ffff8a168452825280832033845290915290206001015442906124c290610e1090600160a01b900463ffffffff166142d4565b63ffffffff16116125095760405162461bcd60e51b815260206004820152601160248201527010da185b1b195b99d948195e1c1a5c9959607a1b6044820152606401610a66565b6125178383898989896127ef565b1561256a573360009081526004602052604090208054600160401b900463ffffffff16906008612546836143e7565b91906101000a81548163ffffffff021916908363ffffffff160217905550506125be565b604080516080810182528254815260018301546001600160a01b0381166020830152600160a01b810463ffffffff1692820192909252600160c01b90910460ff16151560608201526125be9088883361353f565b50505060009384525050600b6020908152604080842061ffff909316845291815281832033845290529020600101805460ff60c01b1916600160c01b179055565b6000838152600b6020908152604080832061ffff8616845282528083206001600160a01b03851684529091529020805461264b5760405162461bcd60e51b8152600401610a669061426d565b6001810154600160c01b900460ff16156126a75760405162461bcd60e51b815260206004820152601a60248201527f4368616c6c656e676520616c7265616479207265736f6c7665640000000000006044820152606401610a66565b60018101546126c690610e1090600160a01b900463ffffffff166142d4565b63ffffffff16421161271a5760405162461bcd60e51b815260206004820152601960248201527f4368616c6c656e6765206e6f74206578706972656420796574000000000000006044820152606401610a66565b604080516080810182528254815260018301546001600160a01b0381166020830152600160a01b810463ffffffff1692820192909252600160c01b90910460ff161515606082015261276e9085858561353f565b6000848152600b6020908152604080832061ffff8716845282528083206001600160a01b03861684529091529020600101805460ff60c01b1916600160c01b179055336108fc6127c7600a67016345785d8a000061440a565b6040518115909202916000818181858888f19350505050158015611aae573d6000803e3d6000fd5b600080838360405161280292919061441e565b6040805191829003822061ffff88166020840152908201819052915060009060600160405160208183030381529060405280519060200120905061287c8989808060200260200160405190810160405280939291908181526020018383602002808284376000920191909152508b92508591506136b39050565b9998505050505050505050565b6001818154811061289957600080fd5b600091825260209091200154905081565b6003546060906000906001600160401b038111156128ca576128ca6140a5565b60405190808252806020026020018201604052801561290357816020015b6128f0613738565b8152602001906001900390816128e85790505b50905060005b600354811015612a07578380156129ad5750600460006003838154811061293257612932614257565b60009182526020808320909101546001600160a01b0316835282019290925260400190205460ff600160601b9091041615806129ad5750600c54600460006003848154811061298357612983614257565b60009182526020808320909101546001600160a01b03168352820192909252604001902060010154105b6129ff576129e1600382815481106129c7576129c7614257565b6000918252602090912001546001600160a01b0316611ab5565b8282815181106129f3576129f3614257565b60200260200101819052505b600101612909565b5092915050565b33600090815260046020526040902054600160601b900460ff16612a445760405162461bcd60e51b8152600401610a6690614201565b60008111612a945760405162461bcd60e51b815260206004820152601d60248201527f416d6f756e74206d7573742062652067726561746572207468616e20300000006044820152606401610a66565b3360009081526004602052604081206001018054839290612ab690849061442e565b909155505050565b6060610a22826117a161312e565b60086020528260005260406000206020528160005260406000208181548110612af457600080fd5b906000526020600020906010918282040191900660020292509250509054906101000a900461ffff1681565b33600090815260046020526040902054600160601b900460ff16612b565760405162461bcd60e51b8152600401610a6690614201565b6000838152600260205260409020548390600160201b900463ffffffff16612b905760405162461bcd60e51b8152600401610a66906143b0565b8115801590612ba0575060328211155b612be25760405162461bcd60e51b8152602060048201526013602482015272125b9d985b1a590818da1d5b9ac818dbdd5b9d606a1b6044820152606401610a66565b600084815260026020526040812090805b84811015612e42576000868683818110612c0f57612c0f614257565b9050602002016020810190612c249190614441565b845490915061ffff600160401b909104811690821610612c795760405162461bcd60e51b815260206004820152601060248201526f125b9d985b1a590818da1d5b9ac8125160821b6044820152606401610a66565b600088815260076020908152604080832061ffff851684529091529020546001600160a01b031615612ce65760405162461bcd60e51b815260206004820152601660248201527510da1d5b9ac8185b1c9958591e48185d1d195cdd195960521b6044820152606401610a66565b600088815260076020908152604080832061ffff80861680865291845282852080546001600160a01b031916339081179091558d86526008855283862090865284529184208054600181018255908552928420601084040180546002600f9095169490940261010090810a928302929093021990931617909155612d6a9083614084565b61ffff1690506000612d7e6101008461429a565b60008b8152600a6020908152604080832086845282528083208054600161ffff96871681811b9092179092558f8552600984529184208054918201815584529190922060108204018054600f9092166002026101000a808502199092169387169190910292909217909155905084612df58161445c565b60405161ffff861681529096503391508b907f0d3612a65375aaed616b21fb3d1bfc5fcb7db37205b651f492456bab363a3d199060200160405180910390a3836001019350505050612bf3565b50815481908390600c90612e62908490600160601b900461ffff16614473565b82546101009290920a61ffff8181021990931691831602179091558354600160501b81048216600160601b909104909116109050612ed9578154604051600160601b90910461ffff16815286907fec945f40a39d91f4317f852f732ad018288e363b2edfdf832749208505fcf46a90602001610e26565b505050505050565b6000818152600260209081526040808320815160c081018352815463ffffffff8082168352600160201b8204169482019490945261ffff600160401b8504811693820193909352600160501b840483166060820152600160601b90930490911660808301526001810180548493849384939192909160a0840191612f64906140bb565b80601f0160208091040260200160405190810160405280929190818152602001828054612f90906140bb565b8015612fdd5780601f10612fb257610100808354040283529160200191612fdd565b820191906000526020600020905b815481529060010190602001808311612fc057829003601f168201915b50505050508152505090506000816020015163ffffffff16116130125760405162461bcd60e51b8152600401610a66906143b0565b806000015163ffffffff169350806060015161ffff16816040015161ffff168260000151613040919061448e565b61304a91906144ae565b63ffffffff169250806060015181604001516127106130699190614048565b6130739190614084565b61ffff169150509193909250565b6000838152600b6020908152604080832061ffff8616845282528083206001600160a01b0385811685529083528184208251608081018452815480825260019092015492831694810194909452600160a01b820463ffffffff1692840192909252600160c01b900460ff16151560608301521580159061310357508060600151155b8015613125575042610e10826040015161311d91906142d4565b63ffffffff16115b95945050505050565b60606000805b60015481101561324f5760006001828154811061315357613153614257565b60009182526020808320909101548083526008825260408084206001600160a01b038b1685528352808420805482518186028101860190935280835292955090929091908301828280156131ee57602002820191906000526020600020906000905b82829054906101000a900461ffff1661ffff16815260200190600201906020826001010492830192600103820291508084116131b55790505b5050505050905060005b8151811015613244576132298383838151811061321757613217614257565b60200260200101518a8a63ffffffff16565b1561323c5784613238816142bb565b9550505b6001016131f8565b505050600101613134565b506000816001600160401b0381111561326a5761326a6140a5565b6040519080825280602002602001820160405280156132d057816020015b6040805160e0810182526000606082018181526080830182905260a0830182905260c08301829052825260208083018290529282015282526000199092019101816132885790505b5090506000805b600154811015613534576000600182815481106132f6576132f6614257565b60009182526020808320909101548083526008825260408084206001600160a01b038d16855283528084208054825181860281018601909352808352929550909290919083018282801561339157602002820191906000526020600020906000905b82829054906101000a900461ffff1661ffff16815260200190600201906020826001010492830192600103820291508084116133585790505b5050505050905060005b8151811015613529576133cc838383815181106133ba576133ba614257565b60200260200101518c8c63ffffffff16565b15613521576040518060600160405280600b6000868152602001908152602001600020600085858151811061340357613403614257565b602002602001015161ffff1661ffff16815260200190815260200160002060008d6001600160a01b03166001600160a01b03168152602001908152602001600020604051806080016040529081600082015481526020016001820160009054906101000a90046001600160a01b03166001600160a01b03166001600160a01b031681526020016001820160149054906101000a900463ffffffff1663ffffffff1663ffffffff1681526020016001820160189054906101000a900460ff16151515158152505081526020018481526020018383815181106134e6576134e6614257565b602002602001015161ffff1681525086868151811061350757613507614257565b6020026020010181905250848061351d906142bb565b9550505b60010161339b565b5050506001016132d7565b509095945050505050565b835161355d5760405162461bcd60e51b8152600401610a669061426d565b600083815260076020908152604080832061ffff808716855290835281842080546001600160a01b0319169055868452600290925290912080549091600160601b9091041681600c6135ae836144c5565b91906101000a81548161ffff021916908361ffff160217905550506000610100846135d99190614084565b61ffff16905060006135ed6101008661429a565b6000878152600a6020908152604080832086845282528083208054600161ffff9690961686811b199091169091556001600160a01b038916845260049092529091209091015490915067016345785d8a000011613682576001600160a01b0384166000908152600460205260408120600101805467016345785d8a00009290613677908490614244565b909155506136aa9050565b6001600160a01b0384166000908152600460205260408120805460ff60601b19168155600101555b50505050505050565b6000826136c085846136c9565b14949350505050565b600081815b8451811015613704576136fa828683815181106136ed576136ed614257565b602002602001015161370c565b91506001016136ce565b509392505050565b600081831061372857600082815260208490526040902061145b565b5060009182526020526040902090565b6040805161010081018252606080825260006020830181905292820181905281018290526080810182905260a0810182905260c0810182905260e081019190915290565b80356001600160a01b038116811461379357600080fd5b919050565b6000602082840312156137aa57600080fd5b61145b8261377c565b803561ffff8116811461379357600080fd5b600080604083850312156137d857600080fd5b823591506137e8602084016137b3565b90509250929050565b6000806040838503121561380457600080fd5b50508035926020909101359150565b60008083601f84011261382557600080fd5b5081356001600160401b0381111561383c57600080fd5b60208301915083602082850101111561385457600080fd5b9250929050565b60008060008060008060a0878903121561387457600080fd5b86359550602087013563ffffffff8116811461388f57600080fd5b945061389d604088016137b3565b93506138ab606088016137b3565b925060808701356001600160401b038111156138c657600080fd5b6138d289828a01613813565b979a9699509497509295939492505050565b6000602082840312156138f657600080fd5b5035919050565b60008083601f84011261390f57600080fd5b5081356001600160401b0381111561392657600080fd5b6020830191508360208260051b850101111561385457600080fd5b6000806020838503121561395457600080fd5b82356001600160401b0381111561396a57600080fd5b613976858286016138fd565b90969095509350505050565b6020808252825182820181905260009190848201906040850190845b818110156139bc57835115158352928401929184019160010161399e565b50909695505050505050565b6020808252825182820181905260009190848201906040850190845b818110156139bc578351835292840192918401916001016139e4565b6000815180845260005b81811015613a2657602081850181015186830182015201613a0a565b506000602082860101526020601f19601f83011685010191505092915050565b60208152600061145b6020830184613a00565b600080600060608486031215613a6e57600080fd5b83359250613a7e602085016137b3565b9150613a8c6040850161377c565b90509250925092565b60008151808452602080850194506020840160005b83811015613aca57815161ffff1687529582019590820190600101613aaa565b509495945050505050565b60208152600061145b6020830184613a95565b8051805183526020808201516001600160a01b03168185015260408083015163ffffffff16818601526060928301511515928501929092528201516080840152015161ffff1660a090910152565b60c08101610a228284613ae8565b60008060408385031215613b5757600080fd5b823591506137e86020840161377c565b604080825283519082018190526000906020906060840190828701845b82811015613ba95781516001600160a01b031684529284019290840190600101613b84565b50505083810382850152845180825282820190600581901b8301840187850160005b83811015613bf957601f19868403018552613be7838351613a95565b94870194925090860190600101613bcb565b50909998505050505050505050565b60008060008060408587031215613c1e57600080fd5b84356001600160401b0380821115613c3557600080fd5b613c4188838901613813565b90965094506020870135915080821115613c5a57600080fd5b50613c6787828801613813565b95989497509550505050565b60006101008251818552613c8982860182613a00565b91505060018060a01b03602084015116602085015260408301518482036040860152613cb58282613a00565b91505063ffffffff60608401511660608501526080830151613cdf608086018263ffffffff169052565b5060a0830151613cf760a086018263ffffffff169052565b5060c0830151613d0b60c086018215159052565b5060e083015160e08501528091505092915050565b60208152600061145b6020830184613c73565b63ffffffff87811682528616602082015261ffff858116604083015284811660608301528316608082015260c060a08201819052600090613d7690830184613a00565b98975050505050505050565b60408152600063ffffffff80855116604084015280602086015116606084015250604084015161ffff80821660808501528060608701511660a08501528060808701511660c0850152505060a084015160c060e0840152613de7610100840182613a00565b91505082151560208301529392505050565b6020808252825182820181905260009190848201906040850190845b818110156139bc57613e28838551613ae8565b9284019260c09290920191600101613e15565b60008060008060008060808789031215613e5457600080fd5b86359550613e64602088016137b3565b945060408701356001600160401b0380821115613e8057600080fd5b613e8c8a838b01613813565b90965094506060890135915080821115613ea557600080fd5b506138d289828a016138fd565b60008060008060008060808789031215613ecb57600080fd5b86356001600160401b0380821115613ee257600080fd5b613eee8a838b016138fd565b909850965060208901359550869150613f0960408a016137b3565b94506060890135915080821115613f1f57600080fd5b506138d289828a01613813565b600060208284031215613f3e57600080fd5b8135801515811461145b57600080fd5b600060208083016020845280855180835260408601915060408160051b87010192506020870160005b82811015613fa557603f19888603018452613f93858351613c73565b94509285019290850190600101613f77565b5092979650505050505050565b600080600060608486031215613fc757600080fd5b83359250613fd76020850161377c565b9150604084013590509250925092565b600080600060408486031215613ffc57600080fd5b8335925060208401356001600160401b0381111561401957600080fd5b614025868287016138fd565b9497909650939450505050565b634e487b7160e01b600052601160045260246000fd5b61ffff81811683821602808216919082811461406657614066614032565b505092915050565b634e487b7160e01b600052601260045260246000fd5b600061ffff808416806140995761409961406e565b92169190910492915050565b634e487b7160e01b600052604160045260246000fd5b600181811c908216806140cf57607f821691505b6020821081036140ef57634e487b7160e01b600052602260045260246000fd5b50919050565b601f82111561413d576000816000526020600020601f850160051c8101602086101561411e5750805b601f850160051c820191505b81811015612ed95782815560010161412a565b505050565b81516001600160401b0381111561415b5761415b6140a5565b61416f8161416984546140bb565b846140f5565b602080601f8311600181146141a4576000841561418c5750858301515b600019600386901b1c1916600185901b178555612ed9565b600085815260208120601f198616915b828110156141d3578886015182559484019460019091019084016141b4565b50858210156141f15787850151600019600388901b60f8161c191681555b5050505050600190811b01905550565b60208082526023908201527f50726f7669646572206e6f742072656769737465726564206f7220696e61637460408201526269766560e81b606082015260800190565b81810381811115610a2257610a22614032565b634e487b7160e01b600052603260045260246000fd5b6020808252601390820152724e6f20616374697665206368616c6c656e676560681b604082015260600190565b600061ffff808416806142af576142af61406e565b92169190910692915050565b6000600182016142cd576142cd614032565b5060010190565b63ffffffff818116838216019080821115612a0757612a07614032565b6001600160401b03831115614308576143086140a5565b61431c8361431683546140bb565b836140f5565b6000601f84116001811461435057600085156143385750838201355b600019600387901b1c1916600186901b178355611aae565b600083815260209020601f19861690835b828110156143815786850135825560209485019460019092019101614361565b508682101561439e5760001960f88860031b161c19848701351681555b505060018560011b0183555050505050565b60208082526019908201527f436f6d6d69746d656e7420646f6573206e6f7420657869737400000000000000604082015260600190565b600063ffffffff80831681810361440057614400614032565b6001019392505050565b6000826144195761441961406e565b500490565b8183823760009101908152919050565b80820180821115610a2257610a22614032565b60006020828403121561445357600080fd5b61145b826137b3565b600061ffff80831681810361440057614400614032565b61ffff818116838216019080821115612a0757612a07614032565b63ffffffff81811683821602808216919082811461406657614066614032565b600063ffffffff808416806140995761409961406e565b600061ffff8216806144d9576144d9614032565b600019019291505056fea264697066735822122075654e77f39accece60d5225e1b81e2bf0577396d31e94969dcc85393c502c7164736f6c63430008180033","linkReferences":{}},"methodIdentifiers":{"CHALLENGE_PENALTY()":"25585a4c","CHALLENGE_PERIOD()":"c3a079ed","MAX_CHUNKS()":"5ed25346","MIN_REDUNDANCY_RATIO()":"b7ecbeba","SLASH_PENALTY_PERCENTAGE()":"e6227185","activeChunkChallenges(bytes32,uint16,address)":"3cfe0c22","addStake(uint256)":"eb4f16b5","availableChunkList(bytes32,uint256)":"ac16c985","chunkAvailability(bytes32,uint256)":"1fca4726","chunkOwners(bytes32,uint16)":"e946f22f","commitmentExists(bytes32)":"86307865","commitmentList(uint256)":"d78cfae8","commitments(bytes32)":"839df945","getAvailableChunks(bytes32)":"3f521c88","getChunkChallenge(bytes32,uint16,address)":"4b7f2adb","getChunkOwner(bytes32,uint16)":"0fac8ac0","getCommitmentChunkMap(bytes32)":"6031610f","getCommitmentInfo(bytes32)":"a08bd437","getCommitmentList()":"33bffb83","getMultipleCommitmentStatus(bytes32[])":"2bd771a7","getProviderActiveChallenges(address)":"ca1de951","getProviderChunks(bytes32,address)":"540b8e2d","getProviderExpiredChallenges(address)":"ed1e8dd3","getProviderInfo(address)":"7583902f","getProviders(bool)":"e19bb965","getStorageEfficiency(bytes32)":"f3273859","isChallengeExpired(bytes32,uint16,address)":"6cb5c607","isChunkAvailable(bytes32,uint16)":"4bde3c10","isCommitmentRecoverable(bytes32)":"a20bcb33","issueChunkChallenge(bytes32,uint16,address)":"c26e79de","minStake()":"375b3c0a","owner()":"8da5cb5b","providerChunks(bytes32,address,uint256)":"f02b04b7","providerList(uint256)":"390bfd3c","providerNames(address)":"88f299dd","providerUrls(address)":"3443c4b8","providers(address)":"0787bc27","registerProvider(string,string)":"74ca8971","respondToChunkChallenge(bytes32,uint16,bytes,bytes32[])":"cc9812c6","slashExpiredChallenge(bytes32,uint16,address)":"ce031b90","submitChunkAttestations(bytes32,uint16[])":"f260d1fc","submitCommitment(bytes32,uint32,uint16,uint16,bytes)":"2443748a","verifyChunkProof(bytes32[],bytes32,uint16,bytes)":"d2841641","withdrawStake(uint256)":"25d5971f"},"id":23}