{"abi":[{"type":"constructor","inputs":[{"name":"_owner","type":"address","internalType":"address"},{"name":"_minStake","type":"uint256","internalType":"uint256"}],"stateMutability":"nonpayable"},{"type":"function","name":"CHALLENGE_PENALTY","inputs":[],"outputs":[{"name":"","type":"uint256","internalType":"uint256"}],"stateMutability":"view"},{"type":"function","name":"CHALLENGE_PERIOD","inputs":[],"outputs":[{"name":"","type":"uint32","internalType":"uint32"}],"stateMutability":"view"},{"type":"function","name":"MAX_CHUNKS","inputs":[],"outputs":[{"name":"","type":"uint16","internalType":"uint16"}],"stateMutability":"view"},{"type":"function","name":"MIN_REDUNDANCY_RATIO","inputs":[],"outputs":[{"name":"","type":"uint16","internalType":"uint16"}],"stateMutability":"view"},{"type":"function","name":"SLASH_PENALTY_PERCENTAGE","inputs":[],"outputs":[{"name":"","type":"uint32","internalType":"uint32"}],"stateMutability":"view"},{"type":"function","name":"activeChunkChallenges","inputs":[{"name":"","type":"bytes32","internalType":"bytes32"},{"name":"","type":"uint16","internalType":"uint16"},{"name":"","type":"address","internalType":"address"}],"outputs":[{"name":"challengeId","type":"bytes32","internalType":"bytes32"},{"name":"challenger","type":"address","internalType":"address"},{"name":"issuedAt","type":"uint32","internalType":"uint32"}],"stateMutability":"view"},{"type":"function","name":"addStake","inputs":[{"name":"amount","type":"uint256","internalType":"uint256"}],"outputs":[],"stateMutability":"nonpayable"},{"type":"function","name":"availableChunkList","inputs":[{"name":"","type":"bytes32","internalType":"bytes32"},{"name":"","type":"uint256","internalType":"uint256"}],"outputs":[{"name":"","type":"uint16","internalType":"uint16"}],"stateMutability":"view"},{"type":"function","name":"chunkAvailability","inputs":[{"name":"","type":"bytes32","internalType":"bytes32"},{"name":"","type":"uint256","internalType":"uint256"}],"outputs":[{"name":"","type":"uint256","internalType":"uint256"}],"stateMutability":"view"},{"type":"function","name":"chunkOwners","inputs":[{"name":"","type":"bytes32","internalType":"bytes32"},{"name":"","type":"uint16","internalType":"uint16"}],"outputs":[{"name":"","type":"address","internalType":"address"}],"stateMutability":"view"},{"type":"function","name":"commitmentExists","inputs":[{"name":"commitment","type":"bytes32","internalType":"bytes32"}],"outputs":[{"name":"","type":"bool","internalType":"bool"}],"stateMutability":"view"},{"type":"function","name":"commitmentList","inputs":[{"name":"","type":"uint256","internalType":"uint256"}],"outputs":[{"name":"","type":"bytes32","internalType":"bytes32"}],"stateMutability":"view"},{"type":"function","name":"commitments","inputs":[{"name":"","type":"bytes32","internalType":"bytes32"}],"outputs":[{"name":"size","type":"uint32","internalType":"uint32"},{"name":"timestamp","type":"uint32","internalType":"uint32"},{"name":"totalChunks","type":"uint16","internalType":"uint16"},{"name":"requiredChunks","type":"uint16","internalType":"uint16"},{"name":"availableChunks","type":"uint16","internalType":"uint16"},{"name":"kzgCommitment","type":"bytes","internalType":"bytes"}],"stateMutability":"view"},{"type":"function","name":"getAvailableChunks","inputs":[{"name":"commitment","type":"bytes32","internalType":"bytes32"}],"outputs":[{"name":"","type":"uint16[]","internalType":"uint16[]"}],"stateMutability":"view"},{"type":"function","name":"getChunkChallenge","inputs":[{"name":"commitment","type":"bytes32","internalType":"bytes32"},{"name":"chunkId","type":"uint16","internalType":"uint16"},{"name":"provider","type":"address","internalType":"address"}],"outputs":[{"name":"","type":"tuple","internalType":"struct Poda.ChallengeInfo","components":[{"name":"challenge","type":"tuple","internalType":"struct Poda.ChunkChallenge","components":[{"name":"challengeId","type":"bytes32","internalType":"bytes32"},{"name":"challenger","type":"address","internalType":"address"},{"name":"issuedAt","type":"uint32","internalType":"uint32"}]},{"name":"commitment","type":"bytes32","internalType":"bytes32"},{"name":"chunkId","type":"uint16","internalType":"uint16"}]}],"stateMutability":"view"},{"type":"function","name":"getChunkOwner","inputs":[{"name":"commitment","type":"bytes32","internalType":"bytes32"},{"name":"chunkId","type":"uint16","internalType":"uint16"}],"outputs":[{"name":"","type":"address","internalType":"address"}],"stateMutability":"view"},{"type":"function","name":"getCommitmentChunkMap","inputs":[{"name":"commitment","type":"bytes32","internalType":"bytes32"}],"outputs":[{"name":"_providers","type":"address[]","internalType":"address[]"},{"name":"_chunks","type":"uint16[][]","internalType":"uint16[][]"}],"stateMutability":"view"},{"type":"function","name":"getCommitmentInfo","inputs":[{"name":"commitment","type":"bytes32","internalType":"bytes32"}],"outputs":[{"name":"","type":"tuple","internalType":"struct Poda.Commitment","components":[{"name":"size","type":"uint32","internalType":"uint32"},{"name":"timestamp","type":"uint32","internalType":"uint32"},{"name":"totalChunks","type":"uint16","internalType":"uint16"},{"name":"requiredChunks","type":"uint16","internalType":"uint16"},{"name":"availableChunks","type":"uint16","internalType":"uint16"},{"name":"kzgCommitment","type":"bytes","internalType":"bytes"}]},{"name":"isRecoverable","type":"bool","internalType":"bool"}],"stateMutability":"view"},{"type":"function","name":"getCommitmentList","inputs":[],"outputs":[{"name":"","type":"bytes32[]","internalType":"bytes32[]"}],"stateMutability":"view"},{"type":"function","name":"getMultipleCommitmentStatus","inputs":[{"name":"cmList","type":"bytes32[]","internalType":"bytes32[]"}],"outputs":[{"name":"","type":"bool[]","internalType":"bool[]"}],"stateMutability":"view"},{"type":"function","name":"getProviderActiveChallenges","inputs":[{"name":"provider","type":"address","internalType":"address"}],"outputs":[{"name":"","type":"tuple[]","internalType":"struct Poda.ChallengeInfo[]","components":[{"name":"challenge","type":"tuple","internalType":"struct Poda.ChunkChallenge","components":[{"name":"challengeId","type":"bytes32","internalType":"bytes32"},{"name":"challenger","type":"address","internalType":"address"},{"name":"issuedAt","type":"uint32","internalType":"uint32"}]},{"name":"commitment","type":"bytes32","internalType":"bytes32"},{"name":"chunkId","type":"uint16","internalType":"uint16"}]}],"stateMutability":"view"},{"type":"function","name":"getProviderChunks","inputs":[{"name":"commitment","type":"bytes32","internalType":"bytes32"},{"name":"provider","type":"address","internalType":"address"}],"outputs":[{"name":"","type":"uint16[]","internalType":"uint16[]"}],"stateMutability":"view"},{"type":"function","name":"getProviderExpiredChallenges","inputs":[{"name":"provider","type":"address","internalType":"address"}],"outputs":[{"name":"","type":"tuple[]","internalType":"struct Poda.ChallengeInfo[]","components":[{"name":"challenge","type":"tuple","internalType":"struct Poda.ChunkChallenge","components":[{"name":"challengeId","type":"bytes32","internalType":"bytes32"},{"name":"challenger","type":"address","internalType":"address"},{"name":"issuedAt","type":"uint32","internalType":"uint32"}]},{"name":"commitment","type":"bytes32","internalType":"bytes32"},{"name":"chunkId","type":"uint16","internalType":"uint16"}]}],"stateMutability":"view"},{"type":"function","name":"getProviderInfo","inputs":[{"name":"provider","type":"address","internalType":"address"}],"outputs":[{"name":"","type":"tuple","internalType":"struct Poda.ProviderInfo","components":[{"name":"name","type":"string","internalType":"string"},{"name":"addr","type":"address","internalType":"address"},{"name":"url","type":"string","internalType":"string"},{"name":"registeredAt","type":"uint32","internalType":"uint32"},{"name":"challengeCount","type":"uint32","internalType":"uint32"},{"name":"challengeSuccessCount","type":"uint32","internalType":"uint32"},{"name":"active","type":"bool","internalType":"bool"},{"name":"stakedAmount","type":"uint256","internalType":"uint256"}]}],"stateMutability":"view"},{"type":"function","name":"getProviders","inputs":[{"name":"eligible","type":"bool","internalType":"bool"}],"outputs":[{"name":"","type":"tuple[]","internalType":"struct Poda.ProviderInfo[]","components":[{"name":"name","type":"string","internalType":"string"},{"name":"addr","type":"address","internalType":"address"},{"name":"url","type":"string","internalType":"string"},{"name":"registeredAt","type":"uint32","internalType":"uint32"},{"name":"challengeCount","type":"uint32","internalType":"uint32"},{"name":"challengeSuccessCount","type":"uint32","internalType":"uint32"},{"name":"active","type":"bool","internalType":"bool"},{"name":"stakedAmount","type":"uint256","internalType":"uint256"}]}],"stateMutability":"view"},{"type":"function","name":"getStorageEfficiency","inputs":[{"name":"commitment","type":"bytes32","internalType":"bytes32"}],"outputs":[{"name":"originalSize","type":"uint256","internalType":"uint256"},{"name":"totalStoredSize","type":"uint256","internalType":"uint256"},{"name":"redundancyRatio","type":"uint256","internalType":"uint256"}],"stateMutability":"view"},{"type":"function","name":"isChallengeExpired","inputs":[{"name":"commitment","type":"bytes32","internalType":"bytes32"},{"name":"chunkId","type":"uint16","internalType":"uint16"},{"name":"provider","type":"address","internalType":"address"}],"outputs":[{"name":"expired","type":"bool","internalType":"bool"}],"stateMutability":"view"},{"type":"function","name":"isChunkAvailable","inputs":[{"name":"commitment","type":"bytes32","internalType":"bytes32"},{"name":"chunkId","type":"uint16","internalType":"uint16"}],"outputs":[{"name":"","type":"bool","internalType":"bool"}],"stateMutability":"view"},{"type":"function","name":"isCommitmentRecoverable","inputs":[{"name":"commitment","type":"bytes32","internalType":"bytes32"}],"outputs":[{"name":"","type":"bool","internalType":"bool"}],"stateMutability":"view"},{"type":"function","name":"issueChunkChallenge","inputs":[{"name":"commitment","type":"bytes32","internalType":"bytes32"},{"name":"chunkId","type":"uint16","internalType":"uint16"},{"name":"provider","type":"address","internalType":"address"}],"outputs":[{"name":"challengeId","type":"bytes32","internalType":"bytes32"}],"stateMutability":"nonpayable"},{"type":"function","name":"minStake","inputs":[],"outputs":[{"name":"","type":"uint256","internalType":"uint256"}],"stateMutability":"view"},{"type":"function","name":"owner","inputs":[],"outputs":[{"name":"","type":"address","internalType":"address"}],"stateMutability":"view"},{"type":"function","name":"providerChunks","inputs":[{"name":"","type":"bytes32","internalType":"bytes32"},{"name":"","type":"address","internalType":"address"},{"name":"","type":"uint256","internalType":"uint256"}],"outputs":[{"name":"","type":"uint16","internalType":"uint16"}],"stateMutability":"view"},{"type":"function","name":"providerList","inputs":[{"name":"","type":"uint256","internalType":"uint256"}],"outputs":[{"name":"","type":"address","internalType":"address"}],"stateMutability":"view"},{"type":"function","name":"providerNames","inputs":[{"name":"","type":"address","internalType":"address"}],"outputs":[{"name":"","type":"string","internalType":"string"}],"stateMutability":"view"},{"type":"function","name":"providerUrls","inputs":[{"name":"","type":"address","internalType":"address"}],"outputs":[{"name":"","type":"string","internalType":"string"}],"stateMutability":"view"},{"type":"function","name":"providers","inputs":[{"name":"","type":"address","internalType":"address"}],"outputs":[{"name":"registeredAt","type":"uint32","internalType":"uint32"},{"name":"challengeCount","type":"uint32","internalType":"uint32"},{"name":"challengeSuccessCount","type":"uint32","internalType":"uint32"},{"name":"active","type":"bool","internalType":"bool"},{"name":"stakedAmount","type":"uint256","internalType":"uint256"}],"stateMutability":"view"},{"type":"function","name":"registerProvider","inputs":[{"name":"name","type":"string","internalType":"string"},{"name":"url","type":"string","internalType":"string"}],"outputs":[],"stateMutability":"payable"},{"type":"function","name":"respondToChunkChallenge","inputs":[{"name":"commitment","type":"bytes32","internalType":"bytes32"},{"name":"chunkId","type":"uint16","internalType":"uint16"},{"name":"chunkData","type":"bytes","internalType":"bytes"},{"name":"proof","type":"bytes32[]","internalType":"bytes32[]"}],"outputs":[],"stateMutability":"nonpayable"},{"type":"function","name":"slashExpiredChallenge","inputs":[{"name":"commitment","type":"bytes32","internalType":"bytes32"},{"name":"chunkId","type":"uint16","internalType":"uint16"},{"name":"provider","type":"address","internalType":"address"}],"outputs":[],"stateMutability":"nonpayable"},{"type":"function","name":"submitChunkAttestations","inputs":[{"name":"commitment","type":"bytes32","internalType":"bytes32"},{"name":"chunkIds","type":"uint16[]","internalType":"uint16[]"}],"outputs":[],"stateMutability":"nonpayable"},{"type":"function","name":"submitCommitment","inputs":[{"name":"commitment","type":"bytes32","internalType":"bytes32"},{"name":"size","type":"uint32","internalType":"uint32"},{"name":"totalChunks","type":"uint16","internalType":"uint16"},{"name":"requiredChunks","type":"uint16","internalType":"uint16"},{"name":"kzgCommitment","type":"bytes","internalType":"bytes"}],"outputs":[],"stateMutability":"nonpayable"},{"type":"function","name":"verifyChunkProof","inputs":[{"name":"proof","type":"bytes32[]","internalType":"bytes32[]"},{"name":"root","type":"bytes32","internalType":"bytes32"},{"name":"chunkIndex","type":"uint16","internalType":"uint16"},{"name":"chunkData","type":"bytes","internalType":"bytes"}],"outputs":[{"name":"","type":"bool","internalType":"bool"}],"stateMutability":"pure"},{"type":"function","name":"withdrawStake","inputs":[{"name":"amount","type":"uint256","internalType":"uint256"}],"outputs":[],"stateMutability":"nonpayable"},{"type":"event","name":"ChunkAttestation","inputs":[{"name":"commitment","type":"bytes32","indexed":true,"internalType":"bytes32"},{"name":"provider","type":"address","indexed":true,"internalType":"address"},{"name":"chunkId","type":"uint16","indexed":false,"internalType":"uint16"}],"anonymous":false},{"type":"event","name":"ChunkChallengeIssued","inputs":[{"name":"challengeId","type":"bytes32","indexed":true,"internalType":"bytes32"},{"name":"commitment","type":"bytes32","indexed":true,"internalType":"bytes32"},{"name":"chunkId","type":"uint16","indexed":false,"internalType":"uint16"},{"name":"provider","type":"address","indexed":true,"internalType":"address"}],"anonymous":false},{"type":"event","name":"CommitmentCreated","inputs":[{"name":"commitment","type":"bytes32","indexed":true,"internalType":"bytes32"},{"name":"size","type":"uint32","indexed":false,"internalType":"uint32"},{"name":"totalChunks","type":"uint16","indexed":false,"internalType":"uint16"},{"name":"requiredChunks","type":"uint16","indexed":false,"internalType":"uint16"}],"anonymous":false},{"type":"event","name":"CommitmentReady","inputs":[{"name":"commitment","type":"bytes32","indexed":true,"internalType":"bytes32"},{"name":"availableChunks","type":"uint16","indexed":false,"internalType":"uint16"}],"anonymous":false}],"bytecode":{"object":"0x60806040523480156200001157600080fd5b50604051620044283803806200442883398101604081905262000034916200005e565b600080546001600160a01b0319166001600160a01b039390931692909217909155600c556200009a565b600080604083850312156200007257600080fd5b82516001600160a01b03811681146200008a57600080fd5b6020939093015192949293505050565b61437e80620000aa6000396000f3fe6080604052600436106102675760003560e01c80638630786511610144578063ce031b90116100b6578063e946f22f1161007a578063e946f22f146108e7578063eb4f16b514610928578063ed1e8dd314610948578063f02b04b714610968578063f260d1fc14610988578063f3273859146109a857600080fd5b8063ce031b9014610845578063d284164114610865578063d78cfae814610885578063e19bb965146108a5578063e6227185146108d257600080fd5b8063ac16c98511610108578063ac16c98514610778578063b7ecbeba14610798578063c26e79de146107ad578063c3a079ed146107cd578063ca1de951146107f8578063cc9812c61461082557600080fd5b806386307865146106ae57806388f299dd146106ea5780638da5cb5b1461070a578063a08bd4371461072a578063a20bcb331461075857600080fd5b80633cfe0c22116101dd5780635ed25346116101a15780635ed25346146105c55780636031610f146105ee5780636cb5c6071461061c57806374ca89711461063c5780637583902f1461064f578063839df9451461067c57600080fd5b80633cfe0c22146104955780633f521c881461051b5780634b7f2adb146105485780634bde3c1014610575578063540b8e2d146105a557600080fd5b806325d5971f1161022f57806325d5971f146103c35780632bd771a7146103e357806333bffb83146104105780633443c4b814610432578063375b3c0a1461045f578063390bfd3c1461047557600080fd5b80630787bc271461026c5780630fac8ac0146103075780631fca47261461033f5780632443748a1461038557806325585a4c146103a7575b600080fd5b34801561027857600080fd5b506102ca61028736600461360c565b6004602052600090815260409020805460019091015463ffffffff80831692600160201b8104821692600160401b820490921691600160601b90910460ff169085565b6040805163ffffffff96871681529486166020860152929094169183019190915215156060820152608081019190915260a0015b60405180910390f35b34801561031357600080fd5b50610327610322366004613639565b6109e3565b6040516001600160a01b0390911681526020016102fe565b34801561034b57600080fd5b5061037761035a366004613665565b600a60209081526000928352604080842090915290825290205481565b6040519081526020016102fe565b34801561039157600080fd5b506103a56103a03660046136cf565b610a11565b005b3480156103b357600080fd5b5061037767016345785d8a000081565b3480156103cf57600080fd5b506103a56103de366004613758565b610e1f565b3480156103ef57600080fd5b506104036103fe3660046137b5565b610fc7565b6040516102fe91906137f6565b34801561041c57600080fd5b5061042561119a565b6040516102fe919061383c565b34801561043e57600080fd5b5061045261044d36600461360c565b6111f2565b6040516102fe91906138ba565b34801561046b57600080fd5b50610377600c5481565b34801561048157600080fd5b50610327610490366004613758565b61128c565b3480156104a157600080fd5b506104f26104b03660046138cd565b600b602090815260009384526040808520825292845282842090528252902080546001909101546001600160a01b03811690600160a01b900463ffffffff1683565b604080519384526001600160a01b03909216602084015263ffffffff16908201526060016102fe565b34801561052757600080fd5b5061053b610536366004613758565b6112b6565b6040516102fe9190613949565b34801561055457600080fd5b506105686105633660046138cd565b611340565b6040516102fe919061399b565b34801561058157600080fd5b50610595610590366004613639565b611433565b60405190151581526020016102fe565b3480156105b157600080fd5b5061053b6105c03660046139a9565b611488565b3480156105d157600080fd5b506105db61040081565b60405161ffff90911681526020016102fe565b3480156105fa57600080fd5b5061060e610609366004613758565b611524565b6040516102fe9291906139cc565b34801561062857600080fd5b506105956106373660046138cd565b611772565b6103a561064a366004613a6d565b611805565b34801561065b57600080fd5b5061066f61066a36600461360c565b611a68565b6040516102fe9190613b85565b34801561068857600080fd5b5061069c610697366004613758565b611c8a565b6040516102fe96959493929190613b98565b3480156106ba57600080fd5b506105956106c9366004613758565b600090815260026020526040902054600160201b900463ffffffff16151590565b3480156106f657600080fd5b5061045261070536600461360c565b611d64565b34801561071657600080fd5b50600054610327906001600160a01b031681565b34801561073657600080fd5b5061074a610745366004613758565b611d7d565b6040516102fe929190613be7565b34801561076457600080fd5b50610595610773366004613758565b611ed1565b34801561078457600080fd5b506105db610793366004613665565b612002565b3480156107a457600080fd5b506105db609681565b3480156107b957600080fd5b506103776107c83660046138cd565b612049565b3480156107d957600080fd5b506107e3610e1081565b60405163ffffffff90911681526020016102fe565b34801561080457600080fd5b5061081861081336600461360c565b6122ed565b6040516102fe9190613c5e565b34801561083157600080fd5b506103a5610840366004613ca0565b6122fb565b34801561085157600080fd5b506103a56108603660046138cd565b612521565b34801561087157600080fd5b50610595610880366004613d17565b6126a3565b34801561089157600080fd5b506103776108a0366004613758565b61273d565b3480156108b157600080fd5b506108c56108c0366004613d91565b61275e565b6040516102fe9190613db3565b3480156108de57600080fd5b506107e3600a81565b3480156108f357600080fd5b50610327610902366004613639565b60076020908152600092835260408084209091529082529020546001600160a01b031681565b34801561093457600080fd5b506103a5610943366004613758565b6128c2565b34801561095457600080fd5b5061081861096336600461360c565b612972565b34801561097457600080fd5b506105db610983366004613e17565b612980565b34801561099457600080fd5b506103a56109a3366004613e4c565b6129d4565b3480156109b457600080fd5b506109c86109c3366004613758565b612d95565b604080519384526020840192909252908201526060016102fe565b600082815260076020908152604080832061ffff851684529091529020546001600160a01b03165b92915050565b85610a585760405162461bcd60e51b8152602060048201526012602482015271125b9d985b1a590818dbdb5b5a5d1b595b9d60721b60448201526064015b60405180910390fd5b600086815260026020526040902054600160201b900463ffffffff1615610ac15760405162461bcd60e51b815260206004820152601960248201527f436f6d6d69746d656e7420616c726561647920657869737473000000000000006044820152606401610a4f565b60008563ffffffff1611610b175760405162461bcd60e51b815260206004820152601b60248201527f53697a65206d7573742062652067726561746572207468616e203000000000006044820152606401610a4f565b8261ffff168461ffff1611610b6e5760405162461bcd60e51b815260206004820152601f60248201527f496e76616c696420526565642d536f6c6f6d6f6e20706172616d6574657273006044820152606401610a4f565b61040061ffff85161115610bb65760405162461bcd60e51b815260206004820152600f60248201526e546f6f206d616e79206368756e6b7360881b6044820152606401610a4f565b60308114610c065760405162461bcd60e51b815260206004820152601d60248201527f496e76616c6964204b5a4720636f6d6d69746d656e74206c656e6774680000006044820152606401610a4f565b609683610c14866064613ead565b610c1e9190613ee9565b61ffff161015610c705760405162461bcd60e51b815260206004820152601760248201527f496e73756666696369656e7420726564756e64616e63790000000000000000006044820152606401610a4f565b60018054808201825560009182527fb10e2d527612073b26eecdfd717e6a320cf44b4afac2b0732d9fcbe2b7fa0cf6018790556040805160c08101825263ffffffff8089168252421660208281019190915261ffff808916838501528716606083015260808201939093528151601f85018490048402810184019092528382529160a08301919085908590819084018382808284376000920182905250939094525050888152600260209081526040918290208451815492860151938601516060870151608088015163ffffffff93841667ffffffffffffffff1990961695909517600160201b9390961692909202949094176bffffffff00000000000000001916600160401b61ffff9586160261ffff60501b191617600160501b918516919091021761ffff60601b1916600160601b939092169290920217815560a08301519091506001820190610dc39082613fa7565b50506040805163ffffffff8816815261ffff80881660208301528616918101919091528791507f289ba6f7c4d5fb74fd9f565a38044a33e56c2ab5796cd527e53099130bf52a8c906060015b60405180910390a2505050505050565b33600090815260046020526040902054600160601b900460ff16610e555760405162461bcd60e51b8152600401610a4f90614066565b60008111610ea55760405162461bcd60e51b815260206004820152601d60248201527f416d6f756e74206d7573742062652067726561746572207468616e20300000006044820152606401610a4f565b33600090815260046020526040902060010154811115610efc5760405162461bcd60e51b8152602060048201526012602482015271496e73756666696369656e74207374616b6560701b6044820152606401610a4f565b33600090815260046020526040902054600160201b900463ffffffff16610f6f5760405162461bcd60e51b815260206004820152602160248201527f50726f766964657220686173206e6f20616374697665206368616c6c656e67656044820152607360f81b6064820152608401610a4f565b3360009081526004602052604081206001018054839290610f919084906140a9565b9091555050604051339082156108fc029083906000818181858888f19350505050158015610fc3573d6000803e3d6000fd5b5050565b6060816000816001600160401b03811115610fe457610fe4613f0a565b60405190808252806020026020018201604052801561100d578160200160208202803683370190505b50905060005b8281101561119157600060026000888885818110611033576110336140bc565b60209081029290920135835250818101929092526040908101600020815160c081018352815463ffffffff8082168352600160201b8204169482019490945261ffff600160401b8504811693820193909352600160501b840483166060820152600160601b909304909116608083015260018101805460a0840191906110b890613f20565b80601f01602080910402602001604051908101604052809291908181526020018280546110e490613f20565b80156111315780601f1061110657610100808354040283529160200191611131565b820191906000526020600020905b81548152906001019060200180831161111457829003601f168201915b50505050508152505090506000816020015163ffffffff161180156111665750806060015161ffff16816080015161ffff1610155b838381518110611178576111786140bc565b9115156020928302919091019091015250600101611013565b50949350505050565b606060018054806020026020016040519081016040528092919081815260200182805480156111e857602002820191906000526020600020905b8154815260200190600101908083116111d4575b5050505050905090565b6006602052600090815260409020805461120b90613f20565b80601f016020809104026020016040519081016040528092919081815260200182805461123790613f20565b80156112845780601f1061125957610100808354040283529160200191611284565b820191906000526020600020905b81548152906001019060200180831161126757829003601f168201915b505050505081565b6003818154811061129c57600080fd5b6000918252602090912001546001600160a01b0316905081565b60008181526009602090815260409182902080548351818402810184019094528084526060939283018282801561133457602002820191906000526020600020906000905b82829054906101000a900461ffff1661ffff16815260200190600201906020826001010492830192600103820291508084116112fb5790505b50505050509050919050565b6040805160c0810182526000606082018181526080830182905260a0830182905282526020808301829052828401829052868252600b815283822061ffff8716835281528382206001600160a01b0386168352905291909120546113b65760405162461bcd60e51b8152600401610a4f906140d2565b50604080516000858152600b602090815283822061ffff87168084529082528483206001600160a01b0387811685529083529285902060c0850186528054606086019081526001909101549384166080860152600160a01b90930463ffffffff1660a08501529183528201869052918101919091525b9392505050565b60008061144261010084613ee9565b61ffff1690506000611456610100856140ff565b6000958652600a602090815260408088209488529390529190942054600161ffff9092169190911b1615159392505050565b60008281526008602090815260408083206001600160a01b038516845282529182902080548351818402810184019094528084526060939283018282801561151757602002820191906000526020600020906000905b82829054906101000a900461ffff1661ffff16815260200190600201906020826001010492830192600103820291508084116114de5790505b5050505050905092915050565b6060806000805b60035481101561159b576000858152600860205260408120600380548391908590811061155a5761155a6140bc565b60009182526020808320909101546001600160a01b031683528201929092526040019020541115611593578161158f81614120565b9250505b60010161152b565b50806001600160401b038111156115b4576115b4613f0a565b6040519080825280602002602001820160405280156115dd578160200160208202803683370190505b509250806001600160401b038111156115f8576115f8613f0a565b60405190808252806020026020018201604052801561162b57816020015b60608152602001906001900390816116165790505b5091506000805b60035481101561176a57600060038281548110611651576116516140bc565b60009182526020808320909101548983526008825260408084206001600160a01b03909216808552918352808420805482518186028101860190935280835292955090929091908301828280156116ef57602002820191906000526020600020906000905b82829054906101000a900461ffff1661ffff16815260200190600201906020826001010492830192600103820291508084116116b65790505b505050505090506000815111156117605781878581518110611713576117136140bc565b60200260200101906001600160a01b031690816001600160a01b03168152505080868581518110611746576117466140bc565b6020026020010181905250838061175c90614120565b9450505b5050600101611632565b505050915091565b6000838152600b6020908152604080832061ffff8616845282528083206001600160a01b0385811685529083528184208251606081018452815480825260019092015492831694810194909452600160a01b90910463ffffffff16918301919091526117e257600091505061142c565b610e1081604001516117f49190614139565b63ffffffff16421195945050505050565b3360009081526004602052604090205463ffffffff16156118685760405162461bcd60e51b815260206004820152601b60248201527f50726f766964657220616c7265616479207265676973746572656400000000006044820152606401610a4f565b8215801590611878575060208311155b6118ba5760405162461bcd60e51b8152602060048201526013602482015272092dcecc2d8d2c840dcc2daca40d8cadccee8d606b1b6044820152606401610a4f565b80158015906118ca575060808111155b61190b5760405162461bcd60e51b8152602060048201526012602482015271092dcecc2d8d2c840aaa49840d8cadccee8d60731b6044820152606401610a4f565b600c543410156119525760405162461bcd60e51b8152602060048201526012602482015271496e73756666696369656e74207374616b6560701b6044820152606401610a4f565b6003805460018181019092557fc2575a0e9e593c00f959f8c92f12db2869c3395a3b0502d05e2516446f71f85b0180546001600160a01b031916339081179091556040805160a08101825263ffffffff42811682526000602083810182815284860183815260608601898152346080880190815298855260048452878520965187549351925191511515600160601b0260ff60601b19928816600160401b02929092166cffffffffff000000000000000019938816600160201b0267ffffffffffffffff19909516919097161792909217169390931792909217835593519190940155600590925220611a46848683614156565b50336000908152600660205260409020611a61828483614156565b5050505050565b611a706135ac565b6001600160a01b0382166000818152600460209081526040808320815160a081018352815463ffffffff8082168352600160201b8204811683870152600160401b82041682850152600160601b900460ff1615156060820152600190910154608082015281516101008101835294845260059092529091208054919291829190611af990613f20565b80601f0160208091040260200160405190810160405280929190818152602001828054611b2590613f20565b8015611b725780601f10611b4757610100808354040283529160200191611b72565b820191906000526020600020905b815481529060010190602001808311611b5557829003601f168201915b50505050508152602001846001600160a01b0316815260200160066000866001600160a01b03166001600160a01b031681526020019081526020016000208054611bbb90613f20565b80601f0160208091040260200160405190810160405280929190818152602001828054611be790613f20565b8015611c345780601f10611c0957610100808354040283529160200191611c34565b820191906000526020600020905b815481529060010190602001808311611c1757829003601f168201915b50505050508152602001826000015163ffffffff168152602001826020015163ffffffff168152602001826040015163ffffffff1681526020018260600151151581526020018260800151815250915050919050565b6002602052600090815260409020805460018201805463ffffffff80841694600160201b85049091169361ffff600160401b8204811694600160501b8304821694600160601b9093049091169291611ce190613f20565b80601f0160208091040260200160405190810160405280929190818152602001828054611d0d90613f20565b8015611d5a5780601f10611d2f57610100808354040283529160200191611d5a565b820191906000526020600020905b815481529060010190602001808311611d3d57829003601f168201915b5050505050905086565b6005602052600090815260409020805461120b90613f20565b6040805160c0810182526000808252602082018190529181018290526060808201839052608082019290925260a08101919091526000828152600260209081526040808320815160c081018352815463ffffffff8082168352600160201b8204169482019490945261ffff600160401b8504811693820193909352600160501b840483166060820152600160601b90930490911660808301526001810180548493929160a0840191611e2e90613f20565b80601f0160208091040260200160405190810160405280929190818152602001828054611e5a90613f20565b8015611ea75780601f10611e7c57610100808354040283529160200191611ea7565b820191906000526020600020905b815481529060010190602001808311611e8a57829003601f168201915b505050505081525050905080816060015161ffff16826080015161ffff1610159250925050915091565b6000818152600260209081526040808320815160c081018352815463ffffffff8082168352600160201b8204169482019490945261ffff600160401b8504811693820193909352600160501b840483166060820152600160601b90930490911660808301526001810180548493929160a0840191611f4e90613f20565b80601f0160208091040260200160405190810160405280929190818152602001828054611f7a90613f20565b8015611fc75780601f10611f9c57610100808354040283529160200191611fc7565b820191906000526020600020905b815481529060010190602001808311611faa57829003601f168201915b50505050508152505090506000816020015163ffffffff1611801561142c5750806060015161ffff16816080015161ffff1610159392505050565b6009602052816000526040600020818154811061201e57600080fd5b9060005260206000209060109182820401919006600202915091509054906101000a900461ffff1681565b6000838152600260205260408120548490600160201b900463ffffffff166120835760405162461bcd60e51b8152600401610a4f90614215565b600085815260076020908152604080832061ffff881684529091529020546001600160a01b038481169116146120fb5760405162461bcd60e51b815260206004820152601f60248201527f50726f766964657220646f65736e2774206f776e2074686973206368756e6b006044820152606401610a4f565b6000858152600b6020908152604080832061ffff8816845282528083206001600160a01b0387168452909152902054156121775760405162461bcd60e51b815260206004820152601860248201527f4368616c6c656e676520616c72656164792061637469766500000000000000006044820152606401610a4f565b60408051602081018790526001600160f01b031960f087901b16918101919091526bffffffffffffffffffffffff19606085811b8216604284015242605684015233901b166076820152608a0160408051601f1981840301815282825280516020918201206060840183528084523384830190815263ffffffff42811686860190815260008c8152600b865286812061ffff8d16825286528681206001600160a01b038c811683529087528782209851895593516001909801805492518416600160a01b026001600160c01b0319909316989094169790971717909155600492839052929093208054939550600160201b90930490911691906122798361424c565b91906101000a81548163ffffffff021916908363ffffffff16021790555050826001600160a01b031685837f9a2190490de3b1f1bf69f982407eaa08bbe2adc554aa80a4ae96f25f74b7e203876040516122dd919061ffff91909116815260200190565b60405180910390a4509392505050565b6060610a0b82612f35612fc4565b33600090815260046020526040902054600160601b900460ff166123315760405162461bcd60e51b8152600401610a4f90614066565b6000868152600b6020908152604080832061ffff891684528252808320338452909152902080546123745760405162461bcd60e51b8152600401610a4f906140d2565b816123b15760405162461bcd60e51b815260206004820152600d60248201526c24b73b30b634b210383937b7b360991b6044820152606401610a4f565b6000878152600b6020908152604080832061ffff8a168452825280832033845290915290206001015442906123f690610e1090600160a01b900463ffffffff16614139565b63ffffffff161161243d5760405162461bcd60e51b815260206004820152601160248201527010da185b1b195b99d948195e1c1a5c9959607a1b6044820152606401610a4f565b61244b8383898989896126a3565b1561249e573360009081526004602052604090208054600160401b900463ffffffff1690600861247a8361424c565b91906101000a81548163ffffffff021916908363ffffffff160217905550506124e0565b604080516060810182528254815260018301546001600160a01b0381166020830152600160a01b900463ffffffff16918101919091526124e0908888336133b3565b50505060009384525050600b6020908152604080842061ffff90931684529181528183203384529052812090815560010180546001600160c01b0319169055565b6000838152600b6020908152604080832061ffff8616845282528083206001600160a01b03851684529091529020805461256d5760405162461bcd60e51b8152600401610a4f906140d2565b600181015461258c90610e1090600160a01b900463ffffffff16614139565b63ffffffff1642116125e05760405162461bcd60e51b815260206004820152601960248201527f4368616c6c656e6765206e6f74206578706972656420796574000000000000006044820152606401610a4f565b604080516060810182528254815260018301546001600160a01b0381166020830152600160a01b900463ffffffff1691810191909152612622908585856133b3565b6000848152600b6020908152604080832061ffff8716845282528083206001600160a01b0386168452909152812090815560010180546001600160c01b0319169055336108fc61267b600a67016345785d8a000061426f565b6040518115909202916000818181858888f19350505050158015611a61573d6000803e3d6000fd5b60008083836040516126b6929190614283565b6040805191829003822061ffff8816602084015290820181905291506000906060016040516020818303038152906040528051906020012090506127308989808060200260200160405190810160405280939291908181526020018383602002808284376000920191909152508b92508591506135279050565b9998505050505050505050565b6001818154811061274d57600080fd5b600091825260209091200154905081565b6003546060906000906001600160401b0381111561277e5761277e613f0a565b6040519080825280602002602001820160405280156127b757816020015b6127a46135ac565b81526020019060019003908161279c5790505b50905060005b6003548110156128bb57838015612861575060046000600383815481106127e6576127e66140bc565b60009182526020808320909101546001600160a01b0316835282019290925260400190205460ff600160601b9091041615806128615750600c546004600060038481548110612837576128376140bc565b60009182526020808320909101546001600160a01b03168352820192909252604001902060010154105b6128b3576128956003828154811061287b5761287b6140bc565b6000918252602090912001546001600160a01b0316611a68565b8282815181106128a7576128a76140bc565b60200260200101819052505b6001016127bd565b5092915050565b33600090815260046020526040902054600160601b900460ff166128f85760405162461bcd60e51b8152600401610a4f90614066565b600081116129485760405162461bcd60e51b815260206004820152601d60248201527f416d6f756e74206d7573742062652067726561746572207468616e20300000006044820152606401610a4f565b336000908152600460205260408120600101805483929061296a908490614293565b909155505050565b6060610a0b82611772612fc4565b600860205282600052604060002060205281600052604060002081815481106129a857600080fd5b906000526020600020906010918282040191900660020292509250509054906101000a900461ffff1681565b33600090815260046020526040902054600160601b900460ff16612a0a5760405162461bcd60e51b8152600401610a4f90614066565b6000838152600260205260409020548390600160201b900463ffffffff16612a445760405162461bcd60e51b8152600401610a4f90614215565b8115801590612a54575060328211155b612a965760405162461bcd60e51b8152602060048201526013602482015272125b9d985b1a590818da1d5b9ac818dbdd5b9d606a1b6044820152606401610a4f565b600084815260026020526040812090805b84811015612cf6576000868683818110612ac357612ac36140bc565b9050602002016020810190612ad891906142a6565b845490915061ffff600160401b909104811690821610612b2d5760405162461bcd60e51b815260206004820152601060248201526f125b9d985b1a590818da1d5b9ac8125160821b6044820152606401610a4f565b600088815260076020908152604080832061ffff851684529091529020546001600160a01b031615612b9a5760405162461bcd60e51b815260206004820152601660248201527510da1d5b9ac8185b1c9958591e48185d1d195cdd195960521b6044820152606401610a4f565b600088815260076020908152604080832061ffff80861680865291845282852080546001600160a01b031916339081179091558d86526008855283862090865284529184208054600181018255908552928420601084040180546002600f9095169490940261010090810a928302929093021990931617909155612c1e9083613ee9565b61ffff1690506000612c32610100846140ff565b60008b8152600a6020908152604080832086845282528083208054600161ffff96871681811b9092179092558f8552600984529184208054918201815584529190922060108204018054600f9092166002026101000a808502199092169387169190910292909217909155905084612ca9816142c1565b60405161ffff861681529096503391508b907f0d3612a65375aaed616b21fb3d1bfc5fcb7db37205b651f492456bab363a3d199060200160405180910390a3836001019350505050612aa7565b50815481908390600c90612d16908490600160601b900461ffff166142d8565b82546101009290920a61ffff8181021990931691831602179091558354600160501b81048216600160601b909104909116109050612d8d578154604051600160601b90910461ffff16815286907fec945f40a39d91f4317f852f732ad018288e363b2edfdf832749208505fcf46a90602001610e0f565b505050505050565b6000818152600260209081526040808320815160c081018352815463ffffffff8082168352600160201b8204169482019490945261ffff600160401b8504811693820193909352600160501b840483166060820152600160601b90930490911660808301526001810180548493849384939192909160a0840191612e1890613f20565b80601f0160208091040260200160405190810160405280929190818152602001828054612e4490613f20565b8015612e915780601f10612e6657610100808354040283529160200191612e91565b820191906000526020600020905b815481529060010190602001808311612e7457829003601f168201915b50505050508152505090506000816020015163ffffffff1611612ec65760405162461bcd60e51b8152600401610a4f90614215565b806000015163ffffffff169350806060015161ffff16816040015161ffff168260000151612ef491906142f3565b612efe9190614313565b63ffffffff16925080606001518160400151612710612f1d9190613ead565b612f279190613ee9565b61ffff169150509193909250565b6000838152600b6020908152604080832061ffff8616845282528083206001600160a01b0385811685529083528184208251606081018452815480825260019092015492831694810194909452600160a01b90910463ffffffff169183019190915215801590612fbb575042610e108260400151612fb39190614139565b63ffffffff16115b95945050505050565b60606000805b6001548110156130e557600060018281548110612fe957612fe96140bc565b60009182526020808320909101548083526008825260408084206001600160a01b038b16855283528084208054825181860281018601909352808352929550909290919083018282801561308457602002820191906000526020600020906000905b82829054906101000a900461ffff1661ffff168152602001906002019060208260010104928301926001038202915080841161304b5790505b5050505050905060005b81518110156130da576130bf838383815181106130ad576130ad6140bc565b60200260200101518a8a63ffffffff16565b156130d257846130ce81614120565b9550505b60010161308e565b505050600101612fca565b506000816001600160401b0381111561310057613100613f0a565b60405190808252806020026020018201604052801561315f57816020015b6040805160c0810182526000606082018181526080830182905260a083018290528252602080830182905292820152825260001990920191018161311e5790505b5090506000805b6001548110156133a857600060018281548110613185576131856140bc565b60009182526020808320909101548083526008825260408084206001600160a01b038d16855283528084208054825181860281018601909352808352929550909290919083018282801561322057602002820191906000526020600020906000905b82829054906101000a900461ffff1661ffff16815260200190600201906020826001010492830192600103820291508084116131e75790505b5050505050905060005b815181101561339d5761325b83838381518110613249576132496140bc565b60200260200101518c8c63ffffffff16565b15613395576040518060600160405280600b60008681526020019081526020016000206000858581518110613292576132926140bc565b602002602001015161ffff1661ffff16815260200190815260200160002060008d6001600160a01b03166001600160a01b03168152602001908152602001600020604051806060016040529081600082015481526020016001820160009054906101000a90046001600160a01b03166001600160a01b03166001600160a01b031681526020016001820160149054906101000a900463ffffffff1663ffffffff1663ffffffff1681525050815260200184815260200183838151811061335a5761335a6140bc565b602002602001015161ffff1681525086868151811061337b5761337b6140bc565b6020026020010181905250848061339190614120565b9550505b60010161322a565b505050600101613166565b509095945050505050565b83516133d15760405162461bcd60e51b8152600401610a4f906140d2565b600083815260076020908152604080832061ffff808716855290835281842080546001600160a01b0319169055868452600290925290912080549091600160601b9091041681600c6134228361432a565b91906101000a81548161ffff021916908361ffff1602179055505060006101008461344d9190613ee9565b61ffff1690506000613461610100866140ff565b6000878152600a6020908152604080832086845282528083208054600161ffff9690961686811b199091169091556001600160a01b038916845260049092529091209091015490915067016345785d8a0000116134f6576001600160a01b0384166000908152600460205260408120600101805467016345785d8a000092906134eb9084906140a9565b9091555061351e9050565b6001600160a01b0384166000908152600460205260408120805460ff60601b19168155600101555b50505050505050565b600082613534858461353d565b14949350505050565b600081815b84518110156135785761356e82868381518110613561576135616140bc565b6020026020010151613580565b9150600101613542565b509392505050565b600081831061359c57600082815260208490526040902061142c565b5060009182526020526040902090565b6040805161010081018252606080825260006020830181905292820181905281018290526080810182905260a0810182905260c0810182905260e081019190915290565b80356001600160a01b038116811461360757600080fd5b919050565b60006020828403121561361e57600080fd5b61142c826135f0565b803561ffff8116811461360757600080fd5b6000806040838503121561364c57600080fd5b8235915061365c60208401613627565b90509250929050565b6000806040838503121561367857600080fd5b50508035926020909101359150565b60008083601f84011261369957600080fd5b5081356001600160401b038111156136b057600080fd5b6020830191508360208285010111156136c857600080fd5b9250929050565b60008060008060008060a087890312156136e857600080fd5b86359550602087013563ffffffff8116811461370357600080fd5b945061371160408801613627565b935061371f60608801613627565b925060808701356001600160401b0381111561373a57600080fd5b61374689828a01613687565b979a9699509497509295939492505050565b60006020828403121561376a57600080fd5b5035919050565b60008083601f84011261378357600080fd5b5081356001600160401b0381111561379a57600080fd5b6020830191508360208260051b85010111156136c857600080fd5b600080602083850312156137c857600080fd5b82356001600160401b038111156137de57600080fd5b6137ea85828601613771565b90969095509350505050565b6020808252825182820181905260009190848201906040850190845b81811015613830578351151583529284019291840191600101613812565b50909695505050505050565b6020808252825182820181905260009190848201906040850190845b8181101561383057835183529284019291840191600101613858565b6000815180845260005b8181101561389a5760208185018101518683018201520161387e565b506000602082860101526020601f19601f83011685010191505092915050565b60208152600061142c6020830184613874565b6000806000606084860312156138e257600080fd5b833592506138f260208501613627565b9150613900604085016135f0565b90509250925092565b60008151808452602080850194506020840160005b8381101561393e57815161ffff168752958201959082019060010161391e565b509495945050505050565b60208152600061142c6020830184613909565b8051805183526020808201516001600160a01b03168185015260409182015163ffffffff16828501528201516060840152015161ffff16608090910152565b60a08101610a0b828461395c565b600080604083850312156139bc57600080fd5b8235915061365c602084016135f0565b604080825283519082018190526000906020906060840190828701845b82811015613a0e5781516001600160a01b0316845292840192908401906001016139e9565b50505083810382850152845180825282820190600581901b8301840187850160005b83811015613a5e57601f19868403018552613a4c838351613909565b94870194925090860190600101613a30565b50909998505050505050505050565b60008060008060408587031215613a8357600080fd5b84356001600160401b0380821115613a9a57600080fd5b613aa688838901613687565b90965094506020870135915080821115613abf57600080fd5b50613acc87828801613687565b95989497509550505050565b60006101008251818552613aee82860182613874565b91505060018060a01b03602084015116602085015260408301518482036040860152613b1a8282613874565b91505063ffffffff60608401511660608501526080830151613b44608086018263ffffffff169052565b5060a0830151613b5c60a086018263ffffffff169052565b5060c0830151613b7060c086018215159052565b5060e083015160e08501528091505092915050565b60208152600061142c6020830184613ad8565b63ffffffff87811682528616602082015261ffff858116604083015284811660608301528316608082015260c060a08201819052600090613bdb90830184613874565b98975050505050505050565b60408152600063ffffffff80855116604084015280602086015116606084015250604084015161ffff80821660808501528060608701511660a08501528060808701511660c0850152505060a084015160c060e0840152613c4c610100840182613874565b91505082151560208301529392505050565b6020808252825182820181905260009190848201906040850190845b8181101561383057613c8d83855161395c565b9284019260a09290920191600101613c7a565b60008060008060008060808789031215613cb957600080fd5b86359550613cc960208801613627565b945060408701356001600160401b0380821115613ce557600080fd5b613cf18a838b01613687565b90965094506060890135915080821115613d0a57600080fd5b5061374689828a01613771565b60008060008060008060808789031215613d3057600080fd5b86356001600160401b0380821115613d4757600080fd5b613d538a838b01613771565b909850965060208901359550869150613d6e60408a01613627565b94506060890135915080821115613d8457600080fd5b5061374689828a01613687565b600060208284031215613da357600080fd5b8135801515811461142c57600080fd5b600060208083016020845280855180835260408601915060408160051b87010192506020870160005b82811015613e0a57603f19888603018452613df8858351613ad8565b94509285019290850190600101613ddc565b5092979650505050505050565b600080600060608486031215613e2c57600080fd5b83359250613e3c602085016135f0565b9150604084013590509250925092565b600080600060408486031215613e6157600080fd5b8335925060208401356001600160401b03811115613e7e57600080fd5b613e8a86828701613771565b9497909650939450505050565b634e487b7160e01b600052601160045260246000fd5b61ffff818116838216028082169190828114613ecb57613ecb613e97565b505092915050565b634e487b7160e01b600052601260045260246000fd5b600061ffff80841680613efe57613efe613ed3565b92169190910492915050565b634e487b7160e01b600052604160045260246000fd5b600181811c90821680613f3457607f821691505b602082108103613f5457634e487b7160e01b600052602260045260246000fd5b50919050565b601f821115613fa2576000816000526020600020601f850160051c81016020861015613f835750805b601f850160051c820191505b81811015612d8d57828155600101613f8f565b505050565b81516001600160401b03811115613fc057613fc0613f0a565b613fd481613fce8454613f20565b84613f5a565b602080601f8311600181146140095760008415613ff15750858301515b600019600386901b1c1916600185901b178555612d8d565b600085815260208120601f198616915b8281101561403857888601518255948401946001909101908401614019565b50858210156140565787850151600019600388901b60f8161c191681555b5050505050600190811b01905550565b60208082526023908201527f50726f7669646572206e6f742072656769737465726564206f7220696e61637460408201526269766560e81b606082015260800190565b81810381811115610a0b57610a0b613e97565b634e487b7160e01b600052603260045260246000fd5b6020808252601390820152724e6f20616374697665206368616c6c656e676560681b604082015260600190565b600061ffff8084168061411457614114613ed3565b92169190910692915050565b60006001820161413257614132613e97565b5060010190565b63ffffffff8181168382160190808211156128bb576128bb613e97565b6001600160401b0383111561416d5761416d613f0a565b6141818361417b8354613f20565b83613f5a565b6000601f8411600181146141b5576000851561419d5750838201355b600019600387901b1c1916600186901b178355611a61565b600083815260209020601f19861690835b828110156141e657868501358255602094850194600190920191016141c6565b50868210156142035760001960f88860031b161c19848701351681555b505060018560011b0183555050505050565b60208082526019908201527f436f6d6d69746d656e7420646f6573206e6f7420657869737400000000000000604082015260600190565b600063ffffffff80831681810361426557614265613e97565b6001019392505050565b60008261427e5761427e613ed3565b500490565b8183823760009101908152919050565b80820180821115610a0b57610a0b613e97565b6000602082840312156142b857600080fd5b61142c82613627565b600061ffff80831681810361426557614265613e97565b61ffff8181168382160190808211156128bb576128bb613e97565b63ffffffff818116838216028082169190828114613ecb57613ecb613e97565b600063ffffffff80841680613efe57613efe613ed3565b600061ffff82168061433e5761433e613e97565b600019019291505056fea2646970667358221220f122cfeed79e3a6f1e3cb224cdc402136a6985f3981b6bf9de11c4ace6c5491b64736f6c63430008180033","linkReferences":{}},"methodIdentifiers":{"CHALLENGE_PENALTY()":"25585a4c","CHALLENGE_PERIOD()":"c3a079ed","MAX_CHUNKS()":"5ed25346","MIN_REDUNDANCY_RATIO()":"b7ecbeba","SLASH_PENALTY_PERCENTAGE()":"e6227185","activeChunkChallenges(bytes32,uint16,address)":"3cfe0c22","addStake(uint256)":"eb4f16b5","availableChunkList(bytes32,uint256)":"ac16c985","chunkAvailability(bytes32,uint256)":"1fca4726","chunkOwners(bytes32,uint16)":"e946f22f","commitmentExists(bytes32)":"86307865","commitmentList(uint256)":"d78cfae8","commitments(bytes32)":"839df945","getAvailableChunks(bytes32)":"3f521c88","getChunkChallenge(bytes32,uint16,address)":"4b7f2adb","getChunkOwner(bytes32,uint16)":"0fac8ac0","getCommitmentChunkMap(bytes32)":"6031610f","getCommitmentInfo(bytes32)":"a08bd437","getCommitmentList()":"33bffb83","getMultipleCommitmentStatus(bytes32[])":"2bd771a7","getProviderActiveChallenges(address)":"ca1de951","getProviderChunks(bytes32,address)":"540b8e2d","getProviderExpiredChallenges(address)":"ed1e8dd3","getProviderInfo(address)":"7583902f","getProviders(bool)":"e19bb965","getStorageEfficiency(bytes32)":"f3273859","isChallengeExpired(bytes32,uint16,address)":"6cb5c607","isChunkAvailable(bytes32,uint16)":"4bde3c10","isCommitmentRecoverable(bytes32)":"a20bcb33","issueChunkChallenge(bytes32,uint16,address)":"c26e79de","minStake()":"375b3c0a","owner()":"8da5cb5b","providerChunks(bytes32,address,uint256)":"f02b04b7","providerList(uint256)":"390bfd3c","providerNames(address)":"88f299dd","providerUrls(address)":"3443c4b8","providers(address)":"0787bc27","registerProvider(string,string)":"74ca8971","respondToChunkChallenge(bytes32,uint16,bytes,bytes32[])":"cc9812c6","slashExpiredChallenge(bytes32,uint16,address)":"ce031b90","submitChunkAttestations(bytes32,uint16[])":"f260d1fc","submitCommitment(bytes32,uint32,uint16,uint16,bytes)":"2443748a","verifyChunkProof(bytes32[],bytes32,uint16,bytes)":"d2841641","withdrawStake(uint256)":"25d5971f"},"id":23}