{"abi":[{"type":"constructor","inputs":[{"name":"_owner","type":"address","internalType":"address"},{"name":"_minStake","type":"uint256","internalType":"uint256"}],"stateMutability":"nonpayable"},{"type":"function","name":"CHALLENGE_PENALTY","inputs":[],"outputs":[{"name":"","type":"uint256","internalType":"uint256"}],"stateMutability":"view"},{"type":"function","name":"CHALLENGE_PERIOD","inputs":[],"outputs":[{"name":"","type":"uint32","internalType":"uint32"}],"stateMutability":"view"},{"type":"function","name":"MAX_CHUNKS","inputs":[],"outputs":[{"name":"","type":"uint16","internalType":"uint16"}],"stateMutability":"view"},{"type":"function","name":"MIN_REDUNDANCY_RATIO","inputs":[],"outputs":[{"name":"","type":"uint16","internalType":"uint16"}],"stateMutability":"view"},{"type":"function","name":"activeChunkChallenges","inputs":[{"name":"","type":"bytes32","internalType":"bytes32"},{"name":"","type":"uint16","internalType":"uint16"},{"name":"","type":"address","internalType":"address"}],"outputs":[{"name":"","type":"bytes32","internalType":"bytes32"}],"stateMutability":"view"},{"type":"function","name":"addStake","inputs":[{"name":"amount","type":"uint256","internalType":"uint256"}],"outputs":[],"stateMutability":"nonpayable"},{"type":"function","name":"availableChunkList","inputs":[{"name":"","type":"bytes32","internalType":"bytes32"},{"name":"","type":"uint256","internalType":"uint256"}],"outputs":[{"name":"","type":"uint16","internalType":"uint16"}],"stateMutability":"view"},{"type":"function","name":"chunkAvailability","inputs":[{"name":"","type":"bytes32","internalType":"bytes32"},{"name":"","type":"uint256","internalType":"uint256"}],"outputs":[{"name":"","type":"uint256","internalType":"uint256"}],"stateMutability":"view"},{"type":"function","name":"chunkOwners","inputs":[{"name":"","type":"bytes32","internalType":"bytes32"},{"name":"","type":"uint16","internalType":"uint16"}],"outputs":[{"name":"","type":"address","internalType":"address"}],"stateMutability":"view"},{"type":"function","name":"commitmentExists","inputs":[{"name":"commitment","type":"bytes32","internalType":"bytes32"}],"outputs":[{"name":"","type":"bool","internalType":"bool"}],"stateMutability":"view"},{"type":"function","name":"commitments","inputs":[{"name":"","type":"bytes32","internalType":"bytes32"}],"outputs":[{"name":"size","type":"uint32","internalType":"uint32"},{"name":"timestamp","type":"uint32","internalType":"uint32"},{"name":"totalChunks","type":"uint16","internalType":"uint16"},{"name":"requiredChunks","type":"uint16","internalType":"uint16"},{"name":"availableChunks","type":"uint16","internalType":"uint16"}],"stateMutability":"view"},{"type":"function","name":"getAvailableChunks","inputs":[{"name":"commitment","type":"bytes32","internalType":"bytes32"}],"outputs":[{"name":"","type":"uint16[]","internalType":"uint16[]"}],"stateMutability":"view"},{"type":"function","name":"getChunkOwner","inputs":[{"name":"commitment","type":"bytes32","internalType":"bytes32"},{"name":"chunkId","type":"uint16","internalType":"uint16"}],"outputs":[{"name":"","type":"address","internalType":"address"}],"stateMutability":"view"},{"type":"function","name":"getCommitmentInfo","inputs":[{"name":"commitment","type":"bytes32","internalType":"bytes32"}],"outputs":[{"name":"","type":"tuple","internalType":"struct Poda.Commitment","components":[{"name":"size","type":"uint32","internalType":"uint32"},{"name":"timestamp","type":"uint32","internalType":"uint32"},{"name":"totalChunks","type":"uint16","internalType":"uint16"},{"name":"requiredChunks","type":"uint16","internalType":"uint16"},{"name":"availableChunks","type":"uint16","internalType":"uint16"}]},{"name":"isRecoverable","type":"bool","internalType":"bool"}],"stateMutability":"view"},{"type":"function","name":"getMultipleCommitmentStatus","inputs":[{"name":"commitmentList","type":"bytes32[]","internalType":"bytes32[]"}],"outputs":[{"name":"","type":"bool[]","internalType":"bool[]"}],"stateMutability":"view"},{"type":"function","name":"getNetworkStorageStats","inputs":[],"outputs":[{"name":"totalCommitments","type":"uint256","internalType":"uint256"},{"name":"totalOriginalData","type":"uint256","internalType":"uint256"},{"name":"totalStoredData","type":"uint256","internalType":"uint256"},{"name":"averageEfficiency","type":"uint256","internalType":"uint256"}],"stateMutability":"pure"},{"type":"function","name":"getProviderChunks","inputs":[{"name":"commitment","type":"bytes32","internalType":"bytes32"},{"name":"provider","type":"address","internalType":"address"}],"outputs":[{"name":"","type":"uint16[]","internalType":"uint16[]"}],"stateMutability":"view"},{"type":"function","name":"getProviderInfo","inputs":[{"name":"provider","type":"address","internalType":"address"}],"outputs":[{"name":"","type":"tuple","internalType":"struct Poda.ProviderInfo","components":[{"name":"name","type":"string","internalType":"string"},{"name":"addr","type":"address","internalType":"address"},{"name":"url","type":"string","internalType":"string"},{"name":"registeredAt","type":"uint32","internalType":"uint32"},{"name":"challengeCount","type":"uint32","internalType":"uint32"},{"name":"challengeSuccessCount","type":"uint32","internalType":"uint32"},{"name":"active","type":"bool","internalType":"bool"},{"name":"stakedAmount","type":"uint256","internalType":"uint256"}]}],"stateMutability":"view"},{"type":"function","name":"getProviders","inputs":[{"name":"eligible","type":"bool","internalType":"bool"}],"outputs":[{"name":"","type":"tuple[]","internalType":"struct Poda.ProviderInfo[]","components":[{"name":"name","type":"string","internalType":"string"},{"name":"addr","type":"address","internalType":"address"},{"name":"url","type":"string","internalType":"string"},{"name":"registeredAt","type":"uint32","internalType":"uint32"},{"name":"challengeCount","type":"uint32","internalType":"uint32"},{"name":"challengeSuccessCount","type":"uint32","internalType":"uint32"},{"name":"active","type":"bool","internalType":"bool"},{"name":"stakedAmount","type":"uint256","internalType":"uint256"}]}],"stateMutability":"view"},{"type":"function","name":"getStorageEfficiency","inputs":[{"name":"commitment","type":"bytes32","internalType":"bytes32"}],"outputs":[{"name":"originalSize","type":"uint256","internalType":"uint256"},{"name":"totalStoredSize","type":"uint256","internalType":"uint256"},{"name":"redundancyRatio","type":"uint256","internalType":"uint256"}],"stateMutability":"view"},{"type":"function","name":"isChunkAvailable","inputs":[{"name":"commitment","type":"bytes32","internalType":"bytes32"},{"name":"chunkId","type":"uint16","internalType":"uint16"}],"outputs":[{"name":"","type":"bool","internalType":"bool"}],"stateMutability":"view"},{"type":"function","name":"isCommitmentRecoverable","inputs":[{"name":"commitment","type":"bytes32","internalType":"bytes32"}],"outputs":[{"name":"","type":"bool","internalType":"bool"}],"stateMutability":"view"},{"type":"function","name":"issueChunkChallenge","inputs":[{"name":"commitment","type":"bytes32","internalType":"bytes32"},{"name":"chunkId","type":"uint16","internalType":"uint16"},{"name":"provider","type":"address","internalType":"address"}],"outputs":[{"name":"challengeId","type":"bytes32","internalType":"bytes32"}],"stateMutability":"nonpayable"},{"type":"function","name":"minStake","inputs":[],"outputs":[{"name":"","type":"uint256","internalType":"uint256"}],"stateMutability":"view"},{"type":"function","name":"namespaceHashes","inputs":[{"name":"","type":"bytes32","internalType":"bytes32"}],"outputs":[{"name":"","type":"bytes32","internalType":"bytes32"}],"stateMutability":"view"},{"type":"function","name":"owner","inputs":[],"outputs":[{"name":"","type":"address","internalType":"address"}],"stateMutability":"view"},{"type":"function","name":"providerChunks","inputs":[{"name":"","type":"bytes32","internalType":"bytes32"},{"name":"","type":"address","internalType":"address"},{"name":"","type":"uint256","internalType":"uint256"}],"outputs":[{"name":"","type":"uint16","internalType":"uint16"}],"stateMutability":"view"},{"type":"function","name":"providerList","inputs":[{"name":"","type":"uint256","internalType":"uint256"}],"outputs":[{"name":"","type":"address","internalType":"address"}],"stateMutability":"view"},{"type":"function","name":"providerNames","inputs":[{"name":"","type":"address","internalType":"address"}],"outputs":[{"name":"","type":"string","internalType":"string"}],"stateMutability":"view"},{"type":"function","name":"providerUrls","inputs":[{"name":"","type":"address","internalType":"address"}],"outputs":[{"name":"","type":"string","internalType":"string"}],"stateMutability":"view"},{"type":"function","name":"providers","inputs":[{"name":"","type":"address","internalType":"address"}],"outputs":[{"name":"registeredAt","type":"uint32","internalType":"uint32"},{"name":"challengeCount","type":"uint32","internalType":"uint32"},{"name":"challengeSuccessCount","type":"uint32","internalType":"uint32"},{"name":"active","type":"bool","internalType":"bool"},{"name":"stakedAmount","type":"uint256","internalType":"uint256"}],"stateMutability":"view"},{"type":"function","name":"registerProvider","inputs":[{"name":"name","type":"string","internalType":"string"},{"name":"url","type":"string","internalType":"string"}],"outputs":[],"stateMutability":"payable"},{"type":"function","name":"respondToChunkChallenge","inputs":[{"name":"commitment","type":"bytes32","internalType":"bytes32"},{"name":"chunkId","type":"uint16","internalType":"uint16"},{"name":"proof","type":"bytes32","internalType":"bytes32"}],"outputs":[],"stateMutability":"nonpayable"},{"type":"function","name":"submitChunkAttestations","inputs":[{"name":"commitment","type":"bytes32","internalType":"bytes32"},{"name":"chunkIds","type":"uint16[]","internalType":"uint16[]"}],"outputs":[],"stateMutability":"nonpayable"},{"type":"function","name":"submitCommitment","inputs":[{"name":"commitment","type":"bytes32","internalType":"bytes32"},{"name":"namespace","type":"string","internalType":"string"},{"name":"size","type":"uint32","internalType":"uint32"},{"name":"totalChunks","type":"uint16","internalType":"uint16"},{"name":"requiredChunks","type":"uint16","internalType":"uint16"}],"outputs":[],"stateMutability":"nonpayable"},{"type":"function","name":"withdrawStake","inputs":[{"name":"amount","type":"uint256","internalType":"uint256"}],"outputs":[],"stateMutability":"nonpayable"},{"type":"event","name":"ChunkAttestation","inputs":[{"name":"commitment","type":"bytes32","indexed":true,"internalType":"bytes32"},{"name":"provider","type":"address","indexed":true,"internalType":"address"},{"name":"chunkId","type":"uint16","indexed":false,"internalType":"uint16"}],"anonymous":false},{"type":"event","name":"ChunkChallengeIssued","inputs":[{"name":"challengeId","type":"bytes32","indexed":true,"internalType":"bytes32"},{"name":"commitment","type":"bytes32","indexed":true,"internalType":"bytes32"},{"name":"chunkId","type":"uint16","indexed":false,"internalType":"uint16"},{"name":"provider","type":"address","indexed":true,"internalType":"address"}],"anonymous":false},{"type":"event","name":"CommitmentCreated","inputs":[{"name":"commitment","type":"bytes32","indexed":true,"internalType":"bytes32"},{"name":"namespace","type":"string","indexed":false,"internalType":"string"},{"name":"size","type":"uint32","indexed":false,"internalType":"uint32"},{"name":"totalChunks","type":"uint16","indexed":false,"internalType":"uint16"},{"name":"requiredChunks","type":"uint16","indexed":false,"internalType":"uint16"}],"anonymous":false},{"type":"event","name":"CommitmentReady","inputs":[{"name":"commitment","type":"bytes32","indexed":true,"internalType":"bytes32"},{"name":"availableChunks","type":"uint16","indexed":false,"internalType":"uint16"}],"anonymous":false}],"bytecode":{"object":"0x60806040523480156200001157600080fd5b5060405162002c4638038062002c4683398101604081905262000034916200005e565b600080546001600160a01b0319166001600160a01b039390931692909217909155600c556200009a565b600080604083850312156200007257600080fd5b82516001600160a01b03811681146200008a57600080fd5b6020939093015192949293505050565b612b9c80620000aa6000396000f3fe60806040526004361061020f5760003560e01c80638630786511610118578063ca4bca39116100a0578063ee70b3571161006f578063ee70b357146108bd578063f02b04b7146108ea578063f260d1fc1461090a578063f32738591461092a578063fe1ea7661461096557600080fd5b8063ca4bca391461080f578063e19bb9651461082f578063e946f22f1461085c578063eb4f16b51461089d57600080fd5b8063a20bcb33116100e7578063a20bcb331461076f578063ac16c9851461078f578063b7ecbeba146107af578063c26e79de146107c4578063c3a079ed146107e457600080fd5b806386307865146105eb57806388f299dd146106275780638da5cb5b14610647578063a08bd4371461066757600080fd5b8063390bfd3c1161019b578063540b8e2d1161016a578063540b8e2d146104c85780635ed25346146104e857806374ca8971146105115780637583902f14610524578063839df9451461055157600080fd5b8063390bfd3c1461040d5780633cfe0c221461042d5780633f521c881461046b5780634bde3c101461049857600080fd5b806325585a4c116101e257806325585a4c1461035f57806325d5971f1461037b5780632bd771a71461039d5780633443c4b8146103ca578063375b3c0a146103f757600080fd5b80630787bc27146102145780630ab7a0e8146102af5780630fac8ac0146102e15780631fca472614610319575b600080fd5b34801561022057600080fd5b5061027261022f36600461223f565b6004602052600090815260409020805460019091015463ffffffff80831692600160201b8104821692600160401b820490921691600160601b90910460ff169085565b6040805163ffffffff96871681529486166020860152929094169183019190915215156060820152608081019190915260a0015b60405180910390f35b3480156102bb57600080fd5b5060008080806040805194855260208501939093529183015260608201526080016102a6565b3480156102ed57600080fd5b506103016102fc36600461226c565b610985565b6040516001600160a01b0390911681526020016102a6565b34801561032557600080fd5b50610351610334366004612298565b600a60209081526000928352604080842090915290825290205481565b6040519081526020016102a6565b34801561036b57600080fd5b50610351670de0b6b3a764000081565b34801561038757600080fd5b5061039b6103963660046122ba565b6109b3565b005b3480156103a957600080fd5b506103bd6103b836600461231f565b610af1565b6040516102a69190612361565b3480156103d657600080fd5b506103ea6103e536600461223f565b610c20565b6040516102a691906123ed565b34801561040357600080fd5b50610351600c5481565b34801561041957600080fd5b506103016104283660046122ba565b610cba565b34801561043957600080fd5b50610351610448366004612400565b600b60209081526000938452604080852082529284528284209052825290205481565b34801561047757600080fd5b5061048b6104863660046122ba565b610ce4565b6040516102a6919061243c565b3480156104a457600080fd5b506104b86104b336600461226c565b610d6e565b60405190151581526020016102a6565b3480156104d457600080fd5b5061048b6104e3366004612478565b610dc3565b3480156104f457600080fd5b506104fe61040081565b60405161ffff90911681526020016102a6565b61039b61051f3660046124dd565b610e5f565b34801561053057600080fd5b5061054461053f36600461223f565b6110c2565b6040516102a691906125f6565b34801561055d57600080fd5b506105b261056c3660046122ba565b60016020526000908152604090205463ffffffff80821691600160201b81049091169061ffff600160401b8204811691600160501b8104821691600160601b9091041685565b6040805163ffffffff968716815295909416602086015261ffff928316938501939093528116606084015216608082015260a0016102a6565b3480156105f757600080fd5b506104b86106063660046122ba565b600090815260016020526040902054600160201b900463ffffffff16151590565b34801561063357600080fd5b506103ea61064236600461223f565b6112e4565b34801561065357600080fd5b50600054610301906001600160a01b031681565b34801561067357600080fd5b506107166106823660046122ba565b6040805160a0808201835260008083526020808401829052838501829052606080850183905260809485018390529582526001815290849020845192830185525463ffffffff8082168452600160201b8204169183019190915261ffff600160401b8204811694830194909452600160501b81048416948201859052600160601b9004909216908201819052909291111590565b60408051835163ffffffff9081168252602080860151909116908201528382015161ffff9081169282019290925260608085015183169082015260809384015190911692810192909252151560a082015260c0016102a6565b34801561077b57600080fd5b506104b861078a3660046122ba565b6112fd565b34801561079b57600080fd5b506104fe6107aa366004612298565b611386565b3480156107bb57600080fd5b506104fe609681565b3480156107d057600080fd5b506103516107df366004612400565b6113cd565b3480156107f057600080fd5b506107fa610e1081565b60405163ffffffff90911681526020016102a6565b34801561081b57600080fd5b5061039b61082a366004612609565b611627565b34801561083b57600080fd5b5061084f61084a36600461263e565b611757565b6040516102a69190612660565b34801561086857600080fd5b5061030161087736600461226c565b60076020908152600092835260408084209091529082529020546001600160a01b031681565b3480156108a957600080fd5b5061039b6108b83660046122ba565b6118bc565b3480156108c957600080fd5b506103516108d83660046122ba565b60026020526000908152604090205481565b3480156108f657600080fd5b506104fe6109053660046126c4565b61196c565b34801561091657600080fd5b5061039b6109253660046126e9565b6119c0565b34801561093657600080fd5b5061094a6109453660046122ba565b611d86565b604080519384526020840192909252908201526060016102a6565b34801561097157600080fd5b5061039b610980366004612735565b611e79565b600082815260076020908152604080832061ffff851684529091529020546001600160a01b03165b92915050565b33600090815260046020526040902054600160601b900460ff166109f25760405162461bcd60e51b81526004016109e9906127bd565b60405180910390fd5b60008111610a425760405162461bcd60e51b815260206004820152601d60248201527f416d6f756e74206d7573742062652067726561746572207468616e203000000060448201526064016109e9565b33600090815260046020526040902060010154811115610a995760405162461bcd60e51b8152602060048201526012602482015271496e73756666696369656e74207374616b6560701b60448201526064016109e9565b3360009081526004602052604081206001018054839290610abb908490612816565b9091555050604051339082156108fc029083906000818181858888f19350505050158015610aed573d6000803e3d6000fd5b5050565b60608160008167ffffffffffffffff811115610b0f57610b0f612829565b604051908082528060200260200182016040528015610b38578160200160208202803683370190505b50905060005b82811015610c1757600060016000888885818110610b5e57610b5e61283f565b60209081029290920135835250818101929092526040908101600020815160a081018352905463ffffffff8082168352600160201b82041693820184905261ffff600160401b8204811693830193909352600160501b810483166060830152600160601b90049091166080820152915015801590610bec5750806060015161ffff16816080015161ffff1610155b838381518110610bfe57610bfe61283f565b9115156020928302919091019091015250600101610b3e565b50949350505050565b60066020526000908152604090208054610c3990612855565b80601f0160208091040260200160405190810160405280929190818152602001828054610c6590612855565b8015610cb25780601f10610c8757610100808354040283529160200191610cb2565b820191906000526020600020905b815481529060010190602001808311610c9557829003601f168201915b505050505081565b60038181548110610cca57600080fd5b6000918252602090912001546001600160a01b0316905081565b600081815260096020908152604091829020805483518184028101840190945280845260609392830182828015610d6257602002820191906000526020600020906000905b82829054906101000a900461ffff1661ffff1681526020019060020190602082600101049283019260010382029150808411610d295790505b50505050509050919050565b600080610d7d610100846128a5565b61ffff1690506000610d91610100856128c6565b6000958652600a602090815260408088209488529390529190942054600161ffff9092169190911b1615159392505050565b60008281526008602090815260408083206001600160a01b0385168452825291829020805483518184028101840190945280845260609392830182828015610e5257602002820191906000526020600020906000905b82829054906101000a900461ffff1661ffff1681526020019060020190602082600101049283019260010382029150808411610e195790505b5050505050905092915050565b3360009081526004602052604090205463ffffffff1615610ec25760405162461bcd60e51b815260206004820152601b60248201527f50726f766964657220616c72656164792072656769737465726564000000000060448201526064016109e9565b8215801590610ed2575060208311155b610f145760405162461bcd60e51b8152602060048201526013602482015272092dcecc2d8d2c840dcc2daca40d8cadccee8d606b1b60448201526064016109e9565b8015801590610f24575060808111155b610f655760405162461bcd60e51b8152602060048201526012602482015271092dcecc2d8d2c840aaa49840d8cadccee8d60731b60448201526064016109e9565b600c54341015610fac5760405162461bcd60e51b8152602060048201526012602482015271496e73756666696369656e74207374616b6560701b60448201526064016109e9565b6003805460018181019092557fc2575a0e9e593c00f959f8c92f12db2869c3395a3b0502d05e2516446f71f85b0180546001600160a01b031916339081179091556040805160a08101825263ffffffff42811682526000602083810182815284860183815260608601898152346080880190815298855260048452878520965187549351925191511515600160601b0260ff60601b19928816600160401b02929092166cffffffffff000000000000000019938816600160201b0267ffffffffffffffff199095169190971617929092171693909317929092178355935191909401556005909252206110a084868361292f565b503360009081526006602052604090206110bb82848361292f565b5050505050565b6110ca6121df565b6001600160a01b0382166000818152600460209081526040808320815160a081018352815463ffffffff8082168352600160201b8204811683870152600160401b82041682850152600160601b900460ff161515606082015260019091015460808201528151610100810183529484526005909252909120805491929182919061115390612855565b80601f016020809104026020016040519081016040528092919081815260200182805461117f90612855565b80156111cc5780601f106111a1576101008083540402835291602001916111cc565b820191906000526020600020905b8154815290600101906020018083116111af57829003601f168201915b50505050508152602001846001600160a01b0316815260200160066000866001600160a01b03166001600160a01b03168152602001908152602001600020805461121590612855565b80601f016020809104026020016040519081016040528092919081815260200182805461124190612855565b801561128e5780601f106112635761010080835404028352916020019161128e565b820191906000526020600020905b81548152906001019060200180831161127157829003601f168201915b50505050508152602001826000015163ffffffff168152602001826020015163ffffffff168152602001826040015163ffffffff1681526020018260600151151581526020018260800151815250915050919050565b60056020526000908152604090208054610c3990612855565b6000818152600160209081526040808320815160a081018352905463ffffffff8082168352600160201b82041693820184905261ffff600160401b8204811693830193909352600160501b810483166060830152600160601b90049091166080820152901580159061137f5750806060015161ffff16816080015161ffff1610155b9392505050565b600960205281600052604060002081815481106113a257600080fd5b9060005260206000209060109182820401919006600202915091509054906101000a900461ffff1681565b6000838152600160205260408120548490600160201b900463ffffffff166114075760405162461bcd60e51b81526004016109e9906129ef565b600085815260076020908152604080832061ffff881684529091529020546001600160a01b0384811691161461147f5760405162461bcd60e51b815260206004820152601f60248201527f50726f766964657220646f65736e2774206f776e2074686973206368756e6b0060448201526064016109e9565b6000858152600b6020908152604080832061ffff8816845282528083206001600160a01b0387168452909152902054156114fb5760405162461bcd60e51b815260206004820152601860248201527f4368616c6c656e676520616c726561647920616374697665000000000000000060448201526064016109e9565b60408051602081018790526001600160f01b031960f087901b16918101919091526bffffffffffffffffffffffff19606085811b8216604284015242605684015233901b166076820152608a0160408051808303601f1901815291815281516020928301206000888152600b845282812061ffff8916825284528281206001600160a01b03881682528452828120829055600493849052919091208054919450600160201b90910463ffffffff16916115b383612a26565b91906101000a81548163ffffffff021916908363ffffffff16021790555050826001600160a01b031685837f9a2190490de3b1f1bf69f982407eaa08bbe2adc554aa80a4ae96f25f74b7e20387604051611617919061ffff91909116815260200190565b60405180910390a4509392505050565b33600090815260046020526040902054600160601b900460ff1661165d5760405162461bcd60e51b81526004016109e9906127bd565b6000838152600b6020908152604080832061ffff861684528252808320338452909152902054806116c65760405162461bcd60e51b81526020600482015260136024820152724e6f20616374697665206368616c6c656e676560681b60448201526064016109e9565b816117035760405162461bcd60e51b815260206004820152600d60248201526c24b73b30b634b210383937b7b360991b60448201526064016109e9565b3360009081526004602052604090208054600160401b900463ffffffff1690600861172d83612a26565b91906101000a81548163ffffffff021916908363ffffffff1602179055505050505050565b505050565b60035460609060009067ffffffffffffffff81111561177857611778612829565b6040519080825280602002602001820160405280156117b157816020015b61179e6121df565b8152602001906001900390816117965790505b50905060005b6003548110156118b55783801561185b575060046000600383815481106117e0576117e061283f565b60009182526020808320909101546001600160a01b0316835282019290925260400190205460ff600160601b90910416158061185b5750600c5460046000600384815481106118315761183161283f565b60009182526020808320909101546001600160a01b03168352820192909252604001902060010154105b6118ad5761188f600382815481106118755761187561283f565b6000918252602090912001546001600160a01b03166110c2565b8282815181106118a1576118a161283f565b60200260200101819052505b6001016117b7565b5092915050565b33600090815260046020526040902054600160601b900460ff166118f25760405162461bcd60e51b81526004016109e9906127bd565b600081116119425760405162461bcd60e51b815260206004820152601d60248201527f416d6f756e74206d7573742062652067726561746572207468616e203000000060448201526064016109e9565b3360009081526004602052604081206001018054839290611964908490612a49565b909155505050565b6008602052826000526040600020602052816000526040600020818154811061199457600080fd5b906000526020600020906010918282040191900660020292509250509054906101000a900461ffff1681565b33600090815260046020526040902054600160601b900460ff166119f65760405162461bcd60e51b81526004016109e9906127bd565b6000838152600160205260409020548390600160201b900463ffffffff16611a305760405162461bcd60e51b81526004016109e9906129ef565b8115801590611a40575060328211155b611a825760405162461bcd60e51b8152602060048201526013602482015272125b9d985b1a590818da1d5b9ac818dbdd5b9d606a1b60448201526064016109e9565b600084815260016020526040812090805b84811015611ce2576000868683818110611aaf57611aaf61283f565b9050602002016020810190611ac49190612a5c565b845490915061ffff600160401b909104811690821610611b195760405162461bcd60e51b815260206004820152601060248201526f125b9d985b1a590818da1d5b9ac8125160821b60448201526064016109e9565b600088815260076020908152604080832061ffff851684529091529020546001600160a01b031615611b865760405162461bcd60e51b815260206004820152601660248201527510da1d5b9ac8185b1c9958591e48185d1d195cdd195960521b60448201526064016109e9565b600088815260076020908152604080832061ffff80861680865291845282852080546001600160a01b031916339081179091558d86526008855283862090865284529184208054600181018255908552928420601084040180546002600f9095169490940261010090810a928302929093021990931617909155611c0a90836128a5565b61ffff1690506000611c1e610100846128c6565b60008b8152600a6020908152604080832086845282528083208054600161ffff96871681811b9092179092558f8552600984529184208054918201815584529190922060108204018054600f9092166002026101000a808502199092169387169190910292909217909155905084611c9581612a77565b60405161ffff861681529096503391508b907f0d3612a65375aaed616b21fb3d1bfc5fcb7db37205b651f492456bab363a3d199060200160405180910390a3836001019350505050611a93565b50815481908390600c90611d02908490600160601b900461ffff16612a8e565b82546101009290920a61ffff8181021990931691831602179091558354600160501b81048216600160601b909104909116109050611d7e578154604051600160601b90910461ffff16815286907fec945f40a39d91f4317f852f732ad018288e363b2edfdf832749208505fcf46a906020015b60405180910390a25b505050505050565b6000818152600160209081526040808320815160a081018352905463ffffffff8082168352600160201b82041693820184905261ffff600160401b8204811693830193909352600160501b810483166060830152600160601b900490911660808201528291829190611e0a5760405162461bcd60e51b81526004016109e9906129ef565b806000015163ffffffff169350806060015161ffff16816040015161ffff168260000151611e389190612aa9565b611e429190612ad1565b63ffffffff16925080606001518160400151612710611e619190612ae8565b611e6b91906128a5565b61ffff169150509193909250565b85611ebb5760405162461bcd60e51b8152602060048201526012602482015271125b9d985b1a590818dbdb5b5a5d1b595b9d60721b60448201526064016109e9565b600086815260016020526040902054600160201b900463ffffffff1615611f245760405162461bcd60e51b815260206004820152601960248201527f436f6d6d69746d656e7420616c7265616479206578697374730000000000000060448201526064016109e9565b60008363ffffffff1611611f7a5760405162461bcd60e51b815260206004820152601b60248201527f53697a65206d7573742062652067726561746572207468616e2030000000000060448201526064016109e9565b8061ffff168261ffff1611611fd15760405162461bcd60e51b815260206004820152601f60248201527f496e76616c696420526565642d536f6c6f6d6f6e20706172616d65746572730060448201526064016109e9565b61040061ffff831611156120195760405162461bcd60e51b815260206004820152600f60248201526e546f6f206d616e79206368756e6b7360881b60448201526064016109e9565b836120585760405162461bcd60e51b815260206004820152600f60248201526e456d707479206e616d65737061636560881b60448201526064016109e9565b609681612066846064612ae8565b61207091906128a5565b61ffff1610156120c25760405162461bcd60e51b815260206004820152601760248201527f496e73756666696369656e7420726564756e64616e637900000000000000000060448201526064016109e9565b6040805160a08101825263ffffffff8086168252428116602080840191825261ffff808816858701908152878216606087019081526000608088018181528f825260019095528890209651875495519251915194518416600160601b0261ffff60601b19958516600160501b0261ffff60501b1993909516600160401b02929092166bffffffff000000000000000019938816600160201b0267ffffffffffffffff19909716919097161794909417169390931792909217919091161790555161218f9086908690612b06565b6040805191829003822060008981526002602052919091205586907f19b907386b39dbf5279c95617b3e1536cb7d153128dfd23bdc11af2996bebe8b90611d759088908890889088908890612b16565b6040805161010081018252606080825260006020830181905292820181905281018290526080810182905260a0810182905260c0810182905260e081019190915290565b80356001600160a01b038116811461223a57600080fd5b919050565b60006020828403121561225157600080fd5b61137f82612223565b803561ffff8116811461223a57600080fd5b6000806040838503121561227f57600080fd5b8235915061228f6020840161225a565b90509250929050565b600080604083850312156122ab57600080fd5b50508035926020909101359150565b6000602082840312156122cc57600080fd5b5035919050565b60008083601f8401126122e557600080fd5b50813567ffffffffffffffff8111156122fd57600080fd5b6020830191508360208260051b850101111561231857600080fd5b9250929050565b6000806020838503121561233257600080fd5b823567ffffffffffffffff81111561234957600080fd5b612355858286016122d3565b90969095509350505050565b6020808252825182820181905260009190848201906040850190845b8181101561239b57835115158352928401929184019160010161237d565b50909695505050505050565b6000815180845260005b818110156123cd576020818501810151868301820152016123b1565b506000602082860101526020601f19601f83011685010191505092915050565b60208152600061137f60208301846123a7565b60008060006060848603121561241557600080fd5b833592506124256020850161225a565b915061243360408501612223565b90509250925092565b6020808252825182820181905260009190848201906040850190845b8181101561239b57835161ffff1683529284019291840191600101612458565b6000806040838503121561248b57600080fd5b8235915061228f60208401612223565b60008083601f8401126124ad57600080fd5b50813567ffffffffffffffff8111156124c557600080fd5b60208301915083602082850101111561231857600080fd5b600080600080604085870312156124f357600080fd5b843567ffffffffffffffff8082111561250b57600080fd5b6125178883890161249b565b9096509450602087013591508082111561253057600080fd5b5061253d8782880161249b565b95989497509550505050565b6000610100825181855261255f828601826123a7565b91505060018060a01b0360208401511660208501526040830151848203604086015261258b82826123a7565b91505063ffffffff606084015116606085015260808301516125b5608086018263ffffffff169052565b5060a08301516125cd60a086018263ffffffff169052565b5060c08301516125e160c086018215159052565b5060e083015160e08501528091505092915050565b60208152600061137f6020830184612549565b60008060006060848603121561261e57600080fd5b8335925061262e6020850161225a565b9150604084013590509250925092565b60006020828403121561265057600080fd5b8135801515811461137f57600080fd5b600060208083016020845280855180835260408601915060408160051b87010192506020870160005b828110156126b757603f198886030184526126a5858351612549565b94509285019290850190600101612689565b5092979650505050505050565b6000806000606084860312156126d957600080fd5b8335925061262e60208501612223565b6000806000604084860312156126fe57600080fd5b83359250602084013567ffffffffffffffff81111561271c57600080fd5b612728868287016122d3565b9497909650939450505050565b60008060008060008060a0878903121561274e57600080fd5b86359550602087013567ffffffffffffffff81111561276c57600080fd5b61277889828a0161249b565b909650945050604087013563ffffffff8116811461279557600080fd5b92506127a36060880161225a565b91506127b16080880161225a565b90509295509295509295565b60208082526023908201527f50726f7669646572206e6f742072656769737465726564206f7220696e61637460408201526269766560e81b606082015260800190565b634e487b7160e01b600052601160045260246000fd5b818103818111156109ad576109ad612800565b634e487b7160e01b600052604160045260246000fd5b634e487b7160e01b600052603260045260246000fd5b600181811c9082168061286957607f821691505b60208210810361288957634e487b7160e01b600052602260045260246000fd5b50919050565b634e487b7160e01b600052601260045260246000fd5b600061ffff808416806128ba576128ba61288f565b92169190910492915050565b600061ffff808416806128db576128db61288f565b92169190910692915050565b601f821115611752576000816000526020600020601f850160051c810160208610156129105750805b601f850160051c820191505b81811015611d7e5782815560010161291c565b67ffffffffffffffff83111561294757612947612829565b61295b836129558354612855565b836128e7565b6000601f84116001811461298f57600085156129775750838201355b600019600387901b1c1916600186901b1783556110bb565b600083815260209020601f19861690835b828110156129c057868501358255602094850194600190920191016129a0565b50868210156129dd5760001960f88860031b161c19848701351681555b505060018560011b0183555050505050565b60208082526019908201527f436f6d6d69746d656e7420646f6573206e6f7420657869737400000000000000604082015260600190565b600063ffffffff808316818103612a3f57612a3f612800565b6001019392505050565b808201808211156109ad576109ad612800565b600060208284031215612a6e57600080fd5b61137f8261225a565b600061ffff808316818103612a3f57612a3f612800565b61ffff8181168382160190808211156118b5576118b5612800565b63ffffffff818116838216028082169190828114612ac957612ac9612800565b505092915050565b600063ffffffff808416806128ba576128ba61288f565b61ffff818116838216028082169190828114612ac957612ac9612800565b8183823760009101908152919050565b60808152846080820152848660a0830137600060a086830181019190915263ffffffff94909416602082015261ffff928316604082015291166060820152601f909201601f19169091010191905056fea2646970667358221220458cbf2bd7d2e5920d85fcf3a44c930269f08b400e0089b1c68b2360ceeb338d64736f6c63430008180033","linkReferences":{}},"methodIdentifiers":{"CHALLENGE_PENALTY()":"25585a4c","CHALLENGE_PERIOD()":"c3a079ed","MAX_CHUNKS()":"5ed25346","MIN_REDUNDANCY_RATIO()":"b7ecbeba","activeChunkChallenges(bytes32,uint16,address)":"3cfe0c22","addStake(uint256)":"eb4f16b5","availableChunkList(bytes32,uint256)":"ac16c985","chunkAvailability(bytes32,uint256)":"1fca4726","chunkOwners(bytes32,uint16)":"e946f22f","commitmentExists(bytes32)":"86307865","commitments(bytes32)":"839df945","getAvailableChunks(bytes32)":"3f521c88","getChunkOwner(bytes32,uint16)":"0fac8ac0","getCommitmentInfo(bytes32)":"a08bd437","getMultipleCommitmentStatus(bytes32[])":"2bd771a7","getNetworkStorageStats()":"0ab7a0e8","getProviderChunks(bytes32,address)":"540b8e2d","getProviderInfo(address)":"7583902f","getProviders(bool)":"e19bb965","getStorageEfficiency(bytes32)":"f3273859","isChunkAvailable(bytes32,uint16)":"4bde3c10","isCommitmentRecoverable(bytes32)":"a20bcb33","issueChunkChallenge(bytes32,uint16,address)":"c26e79de","minStake()":"375b3c0a","namespaceHashes(bytes32)":"ee70b357","owner()":"8da5cb5b","providerChunks(bytes32,address,uint256)":"f02b04b7","providerList(uint256)":"390bfd3c","providerNames(address)":"88f299dd","providerUrls(address)":"3443c4b8","providers(address)":"0787bc27","registerProvider(string,string)":"74ca8971","respondToChunkChallenge(bytes32,uint16,bytes32)":"ca4bca39","submitChunkAttestations(bytes32,uint16[])":"f260d1fc","submitCommitment(bytes32,string,uint32,uint16,uint16)":"fe1ea766","withdrawStake(uint256)":"25d5971f"},"id":21}